:020000040800F2
:10000000005000201501000811020008110200082C
:10001000110200081102000811020008000000008F
:10002000000000000000000000000000F12D0008AA
:100030001102000800000000D12F0008193000084C
:100040001102000811020008110200081102000844
:100050001102000811020008110200081102000834
:100060001102000811020008110200080D610008C9
:100070001102000811020008110200081102000814
:100080001102000811020008110200081102000804
:1000900011020008110200081102000811020008F4
:1000A00011020008110200081102000811020008E4
:1000B00011020008996000081102000811020008EE
:1000C00011020008110200081102000811020008C4
:1000D000110200086D9500081102000811020008C5
:1000E00011020008110200081102000800000000BF
:1000F0000000000000000000000000000000000000
:1001000000000000000000000000000004160020B5
:10011000004C002000B58BB02C4B04932C4B039368
:100120002C4B0293039B019307E0049A131D049345
:10013000019B191D019112681A60029A019B9A4253
:10014000F3D800BF244B0793244B0693079B0593DA
:1001500004E0059B1A1D059200221A60069A059B71
:100160009A42F6D800BF0AF02FFB00F073F81C4A41
:100170001C4BD31A9B1009930023089307E0194ADC
:10018000089B52F823309847089B01330893099A3B
:10019000089B9A42F3DC144A144BD31A9B10099320
:1001A0000023089307E0114A089B52F82330984730
:1001B000089B01330893099A089B9A42F3DC00BF1D
:1001C0000AF050FB04F076F9FEE700BFF0E6000805
:1001D0000000002028000020280000200416002035
:1001E000F0010008F001000808020008F001000812
:1001F000516E0008C5860008258B0008A9A50008D7
:08020000B9A7000831B50008A0
:10021000FEE7000084B00190019B03F00703039305
:100220000B4BDB680293029A4FF6FF0313400293D5
:10023000039B1A02029B134343F0BF6343F4003352
:100240000293034A029BD36000BF04B0704700BF13
:1002500000ED00E008B5174B1B68164A43F0010398
:100260001360144B5A681349134B13404B60114BE6
:100270001B68104A23F0847323F4803313600D4B02
:100280001B680C4A23F4802313600A4B5B68094AFD
:1002900023F4FE035360074B4FF41F029A6000F0F3
:1002A0000FF8064B4FF000629A600320FFF7B2FF91
:1002B00000BF08BD001002400000FFF800ED00E0A4
:1002C00082B00023019300230093394B1B68384A06
:1002D00043F480331360364B1B6803F40033009300
:1002E000019B01330193009B002B03D1019BB3F5CC
:1002F000A06FF0D12E4B1B6803F40033002B02D00B
:100300000123009301E000230093009B012B4BD1BC
:10031000284B1B68274A43F010031360254B1B68CA
:10032000244A23F007031360224B1B68214A43F041
:10033000020313601E4B1E4A5B6853601C4B1C4A31
:100340005B6853601A4B5B68194A43F480635360DF
:10035000174B5B68164A23F47C135360144B5B689D
:10036000134A43F410235360114B1B68104A43F0A7
:100370008073136000BF0E4B1B6803F00073002BEB
:10038000F9D00B4B5B680A4A23F003035360084B18
:100390005B68074A43F00203536000BF044B5B688D
:1003A00003F00C03082BF9D100BF02B0704700BF67
:1003B000001002400020024008B500F006F808B521
:1003C00000F003F882B00190FEE708B50120FFF7C6
:1003D000F9FFFEE786B00190002305930023049304
:1003E0000F230393019BDB78002B02D0019BDB786A
:1003F000012B00BF019BDB78002B3AD0264BDB683A
:10040000DB431B0A03F007030593059BC3F10403B9
:100410000493039A059B22FA03F30393019B5B78F1
:100420001A46049B02FA03F30593019B9B781A4634
:10043000039B1340059A13430593059B1B010593EA
:10044000164A019B1B780599C9B213440A4683F8E2
:100450000023019B1B7803F01F031049019A1278B7
:100460005209D2B21046012202FA03F341F82030B9
:100470000FE0019B1B7803F01F030849019A1278D3
:100480005209D2B2104601229A4000F1200341F8ED
:10049000232000BF06B0704700ED00E000E100E05F
:1004A000024B01229A6000BF704700BF003002403B
:1004B00082B00190034A019B1360024B1B681846EF
:1004C00002B0704700300240014B1B68184670476D
:1004D0000030024088B00190009100230793002370
:1004E0000493002306930023039300230593002322
:1004F0000293019B774A934216D0019B764A93421E
:1005000012D0019B754A93420ED0019B744A9342CC
:100510000AD0019B734A934206D0019B724A9342D0
:1005200002D0019B714A934200BF009BDB78002BF5
:100530001AD0009BDB78042B16D0009BDB78282B8D
:1005400012D0009BDB78482B0ED0009BDB78142B5D
:100550000AD0009BDB78102B06D0009BDB781C2B8D
:1005600002D0009BDB78182B00BF009BDB7803F0E8
:100570000F030793009BDB7803F01003002B11D0CF
:10058000009B9B78012B06D0009B9B78022B02D00E
:10059000009B9B78032B00BF009B9B781A46079B10
:1005A00013430793009B1B88DBB2002B44D0019BB5
:1005B0001B6805930023069338E00122069B02FA8C
:1005C00003F30393009B1B881A46039B1340049379
:1005D000049A039B9A4226D1069B9B0003930F2209
:1005E000039B02FA03F30293029BDB43059A134039
:1005F0000593079A039B02FA03F3059A13430593A5
:10060000009BDB78282B05D10122069B9A40019B99
:100610005A6108E0009BDB78482B04D10122069B3D
:100620009A40019B1A61069B01330693069B072B98
:10063000C3D9019B059A1A60009B1B88FF2B46D9E2
:10064000019B5B680593002306933AE0069B083301
:10065000012202FA03F30393009B1B881A46039BB3
:1006600013400493049A039B9A4227D1069B9B0054
:1006700003930F22039B02FA03F30293029BDB43D3
:10068000059A13400593079A039B02FA03F3059A10
:1006900013430593009BDB78282B05D1069B083379
:1006A00001229A40019B5A61009BDB78482B05D1BF
:1006B000069B083301229A40019B1A61069B013375
:1006C0000693069B072BC1D9019B059A5A6000BF70
:1006D00008B0704700080140000C014000100140C4
:1006E0000014014000180140001C0140002001409E
:1006F00082B001900B46ADF80230019B104A934244
:1007000016D0019B0F4A934212D0019B0E4A93428E
:100710000ED0019B0D4A93420AD0019B0C4A934292
:1007200006D0019B0B4A934202D0019B0A4A934296
:1007300000BFBDF80220019B1A6100BF02B07047E4
:1007400000080140000C014000100140001401406D
:1007500000180140001C01400020014082B00190BF
:100760000B46ADF80230019B104A934216D0019B14
:100770000F4A934212D0019B0E4A93420ED0019B26
:100780000D4A93420AD0019B0C4A934206D0019B2A
:100790000B4A934202D0019B0A4A934200BFBDF824
:1007A0000220019B5A6100BF02B07047000801405F
:1007B000000C0140001001400014014000180140ED
:1007C000001C01400020014082B001900B46ADF8B2
:1007D0000230019B124A934216D0019B114A934268
:1007E00012D0019B104A93420ED0019B0F4A9342B4
:1007F0000AD0019B0E4A934206D0019B0D4A9342B8
:1008000002D0019B0C4A934200BF019BDA68BDF8FD
:1008100002305A40019BDA6000BF02B0704700BF4F
:1008200000080140000C014000100140001401408C
:1008300000180140001C01400020014084B00190DC
:1008400000910023039300238DF80B30019B744A21
:10085000934206D0019B734A934202D0019B724A95
:10086000934200BF009B1B68002B2BD0009B1B6892
:10087000B3F5803F26D0009B1B68B3F5003F21D025
:10088000009B1B68B3F5403F1CD0009B1B68B3F571
:10089000802F17D0009B1B68B3F5A02F12D0009BB0
:1008A0001B68B3F5C02F0DD0009B1B68B3F5E02F7C
:1008B00008D0009B1B68B3F5002F03D0009B1B687A
:1008C000B3F5102F00BF009B1B79002B02D0009BBB
:1008D0001B79012B00BF009B5B79002B02D0009B92
:1008E0005B79012B00BF009B9B68002B3ED0009BD7
:1008F0009B68B3F5003F39D0009B9B68B3F5802F10
:1009000034D0009B9B68B3F5C02F2FD0009B9B6811
:10091000B3F5002F2AD0009B9B68B3F5202F25D07C
:10092000009B9B68B3F5402F20D0009B9B68B3F5DC
:10093000602F1BD0009B9B68002B17D0009B9B68EF
:10094000B3F5003F12D0009B9B68B3F5C02F0DD0CC
:10095000009B9B68B3F5002F08D0009B9B68B3F504
:10096000202F03D0009B9B68B3F5402F00BF009B56
:10097000DB68002B03D0009BDB68B3F5006F00BF82
:10098000009B1B7C002B03D0009B1B7C102B00BF0B
:10099000019B5B680393039B23F4702323F4807310
:1009A0000393009B1A68009B1B791B021343039A55
:1009B00013430393019B039A5A60019B9B68039323
:1009C000039A1A4B13400393009BDA68009B9B68C1
:1009D0001A43009B5B795B001343039A1343039311
:1009E000019B039A9A60019BDB6A0393039B23F4A8
:1009F00070030393009B1B7C013BDAB29DF80B3024
:100A000013438DF80B309DF80B301B05039A1343ED
:100A10000393019B039ADA6200BF04B0704700BFE2
:100A20000024014000280140003C0140FDF7F1FF97
:100A300082B001900B468DF80330019B134A93421C
:100A400006D0019B124A934202D0019B114A934265
:100A500000BF9DF80330002B02D09DF80330012B1E
:100A600000BF9DF80330002B06D0019B9B6843F02C
:100A70000102019B9A6005E0019B9B6823F0010243
:100A8000019B9A6000BF02B0704700BF0024014084
:100A900000280140003C014082B001900B468DF8D7
:100AA0000330019B114A934202D0019B104A9342AA
:100AB00000BF9DF80330002B02D09DF80330012BBE
:100AC00000BF9DF80330002B06D0019B9B6843F4C8
:100AD0008072019B9A6005E0019B9B6823F4807201
:100AE000019B9A6000BF02B0704700BF0024014024
:100AF000003C014082B00190019B0A4A934206D01B
:100B0000019B094A934202D0019B084A934200BFCD
:100B1000019B9B6843F00802019B9A6000BF02B0F2
:100B2000704700BF0024014000280140003C014004
:100B300084B0019000238DF80F30019B0E4A934240
:100B400006D0019B0D4A934202D0019B0C4A93426E
:100B500000BF019B9B6803F00803002B03D0012317
:100B60008DF80F3002E000238DF80F309DF80F3024
:100B7000184604B0704700BF00240140002801401F
:100B8000003C014082B00190019B0A4A934206D08A
:100B9000019B094A934202D0019B084A934200BF3D
:100BA000019B9B6843F00402019B9A6000BF02B066
:100BB000704700BF0024014000280140003C014074
:100BC00084B0019000238DF80F30019B0E4A9342B0
:100BD00006D0019B0D4A934202D0019B0C4A9342DE
:100BE00000BF019B9B6803F00403002B03D001238B
:100BF0008DF80F3002E000238DF80F309DF80F3094
:100C0000184604B0704700BF00240140002801408E
:100C1000003C014082B001900B468DF80330019BEF
:100C2000134A934206D0019B124A934202D0019B81
:100C3000114A934200BF9DF80330002B02D09DF86B
:100C40000330012B00BF9DF80330002B06D0019B21
:100C50009B6843F4A002019B9A6005E0019B9B689E
:100C600023F4A002019B9A6000BF02B0704700BF4E
:100C70000024014000280140003C014084B0019064
:100C8000084611461A4603468DF803300B468DF888
:100C9000023013468DF801300023039300230293A2
:100CA000019BA14A934206D0019BA04A934202D0E5
:100CB000019B9F4A934200BF9DF80330002B42D016
:100CC0009DF80330012B3ED09DF80330022B3AD023
:100CD0009DF80330032B36D09DF80330042B32D01F
:100CE0009DF80330052B2ED09DF80330062B2AD01B
:100CF0009DF80330072B26D09DF80330082B22D017
:100D00009DF80330092B1ED09DF803300A2B1AD012
:100D10009DF803300B2B16D09DF803300C2B12D00E
:100D20009DF803300D2B0ED09DF803300E2B0AD00A
:100D30009DF803300F2B06D09DF80330102B02D006
:100D40009DF80330112B00BF9DF80230002B03D01B
:100D50009DF80230102B00BF9DF80130002B1AD0F7
:100D60009DF80130012B16D09DF80130022B12D0D6
:100D70009DF80130032B0ED09DF80130042B0AD0D2
:100D80009DF80130052B06D09DF80130062B02D0CE
:100D90009DF80130072B00BF9DF80330092B26D9A1
:100DA000019BDB6803939DF80330A3F10A0213460D
:100DB0005B001344072202FA03F30293029BDB4316
:100DC000039A134003939DF801109DF80330A3F19B
:100DD0000A0213465B00134401FA03F30293039AD9
:100DE000029B13430393019B039ADA6021E0019B6A
:100DF0001B6903939DF8032013465B0013440722ED
:100E000002FA03F30293029BDB43039A134003931A
:100E10009DF801109DF8032013465B00134401FA6E
:100E200003F30293039A029B13430393019B039AD8
:100E30001A619DF80230062B24D8019B5B6B03934B
:100E40009DF802305A1E13469B0013441F2202FADB
:100E500003F30293029BDB43039A134003939DF831
:100E600003109DF802305A1E13469B00134401FAEA
:100E700003F30293039A029B13430393019B039A88
:100E80005A634EE09DF802300C2B24D8019B1B6B5B
:100E900003939DF80230DA1F13469B0013441F2270
:100EA00002FA03F30293029BDB43039A134003937A
:100EB0009DF803109DF80230DA1F13469B0013447F
:100EC00001FA03F30293039A029B13430393019BDA
:100ED000039A1A6325E0019BDB6A03939DF80230B5
:100EE000A3F10D0213469B0013441F2202FA03F3E1
:100EF0000293029BDB43039A134003939DF8031074
:100F00009DF80230A3F10D0213469B00134401FA31
:100F100003F30293039A029B13430393019B039AE7
:100F2000DA6200BF04B0704700240140002801408D
:100F3000003C014082B001900B468DF80330019BCC
:100F4000134A934206D0019B124A934202D0019B5E
:100F5000114A934200BF9DF80330002B02D09DF848
:100F60000330012B00BF9DF80330002B06D0019BFE
:100F70005B6843F48062019B5A6005E0019B5B68FB
:100F800023F48062019B5A6000BF02B0704700BF2B
:100F90000024014000280140003C014084B0019041
:100FA000009100230393019B274A934206D0019BA3
:100FB000264A934202D0019B254A934200BF009BE0
:100FC000002B2ED0009BB3F5805F2AD0009BB3F599
:100FD000005F26D0009BB3F5405F22D0009BB3F5A5
:100FE000804F1ED0009BB3F5A04F1AD0009BB3F5E5
:100FF000C04F16D0009BB3F5E04F12D0009BB3F565
:10100000005F0ED0009BB3F5405F0AD0009BB3F5A4
:10101000804F06D0009BB3F5A04F02D0009BB3F5E4
:10102000C04F00BF019B9B680393039B23F4E043E5
:101030000393039A009B13430393019B039A9A60C3
:1010400000BF04B0704700BF0024014000280140E9
:10105000003C014082B001900B468DF80330019BAB
:10106000134A934206D0019B124A934202D0019B3D
:10107000114A934200BF9DF80330002B02D09DF827
:101080000330012B00BF9DF80330002B06D0019BDD
:101090009B6843F40212019B9A6005E0019B9B68E8
:1010A00023F40212019B9A6000BF02B0704700BF98
:1010B0000024014000280140003C014086B001901E
:1010C000084611461A4603468DF803300B468DF844
:1010D000023013468DF8013000230593002304935A
:1010E00000230393019B804A934206D0019B7F4AD1
:1010F000934202D0019B7E4A934200BF9DF8033089
:10110000002B42D09DF80330012B3ED09DF80330D8
:10111000022B3AD09DF80330032B36D09DF80330D4
:10112000042B32D09DF80330052B2ED09DF80330D0
:10113000062B2AD09DF80330072B26D09DF80330CC
:10114000082B22D09DF80330092B1ED09DF80330C8
:101150000A2B1AD09DF803300B2B16D09DF80330C4
:101160000C2B12D09DF803300D2B0ED09DF80330C0
:101170000E2B0AD09DF803300F2B06D09DF80330BC
:10118000102B02D09DF80330112B00BF9DF80230C8
:10119000002B03D09DF80230042B00BF9DF80130D6
:1011A000002B1AD09DF80130012B16D09DF801308C
:1011B000022B12D09DF80130032B0ED09DF8013088
:1011C000042B0AD09DF80130052B06D09DF8013084
:1011D000062B02D09DF80130072B00BF9DF803308D
:1011E000092B26D9019BDB6805939DF80330A3F1F9
:1011F0000A0213465B001344072202FA03F3049326
:10120000049BDB43059A134005939DF801109DF85C
:101210000330A3F10A0213465B00134401FA03F3FF
:101220000493059A049B13430593019B059ADA6086
:1012300021E0019B1B6905939DF8032013465B0089
:101240001344072202FA03F30493049BDB43059A39
:10125000134005939DF801109DF8032013465B0091
:10126000134401FA03F30493059A049B1343059373
:10127000019B059A1A61019B9B6B0593059B1B0DB6
:1012800003F003030393039BDBB29DF80220D31A00
:10129000DBB20233DBB21A4613469B0013441F2213
:1012A00002FA03F30493049BDB43059A134005936E
:1012B0009DF80320039BDBB29DF80210CB1ADBB232
:1012C0000233DBB219460B469B000B4402FA03F3D0
:1012D0000493059A049B13430593019B059A9A6313
:1012E00000BF06B0704700BF002401400028014045
:1012F000003C014084B001900B468DF80330002380
:10130000039300230293019B144A934206D0019B4E
:10131000134A934202D0019B124A934200BF9DF8A8
:101320000330002B03D09DF80330042B00BF019B3A
:101330009B6B0393039B23F4401303939DF80330AB
:10134000013B0293029B1B05039A13430393019BEA
:10135000039A9A6300BF04B0704700BF00240140A5
:1013600000280140003C014082B003468DF8073060
:101370009DF80730002B02D09DF80730012B00BFED
:101380009DF80730002B06D0074B9B68064A43F4B4
:101390000003936005E0044B9B68034A23F40003B9
:1013A000936000BF02B070470024014000B583B0D5
:1013B0000190019B304A93420ED0019B2F4A9342E9
:1013C0000AD0019B2E4A934206D0019B2D4A93429C
:1013D00002D0019B2C4A934200BF019B264A9342B4
:1013E0000AD101214FF4804001F004F900214FF4AB
:1013F000804001F0FFF83AE0019B204A93420AD175
:1014000001214FF4003001F023F900214FF40030A6
:1014100001F01EF92BE0019B194A93420AD10121E8
:101420004FF4802001F014F900214FF4802001F0E6
:101430000FF91CE0019B134A93420AD101214FF49A
:10144000002001F005F900214FF4002001F000F91F
:101450000DE0019B0C4A934209D101214FF4801009
:1014600001F0F6F800214FF4801001F0F1F800BF10
:1014700003B05DF804FB00BF0038014000440040A9
:1014800000480040004C00400050004000B58DB0C6
:101490000190009100230B9300230A9300230993EA
:1014A0000023089300230793019B8D4A93420ED09B
:1014B000019B8C4A93420AD0019B8B4A934206D0EF
:1014C000019B8A4A934202D0019B894A934200BF02
:1014D000009B1B68002B04D0009B1B68854A93422D
:1014E00000BF009B9B88002B03D0009B9B88B3F51B
:1014F000805F00BF009BDB88002B0DD0009BDB884A
:10150000B3F5805F08D0009BDB88B3F5005F03D0A4
:10151000009BDB88B3F5405F00BF009B1B89002B5D
:1015200008D0009B1B89B3F5806F03D0009B1B89FB
:10153000B3F5C06F00BF009B5B891A464FF6F3738B
:101540001340002B03D1009B5B89002B00BF009B45
:101550009B89002B0DD0009B9B89B3F5807F08D021
:10156000009B9B89B3F5007F03D0009B9B89B3F55B
:10157000407F00BF009B9B89002B0BD0019B584AEA
:10158000934206D0019B574A934202D0019B564A90
:10159000934200BF019B0793019B1B8A9BB20B9355
:1015A0000B9A4CF6FF7313400B93009BDB881A4693
:1015B0000B9B13430B930B9B9AB2019B1A82019BCB
:1015C0009B899BB20B930B9A4EF6F31313400B932C
:1015D000009B9A88009B1B8913439AB2009B5B89EE
:1015E00013439BB21A460B9B13430B930B9B9AB26C
:1015F000019B9A81019B9B8A9BB20B930B9A4FF69E
:10160000FF4313400B93009B9B891A460B9B13438C
:101610000B930B9B9AB2019B9A8202AB184600F087
:10162000ABFE079B2E4A934202D1059B0A9301E031
:10163000049B0A93019B9B899BB21BB2002B0CDA83
:101640000A9A13469B0013449A001A44009B1B6895
:101650005B00B2FBF3F309930BE00A9A13469B007D
:1016600013449A001A44009B1B689B00B2FBF3F3DF
:101670000993099B204AA2FB03235B091B010B93DF
:101680000B9B1B09642202FB03F3099AD31A0893EC
:10169000019B9B899BB21BB2002B0CDA089BDB00E1
:1016A0003233154AA2FB03235B0903F007030B9AAD
:1016B00013430B930BE0089B1B0132330E4AA2FB32
:1016C00003235B0903F00F030B9A13430B930B9B4C
:1016D0009AB2019B1A8100BF0DB05DF804FB00BFF8
:1016E000003801400044004000480040004C0040E9
:1016F0000050004020AA44001F85EB5182B00190A9
:101700000B468DF80330019B194A93420ED0019B82
:10171000184A93420AD0019B174A934206D0019B74
:10172000164A934202D0019B154A934200BF9DF88E
:101730000330002B02D09DF80330012B00BF9DF831
:101740000330002B08D0019B9B899BB243F40053CC
:101750009AB2019B9A8107E0019B9B899BB223F47B
:1017600000539AB2019B9A8100BF02B0704700BF3C
:10177000003801400044004000480040004C004058
:101780000050004086B001900B46ADF80230134681
:101790008DF8013000230493002303930023029368
:1017A00000230593019B484A93420ED0019B474A70
:1017B00093420AD0019B464A934206D0019B454A78
:1017C000934202D0019B444A934200BFBDF80230CD
:1017D000282B26D0BDF8023040F22772934220D049
:1017E000BDF8023040F2266293421AD0BDF80230B2
:1017F00040F22552934214D0BDF8023040F2244208
:1018000093420ED0BDF8023040F64602934208D013
:10181000BDF8023040F66A12934202D0BDF80230A1
:10182000602B00BF9DF80130002B02D09DF80130E5
:10183000012B00BFBDF8023040F66A1293420BD173
:10184000019B214A934206D0019B204A934202D039
:10185000019B1F4A934200BF019B0593BDF80230D4
:10186000DBB25B09DBB20493BDF8023003F01F0367
:1018700003930122039B02FA03F30293049B012BBF
:1018800003D1059B0C33059309E0049B022B03D184
:10189000059B1033059302E0059B143305939DF8D7
:1018A0000130002B06D0059B1968059B029A0A435C
:1018B0001A6006E0059B1968029BDA43059B0A4003
:1018C0001A6000BF06B07047003801400044004075
:1018D00000480040004C00400050004082B00190A1
:1018E0000B46ADF80230019B0E4A93420ED0019B8D
:1018F0000D4A93420AD0019B0C4A934206D0019BA9
:101900000B4A934202D0019B0A4A934200BFBDF8A2
:101910000230C3F308039AB2019B9A8000BF02B061
:10192000704700BF003801400044004000480040BC
:10193000004C00400050004082B00190019B0E4AD4
:1019400093420ED0019B0D4A93420AD0019B0C4A50
:10195000934206D0019B0B4A934202D0019B0A4A54
:10196000934200BF019B9B889BB2C3F308039BB2C9
:10197000184602B0704700BF0038014000440040E4
:1019800000480040004C00400050004084B00190EE
:101990000B46ADF8023000238DF80F30019B314A21
:1019A00093420ED0019B304A93420AD0019B2F4AAA
:1019B000934206D0019B2E4A934202D0019B2D4AAE
:1019C000934200BFBDF80230012B24D0BDF8023095
:1019D000802B20D0BDF80230402B1CD0BDF8023047
:1019E000202B18D0BDF80230102B14D0BDF80230D7
:1019F000B3F5807F0FD0BDF80230B3F5007F0AD079
:101A0000BDF80230082B06D0BDF80230042B02D0FE
:101A1000BDF80230022B00BFBDF80230B3F5007FE5
:101A20000BD1019B0F4A934206D0019B0E4A934271
:101A300002D0019B0D4A934200BF019B1B889AB2C2
:101A4000BDF8023013409BB2002B03D001238DF868
:101A50000F3002E000238DF80F309DF80F3018464C
:101A600004B0704700380140004400400048004086
:101A7000004C00400050004084B001900B46ADF88F
:101A800002300023ADF80E300023ADF80C30019B7E
:101A9000284A93420ED0019B274A93420AD0019BC9
:101AA000264A934206D0019B254A934202D0019BCD
:101AB000244A934200BFBDF8023040F226629342AE
:101AC00010D0BDF8023040F2255293420AD0BDF842
:101AD000023040F64602934204D0BDF8023040F690
:101AE0006A12934200BFBDF8023040F66A12934278
:101AF0000BD1019B0F4A934206D0019B0E4A9342A1
:101B000002D0019B0D4A934200BFBDF802301B0A70
:101B1000ADF80E30BDF80E30012202FA03F3ADF835
:101B20000C30BDF80C30DB439AB2019B1A8000BF29
:101B300004B07047003801400044004000480040B5
:101B4000004C00400050004084B001900091002300
:101B50000393019B624A93422AD0019B614A9342BC
:101B600026D0019B604A934222D0019B5F4A934258
:101B70001ED0019B5E4A93421AD0019B5D4A93425C
:101B800016D0019B5C4A934212D0019B5B4A934260
:101B90000ED0019B5A4A93420AD0019B594A934264
:101BA00006D0019B584A934202D0019B574A934268
:101BB00000BF009B9B68102B02D0009B9B68002BF2
:101BC00000BF009BDB68002B04D0009BDB68B3F5F3
:101BD000803F00BF009B1B69402B02D0009B1B690C
:101BE000002B00BF009B5B69802B02D0009B5B69D0
:101BF000002B00BF009B9B69002B08D0009B9B69BA
:101C0000B3F5807F03D0009B9B69B3F5007F00BFD5
:101C1000009BDB69002B08D0009BDB69B3F5806F6C
:101C200003D0009BDB69B3F5006F00BF009B1B6A0C
:101C3000202B02D0009B1B6A002B00BF009B5B6A1D
:101C4000B3F5405F0CD0009B5B6AB3F5005F07D033
:101C5000009B5B6AB3F5805F02D0009B5B6A002B40
:101C600000BF009B9B6AB3F5804F02D0009B9B6A2C
:101C7000002B00BF019B1B680393039B23F4FF43CE
:101C800023F070030393009B9A68009B1B6A1A431E
:101C9000009B1B691A43009B5B691A43009B9B696D
:101CA0001A43009BDB691A43009B5B6A1A43009B43
:101CB0009B6A1343039A13430393019B039A1A608D
:101CC000009BDA68019B5A60009B1A68019B9A602E
:101CD000009B5A68019BDA6000BF04B0704700BFE8
:101CE000080002401C000240300002404400024054
:101CF000580002406C00024080000240080402408C
:101D00001C040240300402404404024058040240D3
:101D100082B001900B468DF80330019B254A934217
:101D20002AD0019B244A934226D0019B234A934206
:101D300022D0019B224A93421ED0019B214A93420A
:101D40001AD0019B204A934216D0019B1F4A93420E
:101D500012D0019B1E4A93420ED0019B1D4A934212
:101D60000AD0019B1C4A934206D0019B1B4A934216
:101D700002D0019B1A4A934200BF9DF80330002B0A
:101D800002D09DF80330012B00BF9DF80330002BDB
:101D900006D0019B1B6843F00102019B1A6006E01C
:101DA000019B1A684FF6FE731340019A136000BF3F
:101DB00002B07047080002401C00024030000240A0
:101DC00044000240580002406C0002408000024083
:101DD000080402401C040240300402404404024053
:101DE0005804024084B00390029113468DF80730E6
:101DF000039B2A4A93422AD0039B294A934226D026
:101E0000039B284A934222D0039B274A93421ED029
:101E1000039B264A93421AD0039B254A934216D02D
:101E2000039B244A934212D0039B234A93420ED031
:101E3000039B224A93420AD0039B214A934206D035
:101E4000039B204A934202D0039B1F4A934200BF48
:101E5000029B23F00E03002B02D1029B002B00BF3C
:101E60009DF80730002B02D09DF80730012B00BFF2
:101E70009DF80730002B06D0039B1A68029B1A437B
:101E8000039B1A6006E0039B1A68029BDB431A401F
:101E9000039B1A6000BF04B0704700BF08000240F7
:101EA0001C00024030000240440002405800024042
:101EB0006C00024080000240080402401C04024002
:101EC00030040240440402405804024084B00190AF
:101ED00000238DF80F3000230293019B012B00F0AB
:101EE000C280019B022B00F0BE80019B042B00F0FE
:101EF000BA80019B082B00F0B680019B102B00F0EC
:101F0000B280019B202B00F0AE80019B402B00F0A3
:101F1000AA80019B802B00F0A680019BB3F5807FF7
:101F200000F0A180019BB3F5007F00F09C80019B35
:101F3000B3F5806F00F09780019BB3F5006F00F060
:101F40009280019BB3F5805F00F08D80019BB3F51B
:101F5000005F00F08880019BB3F5804F00F0838024
:101F6000019BB3F5004F7ED0019BB3F5803F7AD043
:101F7000019BB3F5003F76D0019BB3F5802F72D063
:101F8000019BB3F5002F6ED0019BB3F5801F6AD083
:101F9000019BB3F5001F66D0019BB3F5800F62D0A3
:101FA000019BB3F5000F5ED0019BB3F1807F5AD047
:101FB000019BB3F1007F56D0019BB3F1806F52D0EB
:101FC000019BB3F1006F4ED0019B364A93424AD039
:101FD000019B354A934246D0019B344A934242D0FA
:101FE000019B334A93423ED0019B324A93423AD0FE
:101FF000019B314A934236D0019B304A934232D002
:10200000019B2F4A93422ED0019B2E4A93422AD005
:10201000019B2D4A934226D0019B2C4A934222D009
:10202000019B2B4A93421ED0019BB3F1102F1AD073
:10203000019B284A934216D0019B274A934212D013
:10204000019B264A93420ED0019B254A93420AD017
:10205000019B244A934206D0019B234A934202D01B
:10206000019B224A934200BF019B03F08053002B47
:1020700003D01F4B1B68029302E01E4B1B680293A8
:10208000029A019B1340002B03D001238DF80F30DF
:1020900002E000238DF80F309DF80F30184604B091
:1020A000704700BF01000010020000100400001083
:1020B0000800001010000010200000104000001068
:1020C0008000001000010010000200100004001049
:1020D00000080010002000100040001000800010D8
:1020E00000000110000002100000041000000810A1
:1020F000000402400000024082B00190019B03F006
:102100007043002B04D0019A0A4B1340002B02D1DC
:10211000019B002B00BF019B03F08053002B03D0D9
:10212000054A019B536002E0044A019B536000BFD3
:1021300002B070470000F0EF0004024000000240CF
:1021400084B0019000910023ADF80E30019B584AF5
:10215000934206D0019B574A934202D0019B564AB4
:10216000934200BF009B1B88002B0DD0009B1B8857
:10217000B3F5806F08D0009B1B88B3F5004F03D0E8
:10218000009B1B88B3F5404F00BF009B5B88B3F5F5
:10219000827F02D0009B5B88002B00BF009B9B8846
:1021A000B3F5006F02D0009B9B88002B00BF009B03
:1021B000DB88002B02D0009BDB88022B00BF009B3A
:1021C0001B89002B02D0009B1B89012B00BF009BA9
:1021D0005B89B3F5007F02D0009B5B89002B00BFB9
:1021E000009B9B89002B1AD0009B9B89082B16D043
:1021F000009B9B89102B12D0009B9B89182B0ED023
:10220000009B9B89202B0AD0009B9B89282B06D002
:10221000009B9B89302B02D0009B9B89382B00BFF1
:10222000009BDB89002B02D0009BDB89802B00BF49
:10223000019B1B88ADF80E30BDF80E3003F44153FE
:10224000ADF80E30009B1A88009B5B8813439AB24E
:10225000009B9B8813439AB2009BDB8813439AB27E
:10226000009B1B8913439AB2009B5B8913439AB26C
:10227000009B9B8913439AB2009BDB8913439AB25C
:10228000BDF80E301343ADF80E30019BBDF80E20A3
:102290001A80019B9B8B9BB223F400639AB2019B33
:1022A0009A83009B1A8A019B1A8200BF04B0704770
:1022B0000030014000380040003C004082B00190F6
:1022C0000B468DF80330019B154A934206D0019BC3
:1022D000144A934202D0019B134A934200BF9DF8D7
:1022E0000330002B02D09DF80330012B00BF9DF876
:1022F0000330002B08D0019B1B889BB243F04003A6
:102300009AB2019B1A8007E0019B1B889BB223F0C5
:1023100040039AB2019B1A8000BF02B0704700BF11
:102320000030014000380040003C004084B0019083
:1023300000230393019B002B0AD0019BB3F5804F30
:1023400006D0019BB3F5004F02D0019BB3F5404F7F
:1023500000BF084B5B680393039B23F44043039344
:10236000039A019B13430393024A039B536000BFEC
:1023700004B070470010024086B00190002305931E
:102380000023049300230393002302934E4B5B68C6
:1023900003F00C030593059B082B11D0059B082B1C
:1023A0003AD8059B002B03D0059B042B04D033E0C7
:1023B000019B464A1A6033E0019B454A1A602FE0B0
:1023C000414B5B6803F4701304933F4B5B6803F469
:1023D00080330393049B9B0C02330493039B002BD9
:1023E00006D1049B3B4A03FB02F2019B1A6017E0F3
:1023F000354B5B6803F40033002B06D0049B334A53
:1024000003FB02F2019B1A600AE0049B304A03FBC3
:1024100002F2019B1A6003E0019B2C4A1A6000BF84
:10242000294B5B6803F0F0030593059B1B0905939B
:10243000294A059B13441B78DBB20293019B1A685F
:10244000029BDA40019B5A601F4B5B6803F4E06318
:102450000593059B1B0A05931F4A059B13441B7894
:10246000DBB20293019B5A68029BDA40019B9A609F
:10247000154B5B6803F460530593059BDB0A0593DA
:10248000154A059B13441B78DBB20293019B5A68E3
:10249000029BDA40019BDA600B4B5B6803F440431C
:1024A0000593059B9B0B05930C4A059B13441B78D6
:1024B000DBB20293019BDA68029BB2FBF3F2019B51
:1024C0001A6100BF06B070470010024000127A0087
:1024D0000024F40000093D0000000020100000204E
:1024E00082B001900B468DF80330019B23F4AA6360
:1024F00023F00703002B02D1019B002B00BF9DF8A6
:102500000330002B02D09DF80330012B00BF9DF853
:102510000330002B06D0084B5A690749019B13432F
:102520004B6106E0044B5A69019BDB4302491340AF
:102530004B6100BF02B070470010024082B00190B2
:102540000B468DF80330019A114B1340002B02D13A
:10255000019B002B00BF9DF80330002B02D09DF89B
:102560000330012B00BF9DF80330002B06D0094B30
:102570009A690849019B13438B6106E0054B9A69F0
:10258000019BDB43034913408B6100BF02B07047DE
:102590000200C0FF0010024082B001900B468DF88F
:1025A0000330019A114B1340002B02D1019B002BE9
:1025B00000BF9DF80330002B02D09DF80330012BA3
:1025C00000BF9DF80330002B06D0094BDA6908499B
:1025D000019B1343CB6106E0054BDA69019BDB43AA
:1025E00003491340CB6100BF02B070470036018140
:1025F0000010024082B001900B468DF80330019A22
:10260000114B1340002B02D1019B002B00BF9DF802
:102610000330002B02D09DF80330012B00BF9DF842
:102620000330002B06D0094BDA680849019B13439D
:10263000CB6006E0054BDA68019BDB43034913409E
:10264000CB6000BF02B070470200C0FF0010024024
:1026500082B001900B468DF80330019A114B134064
:10266000002B02D1019B002B00BF9DF80330002BF3
:1026700002D09DF80330012B00BF9DF80330002BE2
:1026800006D0094B1A690849019B13430B6106E008
:10269000054B1A69019BDB43034913400B6100BFE3
:1026A00002B07047003601810010024084B00190F2
:1026B00000910023ADF80E30019B674A93423ED053
:1026C000019BB3F1804F3AD0019B644A934236D0CC
:1026D000019B634A934232D0019B624A93422ED0BF
:1026E000019B614A93422AD0019B604A934226D0C3
:1026F000019B5F4A934222D0019B5E4A93421ED0C7
:10270000019B5D4A93421AD0019B5C4A934216D0CA
:10271000019B5B4A934212D0019B5A4A93420ED0CE
:10272000019B594A93420AD0019B584A934206D0D2
:10273000019B574A934202D0019B564A934200BFE5
:10274000009B5B88002B0ED0009B5B88102B0AD06F
:10275000009B5B88202B06D0009B5B88402B02D01F
:10276000009B5B88602B00BF009BDB88002B08D0A0
:10277000009BDB88B3F5807F03D0009BDB88B3F53B
:10278000007F00BF019B1B88ADF80E30019B324AD1
:10279000934213D0019B364A93420FD0019BB3F171
:1027A000804F0BD0019B2D4A934207D0019B2C4AAE
:1027B000934203D0019B2B4A93420CD1BDF80E30BB
:1027C00023F07003ADF80E30009B5A88BDF80E3030
:1027D0001343ADF80E30019B234A934210D0019B66
:1027E000224A93420CD0BDF80E3023F44073ADF86A
:1027F0000E30009BDA88BDF80E301343ADF80E3072
:10280000019BBDF80E201A80009B9A88019B9A8537
:10281000009B1A88019B1A85019B0F4A93420FD097
:10282000019B134A93420BD0019B184A934207D055
:10283000019B174A934203D0019B164A934204D14D
:10284000009B1B7A9AB2019B1A86019B01229A82F5
:1028500000BF04B0704700BF002C014000040040DE
:1028600000080040000C0040001000400014004030
:1028700000340140004C0140005001400054014030
:1028800000180040001C00400020004000400140B3
:10289000004401400048014082B001900B468DF891
:1028A0000330019B314A93423ED0019BB3F1804FEC
:1028B0003AD0019B2E4A934236D0019B2D4A934237
:1028C00032D0019B2C4A93422ED0019B2B4A93423B
:1028D0002AD0019B2A4A934226D0019B294A93423F
:1028E00022D0019B284A93421ED0019B274A934243
:1028F0001AD0019B264A934216D0019B254A934247
:1029000012D0019B244A93420ED0019B234A93424A
:102910000AD0019B224A934206D0019B214A93424E
:1029200002D0019B204A934200BF9DF80330002B48
:1029300002D09DF80330012B00BF9DF80330002B1F
:1029400008D0019B1B889BB243F001039AB2019B04
:102950001A8007E0019B1B889BB223F001039AB207
:10296000019B1A8000BF02B0704700BF002C0140DD
:102970000004004000080040000C0040001000402F
:102980000014004000340140004C01400050014060
:102990000054014000180040001C0040002000408E
:1029A00000400140004401400048014082B00190D5
:1029B0000B46ADF8023013468DF80130019B384AC2
:1029C00093423ED0019BB3F1804F3AD0019B354AF0
:1029D000934236D0019B344A934232D0019B334A12
:1029E00093422ED0019B324A93422AD0019B314A16
:1029F000934226D0019B304A934222D0019B2F4A1A
:102A000093421ED0019B2E4A93421AD0019B2D4A1D
:102A1000934216D0019B2C4A934212D0019B2B4A21
:102A200093420ED0019B2A4A93420AD0019B294A25
:102A3000934206D0019B284A934202D0019B274A29
:102A4000934200BFBDF8023003F47F43002B03D153
:102A5000BDF80230002B00BF9DF80130002B02D0E2
:102A60009DF80130012B00BF9DF80130002B09D0EB
:102A7000019B9B899AB2BDF8023013439AB2019B25
:102A80009A810AE0019B9B899AB2BDF80230DB4330
:102A90009BB213409AB2019B9A8100BF02B070476B
:102AA000002C01400004004000080040000C0040E1
:102AB000001000400014004000340140004C014070
:102AC000005001400054014000180040001C00402C
:102AD0000020004000400140004401400048014007
:102AE00084B001900B46ADF8023000238DF80F3012
:102AF0000023ADF80C300023ADF80A30019B434AA7
:102B000093423ED0019BB3F1804F3AD0019B404AA3
:102B1000934236D0019B3F4A934232D0019B3E4ABA
:102B200093422ED0019B3D4A93422AD0019B3C4ABE
:102B3000934226D0019B3B4A934222D0019B3A4AC2
:102B400093421ED0019B394A93421AD0019B384AC6
:102B5000934216D0019B374A934212D0019B364ACA
:102B600093420ED0019B354A93420AD0019B344ACE
:102B7000934206D0019B334A934202D0019B324AD2
:102B8000934200BFBDF80230012B1AD0BDF80230CD
:102B9000022B16D0BDF80230042B12D0BDF8023043
:102BA000082B0ED0BDF80230102B0AD0BDF8023031
:102BB000202B06D0BDF80230402B02D0BDF80230E9
:102BC000802B00BF019B1B8A9AB2BDF802301340D4
:102BD000ADF80C30019B9B899AB2BDF802301340CE
:102BE000ADF80A30BDF80C30002B07D0BDF80A3024
:102BF000002B03D001238DF80F3002E000238DF865
:102C00000F309DF80F30184604B07047002C01407B
:102C10000004004000080040000C0040001000408C
:102C20000014004000340140004C014000500140BD
:102C30000054014000180040001C004000200040EB
:102C400000400140004401400048014082B0019032
:102C50000B46ADF80230019B2A4A93423ED0019BBD
:102C6000B3F1804F3AD0019B274A934236D0019B63
:102C7000264A934232D0019B254A93422ED0019B93
:102C8000244A93422AD0019B234A934226D0019B97
:102C9000224A934222D0019B214A93421ED0019B9B
:102CA000204A93421AD0019B1F4A934216D0019B9F
:102CB0001E4A934212D0019B1D4A93420ED0019BA3
:102CC0001C4A93420AD0019B1B4A934206D0019BA7
:102CD0001A4A934202D0019B194A934200BFBDF8A1
:102CE000023003F47F43002B03D1BDF80230002BE8
:102CF00000BFBDF80230DB439AB2019B1A8200BFCD
:102D000002B07047002C0140000400400008004061
:102D1000000C00400010004000140040003401404E
:102D2000004C014000500140005401400018004098
:102D3000001C0040002000400040014000440140D1
:102D40000048014084B0039002910192039B043B30
:102D50000393039B4FF080721A60039B043B039321
:102D6000029B23F00102039B1A60039B043B039325
:102D7000074A039B1A60039B143B0393019A039B2E
:102D80001A60039B203B0393039B184604B07047D3
:102D9000952D000884B000230193114B1B68B3F1FB
:102DA000FF3F0AD04FF0500383F31188BFF36F8FBA
:102DB000BFF34F8F039300BFFEE74FF0500383F341
:102DC0001188BFF36F8FBFF34F8F029300BF00BF17
:102DD000019B002BFCD000BF00BF04B0704700BFB8
:102DE00014000020000000000000000000000000AF
:102DF000074B19680868B0E8F00F80F30988BFF343
:102E00006F8F4FF0000080F311884EF00D0E704769
:102E10007000002000BF00BF06480068006880F313
:102E2000088862B661B6BFF34F8FBFF36F8F00DFC4
:102E300000BF000008ED00E000BF00BF00B585B096
:102E4000344B0393039B1B78DBB20193039BFF225C
:102E50001A70039B1B78DBB28DF803309DF80330AA
:102E6000DBB203F05003DAB22B4B1A702B4B072264
:102E70001A600BE0294B1B68013B284A13609DF840
:102E80000330DBB25B00DBB28DF803309DF803301A
:102E9000DBB203F08003802BECD0204B1B68C3F126
:102EA0000703042B0AD04FF0500383F31188BFF3BC
:102EB0006F8FBFF34F8F029300BFFEE7174B1B6866
:102EC0001B02164A1360154B1B6803F4E063134A98
:102ED0001360019BDAB2039B1A70114B1B68104AF6
:102EE00043F4700313600E4B1B680D4A43F07043AC
:102EF000136000F0B3F80B4B00221A60FFF78CFF51
:102F000001F04EFDFFF746FF0023184605B05DF8BF
:102F100004FB00BF00E400E0280000202C0000209B
:102F200020ED00E01400002082B04FF0500383F346
:102F30001188BFF36F8FBFF34F8F019300BF0E4B0C
:102F40001B6801330C4A13600B4B1B68012B0FD11C
:102F50000A4B1B68DBB2002B0AD04FF0500383F3FF
:102F60001188BFF36F8FBFF34F8F009300BFFEE751
:102F700000BF02B0704700BF1400002004ED00E065
:102F800082B0104B1B68002B0AD14FF0500383F323
:102F90001188BFF36F8FBFF34F8F019300BFFEE720
:102FA000084B1B68013B074A1360064B1B68002B4C
:102FB00005D100230093009B83F3118800BF00BF5D
:102FC00002B0704714000020000000000000000064
:102FD000EFF30980BFF36F8F0D4B1A6820E9F00FF4
:102FE00010602DE908404FF0500080F3118801F087
:102FF000D7FC4FF0000080F31188BDE80840196845
:103000000868B0E8F00F80F30988BFF36F8F70474E
:103010007000002000BF00BF00B583B04FF0500328
:1030200083F31188BFF36F8FBFF34F8F019300BFFE
:1030300001F0A0FB0346002B03D0074B4FF080525A
:103040001A6000230093009B83F3118800BF00BF28
:1030500003B05DF804FB00BF04ED00E0074B002265
:103060001A60074B00221A60064B4FF6FF121A60D7
:10307000024B07221A6000BF704700BF10E000E05B
:1030800018E000E014E000E084B0EFF30583039360
:10309000039B0F2B16D9164A039B13441B788DF8FC
:1030A0000B30144B1B789DF80B209A420AD24FF03C
:1030B000500383F31188BFF36F8FBFF34F8F0193DA
:1030C00000BFFEE70C4B1B6803F4E0620B4B1B6870
:1030D0009A420AD94FF0500383F31188BFF36F8FE0
:1030E000BFF34F8F009300BFFEE700BF04B07047EF
:1030F000F0E300E0280000200CED00E02C000020B0
:1031000082B00190019B03F10802019B5A60019B70
:103110004FF0FF329A60019B03F10802019BDA60D5
:10312000019B03F10802019B1A61019B00221A60B6
:1031300000BF02B0704782B00190019B00221A616B
:1031400000BF02B0704784B001900091019B5B68A2
:103150000393009B039A5A60039B9A68009B9A60B2
:10316000039B9B68009A5A60039B009A9A60009B9D
:10317000019A1A61019B1B685A1C019B1A6000BFCF
:1031800004B0704784B001900091009B1B680293CB
:10319000029BB3F1FF3F03D1019B1B6903930CE03A
:1031A000019B0833039302E0039B5B680393039B3B
:1031B0005B681B68029A9A42F6D2039B5A68009B8E
:1031C0005A60009B5B68009A9A60009B039A9A6021
:1031D000039B009A5A60009B019A1A61019B1B682D
:1031E0005A1C019B1A6000BF04B0704784B0019064
:1031F000019B1B690393019B5B68019A92689A602B
:10320000019B9B68019A52685A60039B5B68019A14
:103210009A4203D1019B9A68039B5A60019B00224A
:103220001A61039B1B685A1E039B1A60039B1B6851
:10323000184604B07047000000B587B001900091B7
:1032400001230593019B0493049B002B0AD14FF0AB
:10325000500383F31188BFF36F8FBFF34F8F039336
:1032600000BFFEE7049B002B5DD0049BDB6B002BB3
:1032700059D0049B1A6C049BDB6B0021A3FB022337
:10328000002B00D001210B46002B4CD1FFF74CFE48
:10329000049B1A68049BDB6B0499096C01FB03F324
:1032A0001A44049B9A60049B00229A63049B1A6848
:1032B000049B5A60049B1A68049BDB6B013B0499D6
:1032C000096C01FB03F31A44049BDA60049BFF22A0
:1032D00083F84420049BFF2283F84520009B002BA9
:1032E00014D1049B1B69002B1AD0049B1033184681
:1032F00001F016FC0346002B12D0154B4FF0805204
:103300001A60BFF34F8FBFF36F8F09E0049B103338
:103310001846FFF7F5FE049B24331846FFF7F0FE2E
:10332000FFF72EFE01E000230593059B002B0AD139
:103330004FF0500383F31188BFF36F8FBFF34F8FAC
:10334000029300BFFEE7059B184607B05DF804FB3B
:1033500004ED00E000B58BB00590049113468DF8A4
:103360000F3000230993059B002B2FD00021049AD6
:10337000059BA3FB0223002B00D001210B46002B51
:1033800024D1059B049A02FB03F313F1510F1DD8BE
:10339000059B049A02FB03F30893089B50331846DD
:1033A00002F086FB0990099B002B1DD0099B079317
:1033B000079B503307939DF80F20099B00931346FA
:1033C000079A0499059800F014F80DE0099B002B6A
:1033D0000AD14FF0500383F31188BFF36F8FBFF30F
:1033E0004F8F069300BFFEE7099B18460BB05DF8B0
:1033F00004FB00B585B00390029101928DF8033073
:10340000029B002B03D1069B069A1A6002E0069BE2
:10341000019A1A60069B039ADA63069B029A1A6461
:1034200001210698FFF708FF069B9DF8032083F80B
:103430004C2000BF05B05DF804FB00B583B00190DF
:10344000019B002B0ED0019B00229A60019B002261
:103450001A60019B0022DA600023002200210198FB
:1034600000F01EF800BF03B05DF804FB00B587B0A4
:1034700003468DF8073001230593002304939DF83C
:1034800007301A4604990598FFF764FF03900398E4
:10349000FFF7D3FF039B184607B05DF804FB00005D
:1034A00000B58FB0039002910192009300230D9319
:1034B000039B0C930C9B002B0AD14FF0500383F31A
:1034C0001188BFF36F8FBFF34F8F0A9300BFFEE7E2
:1034D000029B002B03D10C9B1B6C002B01D1012301
:1034E00000E00023002B0AD14FF0500383F3118832
:1034F000BFF36F8FBFF34F8F099300BFFEE7009BB1
:10350000022B03D10C9BDB6B012B01D1012300E0CB
:103510000023002B0AD14FF0500383F31188BFF32F
:103520006F8FBFF34F8F089300BFFEE701F0EEFCF3
:103530000346002B02D1019B002B01D1012300E0A7
:103540000023002B0AD14FF0500383F31188BFF3FF
:103550006F8FBFF34F8F079300BFFEE7FFF7E4FCC9
:103560000C9B9A6B0C9BDB6B9A4202D3009B022B49
:1035700029D1009A02990C9800F0C9FB0B900C9B82
:103580005B6A002B10D00C9B2433184601F0C8FA5C
:103590000346002B13D03F4B4FF080521A60BFF30D
:1035A0004F8FBFF36F8F0AE00B9B002B07D0394B77
:1035B0004FF080521A60BFF34F8FBFF36F8FFFF74A
:1035C000DFFC012361E0019B002B03D1FFF7D8FC56
:1035D00000235AE00D9B002B05D105AB184601F0E6
:1035E00071FB01230D93FFF7CBFC00F0B5FFFFF754
:1035F0009BFC0C9B93F844305BB2B3F1FF3F03D1CB
:103600000C9B002283F844200C9B93F845305BB25E
:10361000B3F1FF3F03D10C9B002283F84520FFF755
:10362000AFFC01AA05AB1146184601F05DFB03464D
:10363000002B24D10C9800F064FC0346002B18D01A
:103640000C9B1033019A1146184601F001FA0C98B0
:1036500000F0EBFB00F08AFF0346002B7FF47EAF07
:103660000C4B4FF080521A60BFF34F8FBFF36F8F38
:1036700074E70C9800F0D9FB00F078FF6EE70C9827
:1036800000F0D3FB00F072FF002318460FB05DF886
:1036900004FB00BF04ED00E000B591B0039002917F
:1036A00001920093039B0E930E9B002B0AD14FF0C7
:1036B000500383F31188BFF36F8FBFF34F8F0A93CB
:1036C00000BFFEE7029B002B03D10E9B1B6C002B5F
:1036D00001D1012300E00023002B0AD14FF0500359
:1036E00083F31188BFF36F8FBFF34F8F099300BF30
:1036F000FEE7009B022B03D10E9BDB6B012B01D15C
:10370000012300E00023002B0AD14FF0500383F384
:103710001188BFF36F8FBFF34F8F089300BFFEE791
:10372000FFF7B2FCEFF311824FF0500383F31188DF
:10373000BFF36F8FBFF34F8F07920693079B0D93D5
:103740000E9B9A6B0E9BDB6B9A4202D3009B022B63
:103750003ED10E9B93F845308DF833300E9B9B6B1A
:103760000B93009A02990E9800F0D1FA9DF933302C
:10377000B3F1FF3F12D10E9B5B6A002B25D00E9B4D
:103780002433184601F0CCF90346002B1DD0019BD1
:10379000002B1AD0019B01221A6016E09DF93330EC
:1037A0007F2B0AD14FF0500383F31188BFF36F8F43
:1037B000BFF34F8F059300BFFEE79DF83330013311
:1037C000DBB25AB20E9B83F8452001230F9301E030
:1037D00000230F930D9B0493049B83F3118800BF78
:1037E0000F9B184611B05DF804FB00B58FB0019037
:1037F0000091019B0C930C9B002B0AD14FF05003BE
:1038000083F31188BFF36F8FBFF34F8F089300BF0F
:10381000FEE70C9B1B6C002B0AD04FF0500383F388
:103820001188BFF36F8FBFF34F8F079300BFFEE781
:103830000C9B1B68002B03D10C9B9B68002B01D1B8
:10384000012300E00023002B0AD14FF0500383F343
:103850001188BFF36F8FBFF34F8F069300BFFEE752
:10386000FFF712FCEFF311824FF0500383F311883E
:10387000BFF36F8FBFF34F8F05920493059B0B939C
:103880000C9B9B6B0A930C9BDB6B0A9A9A423AD275
:103890000C9B93F845308DF827300A9B5A1C0C9BE3
:1038A0009A639DF92730B3F1FF3F12D10C9B5B6AFD
:1038B000002B25D00C9B2433184601F031F9034628
:1038C000002B1DD0009B002B1AD0009B01221A60F8
:1038D00016E09DF927307F2B0AD14FF0500383F378
:1038E0001188BFF36F8FBFF34F8F039300BFFEE7C5
:1038F0009DF827300133DBB25AB20C9B83F8452088
:1039000001230D9301E000230D930B9B0293029B77
:1039100083F3118800BF0D9B18460FB05DF804FBC0
:1039200000B58DB003900291019200230B93039B8D
:103930000A930A9B002B0AD14FF0500383F311889E
:10394000BFF36F8FBFF34F8F089300BFFEE7029B5B
:10395000002B03D10A9B1B6C002B01D1012300E03B
:103960000023002B0AD14FF0500383F31188BFF3DB
:103970006F8FBFF34F8F079300BFFEE701F0C6FACA
:103980000346002B02D1019B002B01D1012300E053
:103990000023002B0AD14FF0500383F31188BFF3AB
:1039A0006F8FBFF34F8F069300BFFEE7FFF7BCFAA0
:1039B0000A9B9B6B0993099B002B1FD002990A98C5
:1039C00000F00EFA099B5A1E0A9B9A630A9B1B6918
:1039D000002B0FD00A9B1033184601F0A1F80346C4
:1039E000002B07D03B4B4FF080521A60BFF34F8F34
:1039F000BFF36F8FFFF7C4FA012367E0019B002B31
:103A000003D1FFF7BDFA002360E00B9B002B05D12B
:103A100004AB184601F056F901230B93FFF7B0FAF7
:103A200000F09AFDFFF780FA0A9B93F844305BB2EE
:103A3000B3F1FF3F03D10A9B002283F844200A9B85
:103A400093F845305BB2B3F1FF3F03D10A9B0022EC
:103A500083F84520FFF794FA01AA04AB11461846F3
:103A600001F042F90346002B23D10A9800F034FA02
:103A70000346002B17D00A9B2433019A114618469F
:103A800000F0E6FF0A9800F0D0F900F06FFD034661
:103A9000002B8BD10F4B4FF080521A60BFF34F8F2A
:103AA000BFF36F8F82E70A9800F0BFF900F05EFD68
:103AB0007CE70A9800F0B9F900F058FD0A9800F088
:103AC0000BFA0346002B3FF471AF002318460DB0EC
:103AD0005DF804FB04ED00E000B58FB001900091AB
:103AE00000230D93019B0B9300230C930B9B002B46
:103AF0000AD14FF0500383F31188BFF36F8FBFF3E8
:103B00004F8F089300BFFEE70B9B1B6C002B0AD066
:103B10004FF0500383F31188BFF36F8FBFF34F8FC4
:103B2000079300BFFEE701F0F1F90346002B02D135
:103B3000009B002B01D1012300E00023002B0AD1C0
:103B40004FF0500383F31188BFF36F8FBFF34F8F94
:103B5000069300BFFEE7FFF7E7F90B9B9B6B0A9309
:103B60000A9B002B24D00A9B5A1E0B9B9A630B9B2B
:103B70001B68002B04D101F0DBFB02460B9B9A6013
:103B80000B9B1B69002B0FD00B9B1033184600F0CA
:103B9000C7FF0346002B07D0524B4FF080521A60EC
:103BA000BFF34F8FBFF36F8FFFF7EAF9012395E063
:103BB000009B002B11D10C9B002B0AD04FF050031F
:103BC00083F31188BFF36F8FBFF34F8F059300BF4F
:103BD000FEE7FFF7D5F9002380E00D9B002B05D110
:103BE00003AB184601F06EF801230D93FFF7C8F9F7
:103BF00000F0B2FCFFF798F90B9B93F844305BB2EE
:103C0000B3F1FF3F03D10B9B002283F844200B9BB1
:103C100093F845305BB2B3F1FF3F03D10B9B002219
:103C200083F84520FFF7ACF96A4603AB1146184606
:103C300001F05AF80346002B32D10B9800F04CF9F2
:103C40000346002B26D00B9B1B68002B09D1FFF7E6
:103C50006BF90B9B9B68184601F072F90C90FFF70B
:103C60008FF90B9B2433009A1146184600F0F0FEA2
:103C70000B9800F0DAF800F079FC0346002B7FF493
:103C80006AAF184B4FF080521A60BFF34F8FBFF3EB
:103C90006F8F60E70B9800F0C8F800F067FC5AE7F8
:103CA0000B9800F0C2F800F061FC0B9800F014F9DA
:103CB0000346002B3FF44FAF0C9B002B0DD0FFF7BA
:103CC00033F90B9800F010F809900B9B9B68099949
:103CD000184601F075FAFFF753F9002318460FB0A4
:103CE0005DF804FB04ED00E084B00190019B5B6A89
:103CF000002B06D0019B1B6B1B68C3F105030393CC
:103D000001E000230393039B184604B0704700B5FD
:103D100087B003900291019200230593039B9B6B54
:103D20000493039B1B6C002B0DD1039B1B68002B82
:103D30004DD1039B9B68184601F0A0F90590039BA9
:103D400000229A6043E0019B002B19D1039B586825
:103D5000039B1B6C1A46029909F09EFC039B5A6850
:103D6000039B1B6C1A44039B5A60039B5A68039B7A
:103D70009B689A422BD3039B1A68039B5A6026E0E8
:103D8000039BD868039B1B6C1A46029909F084FCBC
:103D9000039BDA68039B1B6C5B421A44039BDA604B
:103DA000039BDA68039B1B689A4207D2039B9A68BD
:103DB000039B1B6C5B421A44039BDA60019B022B42
:103DC00005D1049B002B02D0049B013B0493049B70
:103DD0005A1C039B9A63059B184607B05DF804FBC9
:103DE00000B583B001900091019B1B6C002B18D093
:103DF000019BDA68019B1B6C1A44019BDA60019BF2
:103E0000DA68019B9B689A4203D3019B1A68019B65
:103E1000DA60019BD968019B1B6C1A46009809F077
:103E20003BFC00BF03B05DF804FB00B585B001901A
:103E3000FFF77AF8019B93F845308DF80F3013E0C7
:103E4000019B5B6A002B14D0019B2433184600F0C1
:103E500067FE0346002B01D000F0AAFF9DF80F304B
:103E6000013BDBB28DF80F309DF90F30002BE7DC02
:103E700000E000BF019BFF2283F84520FFF780F898
:103E8000FFF752F8019B93F844308DF80E3013E0A1
:103E9000019B1B69002B14D0019B1033184600F0C6
:103EA0003FFE0346002B01D000F082FF9DF80E304C
:103EB000013BDBB28DF80E309DF90E30002BE7DCB4
:103EC00000E000BF019BFF2283F84420FFF758F871
:103ED00000BF05B05DF804FB00B585B00190FFF7A9
:103EE00023F8019B9B6B002B02D10123039301E07C
:103EF00000230393FFF744F8039B184605B05DF8D1
:103F000004FB00B585B00190FFF70EF8019B9A6B9A
:103F1000019BDB6B9A4202D10123039301E0002352
:103F20000393FFF72DF8039B184605B05DF804FBDB
:103F300086B001900091019B002B0AD14FF05003F5
:103F400083F31188BFF36F8FBFF34F8F039300BFCD
:103F5000FEE700230493009B002B24D0002305934D
:103F60001EE0174A059BDB0013445B68019A9A42E6
:103F700005D1059BDB00124A1344049313E0049B14
:103F8000002B0AD10E4A059B52F83330002B04D186
:103F9000059BDB000A4A13440493059B01330593F8
:103FA000059B072BDDD9049B002B05D0049B009AB1
:103FB0001A60049B019A5A6000BF06B0704700BFA8
:103FC0003000002000B587B0039002910192039B5E
:103FD0000593FEF7A9FF059B93F844305BB2B3F15C
:103FE000FF3F03D1059B002283F84420059B93F8F3
:103FF00045305BB2B3F1FF3F03D1059B002283F84C
:104000004520FEF7BDFF059B9B6B002B06D1059B52
:104010002433019A0299184600F03EFD0598FFF7F7
:1040200004FF00BF07B05DF804FB00B58DB007903A
:10403000069104931346ADF81630BDF816309B0078
:10404000184601F035FD0990099B002B0ED05C202D
:1040500001F02EFD0B900B9B002B03D00B9B099ABC
:104060001A6305E0099801F0D9FD01E000230B93E4
:104070000B9B002B14D0BDF81620002303930B9B41
:1040800002930F9B01930E9B0093049B0699079844
:1040900000F00EF80B9800F0AFF801230A9302E04D
:1040A0004FF0FF330A930A9B18460DB05DF804FBEE
:1040B00000B589B003900291019200930C9B186B9C
:1040C000019B9B001A46A52109F05CFB0C9B1A6B17
:1040D000019B03F18043013B9B0013440693069B25
:1040E00023F007030693069B03F00703002B0AD077
:1040F0004FF0500383F31188BFF36F8FBFF34F8FDF
:10410000059300BFFEE7029B002B1FD000230793FF
:1041100012E0029A079B134419780C9A079B1344E8
:1041200034330A461A70029A079B13441B78002BFB
:1041300006D0079B01330793079B0F2BE9D900E0BB
:1041400000BF0C9B002283F8432003E00C9B00225D
:1041500083F834200A9B042B0AD94FF0500383F3D1
:104160001188BFF36F8FBFF34F8F049300BFFEE73B
:104170000A9B042B01D904230A930C9B0A9ADA6246
:104180000C9B0A9ADA640C9B00221A650C9B043380
:104190001846FEF7D0FF0C9B18331846FEF7CBFFEE
:1041A0000C9B0C9A1A610A9BC3F105020C9B9A6145
:1041B0000C9B0C9A5A620C9B543304220021184623
:1041C00009F0E0FA0C9B583301220021184609F04F
:1041D000D9FA009A03990698FEF7B4FD02460C9BA3
:1041E0001A600B9B002B02D00B9B0C9A1A6000BF2D
:1041F00009B05DF804FB000000B585B00190FEF742
:1042000093FE414B1B6801333F4A13603F4B1B68D1
:10421000002B09D13D4A019B13603B4B1B68012BCE
:1042200010D100F0E3FD0DE0394B1B68002B09D1E4
:10423000364B1B68DA6A019BDB6A9A4202D8334A22
:10424000019B1360334B1B680133324A1360314BBF
:104250001A68019B5A64019BDB6A01229A402E4B2B
:104260001B6813432C4A1360019BDA6A2B491346DF
:104270009B0013449B000B4404331B680393019B76
:10428000039A9A60039B9A68019BDA60039B9B6880
:10429000019A04325A60019B1A1D039B9A60019B8C
:1042A000DA6A13469B0013449B001C4A1A44019B84
:1042B0005A61019BDA6A194913469B0013449B001B
:1042C0000B441B68591C154813469B0013449B0064
:1042D00003441960FEF754FE0D4B1B68002B0ED0F3
:1042E0000A4B1B68DA6A019BDB6A9A4207D20C4BC5
:1042F0004FF080521A60BFF34F8FBFF36F8F00BF34
:1043000005B05DF804FB00BF4801002070000020EC
:10431000540100206401002050010020740000209E
:1043200004ED00E000B585B00190FEF7FDFD019BB6
:10433000002B02D13B4B1B6800E0019B0393039BC6
:1043400004331846FEF752FF0346002B15D1039B9A
:10435000DA6A354913469B0013449B000B441B68E3
:10436000002B0AD1039BDB6A012202FA03F3DA4332
:104370002E4B1B6813402D4A1360039B9B6A002B36
:1043800004D0039B18331846FEF730FF284B1B68F8
:104390000133274A1360234B1B68039A9A420BD1BF
:1043A000039B043319462348FEF7CDFE224B1B68BE
:1043B0000133214A136006E0204B1B68013B1F4A72
:1043C000136000F08DFDFEF7DBFD164B1B68039AB2
:1043D0009A4202D0039800F073FD194B1B68002B22
:1043E0001BD0104B1B68039A9A4216D1154B1B68C1
:1043F000002B0AD04FF0500383F31188BFF36F8F67
:10440000BFF34F8F029300BFFEE70F4B4FF0805278
:104410001A60BFF34F8FBFF36F8F00BF05B05DF819
:1044200004FB00BF70000020740000205001002039
:10443000640100201C010020300100204801002000
:10444000540100207001002004ED00E000B585B0AB
:10445000019000230393019B002B17D0134B1B6883
:10446000002B0AD04FF0500383F31188BFF36F8FF6
:10447000BFF34F8F029300BFFEE700F06DF80021FD
:10448000019800F065FF00F071F80390039B002B8A
:1044900007D1074B4FF080521A60BFF34F8FBFF325
:1044A0006F8F00BF05B05DF804FB00BF70010020F6
:1044B00004ED00E000B587B0204B0193002300938A
:1044C00000234FF480721E491E48FFF7AEFD059091
:1044D000059B012B02D100F0B9FF0590059B012B34
:1044E00016D14FF0500383F31188BFF36F8FBFF3E2
:1044F0004F8F049300BF144B4FF0FF321A60134BE1
:1045000001221A60124B00221A60FEF797FC0EE09F
:10451000059BB3F1FF3F0AD14FF0500383F311889D
:10452000BFF36F8FBFF34F8F039300BFFEE7094BBD
:104530001B6800BF07B05DF804FB00BF6C010020E2
:10454000E4D90008C14D0008680100205401002092
:104550004C01002018000020034B1B680133024A65
:10456000136000BF704700BF7001002000B589B024
:104570000023079300230693704B1B68002B0AD17E
:104580004FF0500383F31188BFF36F8FBFF34F8F4A
:10459000019300BFFEE7FEF7C7FC684B1B68013BB9
:1045A000664A1360654B1B68002B40F0C080644B6B
:1045B0001B68002B00F0BB808AE0624BDB68DB6885
:1045C0000793079B9B6A0493079BDB69079A126A10
:1045D0009A60079B1B6A079AD2695A60049B5A68C3
:1045E000079B18339A4203D1079B1A6A049B5A60AF
:1045F000079B00229A62049B1B685A1E049B1A6048
:10460000079B5B690393079B9B68079AD2689A6034
:10461000079BDB68079A92685A60039B5A68079B5E
:1046200004339A4203D1079BDA68039B5A60079BC5
:1046300000225A61039B1B685A1E039B1A60079B4A
:10464000DB6A01229A40404B1B6813433E4A1360C9
:10465000079BDA6A3D4913469B0013449B000B44B9
:1046600004331B680293079B029A9A60029B9A6824
:10467000079BDA60029B9B68079A04325A60079B8B
:104680001A1D029B9A60079BDA6A13469B0013442B
:104690009B002E4A1A44079B5A61079BDA6A2B49F2
:1046A00013469B0013449B000B441B68591C27486E
:1046B00013469B0013449B0003441960079BDA6A6E
:1046C000234B1B68DB6A9A4202D3224B01221A60F9
:1046D0001C4B1B68002B7FF470AF079B002B01D095
:1046E00000F0FEFB1C4B1B680593059B002B10D0B4
:1046F00000F040F80346002B02D0164B01221A604E
:10470000059B013B0593059B002BF1D1124B002229
:104710001A60104B1B68002B09D0012306930F4B26
:104720004FF080521A60BFF34F8FBFF36F8FFEF7C9
:1047300027FC069B184609B05DF804FB70010020B9
:1047400048010020080100205001002074000020D2
:10475000700000205C0100205801002004ED00E002
:1047600082B0034B1B680193019B184602B070474F
:104770004C01002000B58BB0002309937D4B1B68D2
:10478000002B40F0EC807C4B1B68013308937A4A85
:10479000089B1360089B002B20D1784B1B681B687B
:1047A000002B0AD04FF0500383F31188BFF36F8FB3
:1047B000BFF34F8F019300BFFEE7704B1B68079359
:1047C0006F4B1B686D4A13606D4A079B13606D4BFE
:1047D0001B6801336B4A136000F082FB6A4B1B6855
:1047E000089A9A42C0F0A680644B1B681B68002B95
:1047F00004D1654B4FF0FF321A609BE05F4B1B68A2
:10480000DB68DB680693069B5B680593089A059B4B
:104810009A4203D25C4A059B13608BE0069B5B695E
:104820000493069B9B68069AD2689A60069BDB6895
:10483000069A92685A60049B5A68069B04339A420F
:1048400003D1069BDA68049B5A60069B00225A61DA
:10485000049B1B685A1E049B1A60069B9B6A002BD4
:104860001ED0069B9B6A0393069BDB69069A126A1D
:104870009A60069B1B6A069AD2695A60039B5A6823
:10488000069B18339A4203D1069B1A6A039B5A600F
:10489000069B00229A62039B1B685A1E039B1A60A8
:1048A000069BDB6A01229A40384B1B681343374A48
:1048B0001360069BDA6A364913469B0013449B003B
:1048C0000B4404331B680293069B029A9A60029B76
:1048D0009A68069BDA60029B9B68069A04325A60CB
:1048E000069B1A1D029B9A60069BDA6A13469B0080
:1048F00013449B00264A1A44069B5A61069BDA6AB7
:10490000234913469B0013449B000B441B68591C0E
:104910001F4813469B0013449B0003441960069BE9
:10492000DA6A1C4B1B68DB6A9A42FFF45DAF012315
:10493000099359E7174B1B68DA6A154913469B0020
:1049400013449B000B441B68012B01D901230993DD
:10495000114B1B68002B07D00123099304E00F4B78
:104960001B6801330D4A1360099B18460BB05DF8B4
:1049700004FB00BF700100204C010020000100205A
:104980000401002060010020680100205001002087
:1049900074000020700000205C01002058010020FD
:1049A00086B0264B1B68002B03D0254B01221A60D2
:1049B00041E0234B00221A60224B1B680393039BA8
:1049C000B3FA83F38DF80B309DF80B30C3F11F035E
:1049D00005931D49059A13469B0013449B000B4405
:1049E0001B68002B0AD14FF0500383F31188BFF3EB
:1049F0006F8FBFF34F8F019300BFFEE7059A1346F9
:104A00009B0013449B00104A13440493049B5B686F
:104A10005A68049B5A60049B5A68049B08339A4264
:104A200004D1049B5B685A68049B5A60049B5B68D2
:104A3000DB68064A136000BF06B0704770010020B3
:104A40005C01002050010020740000207000002054
:104A500000B585B001900091019B002B0AD14FF069
:104A6000500383F31188BFF36F8FBFF34F8F03930E
:104A700000BFFEE7074B1B68183319460198FEF785
:104A800081FB0121009800F063FC00BF05B05DF8D8
:104A900004FB00BF7000002000B587B003900291B6
:104AA0000192039B002B0AD14FF0500383F311882E
:104AB000BFF36F8FBFF34F8F049300BFFEE7039BDD
:104AC0005B680593154B1B68059ADA61134B1B68ED
:104AD000059A92681A62114B1A68059B9B681832F6
:104AE0005A600E4B1B6803F11802059B9A600B4B32
:104AF0001B68039A9A62039B1B685A1C039B1A60EB
:104B0000019B002B02D04FF0FF33029301990298D2
:104B100000F01EFC00BF07B05DF804FB7000002031
:104B20008AB00190019BDB68DB680893089B002B2F
:104B30000AD14FF0500383F31188BFF36F8FBFF397
:104B40004F8F039300BFFEE7089B9B6A0793089B68
:104B5000DB69089A126A9A60089B1B6A089AD269F4
:104B60005A60079B5A68089B18339A4203D1089BE6
:104B70001A6A079B5A60089B00229A62079B1B686F
:104B80005A1E079B1A60494B1B68002B5ED1089B7D
:104B90005B690593089B9B68089AD2689A60089B9A
:104BA000DB68089A92685A60059B5A68089B043330
:104BB0009A4203D1089BDA68059B5A60089B002241
:104BC0005A61059B1B685A1E059B1A60089BDB6A8D
:104BD00001229A40364B1B681343354A1360089BE9
:104BE000DA6A344913469B0013449B000B44043398
:104BF0001B680493089B049A9A60049B9A68089B1C
:104C0000DA60049B9B68089A04325A60089B1A1D5C
:104C1000049B9A60089BDA6A13469B0013449B002E
:104C2000244A1A44089B5A61089BDA6A21491346B0
:104C30009B0013449B000B441B68591C1D481346E2
:104C40009B0013449B00034419601BE01A4B5B68F4
:104C50000693089B069ADA61069B9A68089B1A627B
:104C6000069B9B68089A18325A60089B03F1180249
:104C7000069B9A60089B104A9A620F4B1B6801338F
:104C80000D4A1360089BDA6A0C4B1B68DB6A9A4278
:104C900005D9012309930A4B01221A6001E0002380
:104CA0000993099B18460AB0704700BF70010020A5
:104CB0005001002074000020080100207000002036
:104CC0005C01002082B00190054B1A68019B1A60BC
:104CD000044B1A68019B5A6000BF02B0704700BFC6
:104CE000600100204C01002000B589B001900091C6
:104CF000019B002B0AD14FF0500383F31188BFF3BF
:104D00006F8FBFF34F8F049300BFFEE7009B002B14
:104D10000AD14FF0500383F31188BFF36F8FBFF3B5
:104D20004F8F039300BFFEE7FEF7FEF81E4B1B6894
:104D30000693019B5B68069AD31A0593009B1B6838
:104D4000B3F1FF3F02D10023079326E0019B1A68CD
:104D5000164B1B689A420AD0019B5B68069A9A42DE
:104D600005D301230793009B00221A6015E0009BE6
:104D70001B68059A9A420BD2009B1A68059BD21AAF
:104D8000009B1A600198FFF79DFF0023079304E042
:104D9000009B00221A6001230793FEF7F1F8079B9E
:104DA000184609B05DF804FB4C01002060010020AA
:104DB000024B01221A6000BF704700BF5C01002057
:104DC00000B583B0019000F04FF8064B1B68012B33
:104DD000F9D9054B4FF080521A60BFF34F8FBFF3E4
:104DE0006F8FF0E77400002004ED00E000B583B0A1
:104DF000002301930CE0019A13469B0013449B008F
:104E0000114A13441846FEF77BF9019B01330193C5
:104E1000019B042BEFD90D48FEF772F90C48FEF701
:104E20006FF90C48FEF76CF90B48FEF769F90B486F
:104E3000FEF766F90A4B054A1A600A4B044A1A60E3
:104E400000BF03B05DF804FB74000020D800002010
:104E5000EC000020080100201C010020340100208B
:104E6000000100200401002000B583B019E0FEF726
:104E70005BF8104BDB68DB680193019B0433184639
:104E8000FEF7B4F90C4B1B68013B0B4A13600B4B4C
:104E90001B68013B094A1360FEF772F8019800F0A5
:104EA0000FF8064B1B68002BE1D100BF00BF03B019
:104EB0005DF804FB1C0100204801002030010020A7
:104EC00000B583B00190019B1B6B184600F0A6FE55
:104ED000019800F0A3FE00BF03B05DF804FB0000E2
:104EE000084B1B681B68002B04D1074B4FF0FF32A7
:104EF0001A6005E0034B1B68DB681B68024A1360FD
:104F000000BF7047000100206801002082B00A4BFA
:104F10001B68002B02D10123019308E0074B1B689B
:104F2000002B02D10223019301E000230193019B96
:104F3000184602B0704700BF5401002070010020E5
:104F400000B587B00190019B049300230593019B5A
:104F5000002B00F08780049BDA6A454B1B68DB6AF4
:104F60009A4276D2049B9B69002B06DB404B1B6860
:104F7000DB6AC3F10502049B9A61049B5969049B97
:104F8000DA6A13469B0013449B003A4A1344994241
:104F900057D1049B04331846FEF728F90346002B2B
:104FA0000AD1049BDB6A012202FA03F3DA43324B93
:104FB0001B681340304A13602D4B1B68DA6A049B50
:104FC000DA62049BDB6A01229A402B4B1B68134375
:104FD000294A1360049BDA6A264913469B0013444E
:104FE0009B000B4404331B680393049B039A9A6051
:104FF000039B9A68049BDA60039B9B68049A0432C3
:105000005A60049B1A1D039B9A60049BDA6A13463C
:105010009B0013449B00174A1A44049B5A61049B4B
:10502000DA6A144913469B0013449B000B441B6827
:10503000591C104813469B0013449B0003441960FD
:1050400004E00B4B1B68DA6A049BDA6201230593C8
:1050500008E0049BDA6C064B1B68DB6A9A4201D2BB
:1050600001230593059B184607B05DF804FB00BFBC
:1050700070000020740000205001002000B589B0AD
:105080000190019B069300230793019B002B00F0E6
:105090008C80484B1B68069A9A420AD04FF0500306
:1050A00083F31188BFF36F8FBFF34F8F049300BF5B
:1050B000FEE7069B1B6D002B0AD14FF0500383F3D4
:1050C0001188BFF36F8FBFF34F8F039300BFFEE7CD
:1050D000069B1B6D5A1E069B1A65069BDA6A069B89
:1050E000DB6C9A4261D0069B1B6D002B5DD1069B49
:1050F00004331846FEF77AF80346002B0AD1069BC4
:10510000DB6A012202FA03F3DA432B4B1B681340DC
:10511000294A1360069BDA6C069BDA62069BDB6AFF
:10512000C3F10502069B9A61069BDB6A01229A4045
:10513000214B1B681343204A1360069BDA6A1F4900
:1051400013469B0013449B000B4404331B680593D8
:10515000069B059A9A60059B9A68069BDA60059BF8
:105160009B68069A04325A60069B1A1D059B9A603A
:10517000069BDA6A13469B0013449B000F4A1A44AD
:10518000069B5A61069BDA6A0C4913469B0013443E
:105190009B000B441B68591C084813469B00134492
:1051A0009B000344196001230793079B184609B02D
:1051B0005DF804FB70000020500100207400002006
:1051C00000B58BB001900091019B089301230793D8
:1051D000019B002B00F0A180089B1B6D002B0AD1C6
:1051E0004FF0500383F31188BFF36F8FBFF34F8FDE
:1051F000049300BFFEE7089BDB6C009A9A4202D939
:10520000009B099302E0089BDB6C0993089BDB6A17
:10521000099A9A4200F08180089B1B6D079A9A4276
:105220007BD1404B1B68089A9A420AD14FF0500339
:1052300083F31188BFF36F8FBFF34F8F039300BFCA
:10524000FEE7089BDB6A0693089B099ADA62089BD3
:105250009B69002B04DB099BC3F10502089B9A6143
:10526000089B5969069A13469B0013449B002E4ADB
:105270001344994251D1089B04331846FDF7B6FFF9
:105280000346002B0AD1089BDB6A012202FA03F3D2
:10529000DA43264B1B681340244A1360089BDB6AE1
:1052A00001229A40214B1B681343204A1360089B3C
:1052B000DA6A1D4913469B0013449B000B440433D8
:1052C0001B680593089B059A9A60059B9A68089B42
:1052D000DA60059B9B68089A04325A60089B1A1D85
:1052E000059B9A60089BDA6A13469B0013449B0057
:1052F0000D4A1A44089B5A61089BDA6A0A49134608
:105300009B0013449B000B441B68591C0648134622
:105310009B0013449B000344196000BF0BB05DF871
:1053200004FB00BF7000002074000020500100202A
:10533000064B1B68002B04D0044B1B681A6D01320E
:105340001A65024B1B681846704700BF70000020AA
:1053500000B587B001900091354B1B680593354B24
:105360001B6804331846FDF741FF0346002B0BD1A1
:10537000304B1B68DB6A012202FA03F3DA432E4B3F
:105380001B6813402C4A1360019BB3F1FF3F24D1EB
:10539000009B002B21D0294B5B680493254B1B6895
:1053A000049A9A60234B1B68049A9268DA60214B36
:1053B0001A68049B9B6804325A601E4B1B681A1DB6
:1053C000049B9A601B4B1B681C4A5A611B4B1B6851
:1053D00001331A4A136000BF26E0059A019B13446B
:1053E0000393144B1B68039A5A60039A059B9A42D5
:1053F00009D2134B1A680F4B1B6804331946104629
:10540000FDF7C0FE10E00F4B1A680A4B1B6804330F
:1054100019461046FDF7B6FE0B4B1B68039A9A42DD
:1054200002D2094A039B136000BF07B05DF804FB7A
:105430004C010020700000205001002034010020A9
:1054400004010020000100206801002000B585B0A3
:105450000023039300F0D6FA104B1B68002B0AD0F0
:105460000F4B019302230093002380220D490E4825
:10547000FEF7DBFD0390039B002B0AD14FF0500396
:1054800083F31188BFF36F8FBFF34F8F029300BF79
:10549000FEE7039B184605B05DF804FBA40100205D
:1054A000A8010020ECD900088D56000800B589B08D
:1054B00005900491039202932C2000F0F9FA0790D2
:1054C000079B002B0DD0079B002283F82820079B09
:1054D00001930A9B0093029B039A0499059800F09C
:1054E00005F8079B184609B05DF804FB00B587B0C6
:1054F0000390029101920093029B002B0AD14FF07E
:10550000500383F31188BFF36F8FBFF34F8F059361
:1055100000BFFEE700F076FA099B039A1A60099B28
:10552000029A9A61099B009ADA61099B089A1A62A9
:10553000099B04331846FDF7FEFD019B002B08D0A4
:10554000099B93F8283043F00403DAB2099B83F8EF
:10555000282000BF07B05DF804FB000000B58BB049
:10556000039002910192009300230993039B002B67
:105570000AD14FF0500383F31188BFF36F8FBFF34D
:105580004F8F089300BFFEE7184B1B68002B27D0F6
:10559000029B0593019B0693039B0793029B052B9C
:1055A00016DCFFF7B3FC0346022B08D10F4B18683B
:1055B00005A900230C9AFDF773FF099010E00B4B2F
:1055C000186805A900230022FDF76AFF099007E08B
:1055D000064B186805A90023009AFEF75DF80990AC
:1055E000099B18460BB05DF804FB00BFA401002026
:1055F00000B585B003900291019208E0039B9B697E
:10560000029A13440293039B1B6A03989847039BD7
:105610009A69029BD118029B019A039800F0CEF878
:105620000346002BEAD100BF00BF05B05DF804FBC4
:1056300000B585B001900091134B1B68DB68DB68F7
:105640000393039B04331846FDF7D0FD039B93F8A7
:10565000283003F00403002B05D0009A0199039829
:10566000FFF7C6FF08E0039B93F8283023F00103FF
:10567000DAB2039B83F82820039B1B6A03989847A0
:1056800000BF05B05DF804FB9C01002000B585B0AB
:10569000019002AB184600F055F80390029B1946A2
:1056A000039800F003F800F0CBF8F2E700B585B0FE
:1056B00001900091FEF750FF02AB184600F060F831
:1056C0000390029B002B30D1009B002B0AD1019A42
:1056D000039B9A4206D8FEF749FF03990198FFF70A
:1056E000A7FF24E0009B002B08D0134B1B681B680E
:1056F000002B01D1012300E0002300930F4B186819
:10570000019A039BD31A009A1946FEF75BFCFEF739
:105710002DFF0346002B0AD1094B4FF080521A602F
:10572000BFF34F8FBFF36F8F01E0FEF71FFF00BF86
:1057300005B05DF804FB00BFA0010020A40100201B
:1057400004ED00E084B001900C4B1B681B68002B3B
:1057500001D1012200E00022019B1A60019B1B681D
:10576000002B05D1054B1B68DB681B68039301E028
:1057700000230393039B184604B070479C0100204C
:1057800000B585B00190FEF7EBFF03900A4B1B6854
:10579000039A9A4205D200F011F9019B01221A6086
:1057A00002E0019B00221A60034A039B1360039BE3
:1057B000184605B05DF804FBAC01002000B587B0C9
:1057C000039002910192009300230593039B029A98
:1057D0005A60039B039A1A61029A019B9A4212D85B
:1057E000019A009BD21A039B9B699A4202D3012320
:1057F00005931BE0104B1A68039B043319461046AF
:10580000FDF7C0FC12E0019A009B9A4206D2029A70
:10581000009B9A4202D30123059307E0074B1A68C5
:10582000039B043319461046FDF7ACFC059B184654
:1058300007B05DF804FB00BFA00100209C01002020
:1058400000B589B0A7E0029B002BC0F2A380049BA7
:105850000793079B5B69002B04D0079B0433184612
:10586000FDF7C4FC01AB1846FFF78AFF0690029BC8
:10587000013B082B00F28F8001A252F823F000BFF9
:10588000A5580008A55800080D590008215900081E
:105890006B590008A5580008A55800080D590008C4
:1058A00021590008079B93F8283043F00103DAB22E
:1058B000079B83F82820039A079B9B69D118039BB9
:1058C000069A0798FFF77AFF0346002B63D0079BE1
:1058D00093F8283003F00403002B09D0039A079BA8
:1058E0009B691344069A19460798FFF781FE08E062
:1058F000079B93F8283023F00103DAB2079B83F863
:105900002820079B1B6A0798984744E0079B93F859
:10591000283023F00103DAB2079B83F828203AE00D
:10592000079B93F8283043F00103DAB2079B83F812
:105930002820039A079B9A61079B9B69002B0AD139
:105940004FF0500383F31188BFF36F8FBFF34F8F76
:10595000059300BFFEE7079B9A69069BD118069B3B
:10596000069A0798FFF72AFF15E0079B93F828305F
:1059700003F00203002B03D1079800F04FF90AE06F
:10598000079B93F8283023F00103DAB2079B83F8D2
:10599000282000E000BF084B1B6802A9002218461F
:1059A000FDF7BEFF0346002B7FF44DAF00BF00BFE5
:1059B00009B05DF804FB00BFA401002000B583B06E
:1059C00009E00E4B1B68DB681B6800934FF0FF314A
:1059D0000098FFF72DFE094B1B681B68002BF0D1C8
:1059E000064B1B680193064B1B68044A1360044A6C
:1059F000019B136000BF03B05DF804FB9C01002015
:105A0000A001002008B5FDF78FFA134B1B68002B8F
:105A10001DD11248FDF774FB1148FDF771FB114BC6
:105A20000E4A1A60104B0E4A1A6000220C210A20FE
:105A3000FDF790FC0346084A1360074B1B68002BD8
:105A400005D0054B1B6809491846FEF771FAFDF7AA
:105A500097FA00BF08BD00BFA40100207401002018
:105A6000880100209C010020A0010020F4D900083A
:105A700000B587B00190019B0593019B002B0AD1D3
:105A80004FF0500383F31188BFF36F8FBFF34F8F35
:105A9000039300BFFEE7FDF747FA059BDB6904931C
:105AA000FDF76EFA049B184607B05DF804FB000092
:105AB00000B589B0019000230593524B1B68002B61
:105AC0000AD14FF0500383F31188BFF36F8FBFF3F8
:105AD0004F8F039300BFFEE7FEF73EFD4A4B1A6867
