:020000040800F2
:100000000050002055520008213F0008253F0008FD
:10001000293F00082D3F0008313F00080000000084
:100020000000000000000000000000003104000893
:10003000353F000800000000C10400080505000865
:100040000D3B00080D3B00080D3B00080D3B000870
:100050000D3B00080D3B00080D3B00080D3B000860
:100060000D3B00080D3B00080D3B00080D3B000850
:100070000D3B00080D3B00080D3B00080D3B000840
:100080000D3B00080D3B00080D3B00080D3B000830
:100090000D3B00080D3B00080D3B00080D3B000820
:1000A0000D3B00080D3B00080D3B00080D3B000810
:1000B0000D3B0008393F00080D3B00080D3B0008D0
:1000C0000D3B00080D3B00080D3B00080D3B0008F0
:1000D0000D3B00080D3B00080D3B00080D3B0008E0
:1000E0000D3B00080D3B00080D3B00080000000020
:1000F0000000000000000000000000000000000000
:0C01000000000000000000005FF808F1A3
:10011000844641EA000313F0030349D1403A23D354
:100120000B6803604B6843608B688360CB68C36077
:100130000B6903614B6943618B698361CB69C3615F
:100140000B6A03624B6A43628B6A8362CB6AC36247
:100150000B6B03634B6B43638B6B8363CB6BC3632F
:1001600040304031403ADBD230320BD30B68036071
:100170004B6843608B688360CB68C360103010317C
:10018000103AF3D20C3205D351F8043B40F8043B4B
:10019000043AF9D2043208D0D2071CBF11F8013B4F
:1001A00000F8013B01D30B8803806046704700BF15
:1001B000082A13D38B07B1D010F00303AED0C3F1DC
:1001C0000403D21ADB071CBF11F8013B00F8013B06
:1001D000A4D331F8023B20F8023B9FE7043AD9D37D
:1001E000013A11F8013B00F8013BF9D20B7803709A
:1001F0004B7843708B78837060467047EFF30583CC
:1002000083B9EFF310836BB9084B1868022803D049
:1002100028B901221A607047EFF3118313B94FF028
:10022000FF3070476FF00500704700BFD80E002008
:10023000EFF30583C3B910B5EFF310848CB90C4B01
:100240001A68022A07D0012A08D102221A6001F096
:1002500001F8204610BDEFF3118313B94FF0FF30C2
:1002600010BD6FF0050010BD6FF00500704700BFB6
:10027000D80E002070B5002486B00594EFF30585F4
:10028000002D3DD1EFF31083002B40D12A4B1B688A
:10029000022B38D000283AD000238DF8133012B347
:1002A0001468002C3BD09569002D33D06E1E372E7C
:1002B00026D85368DB0723D453696BBB4FF0800CFF
:1002C00096687EB3D2F80CE0BEF5916F1FD3126929
:1002D000EAB1E3B10B46CDE901262146624600951D
:1002E00000F018FF0DE0802218250DF113040B46D5
:1002F000214605AC0095019400F048FF012806D086
:10030000002006B070BDEFF31183002BC2D005981A
:1003100006B070BD1825CCE74FEA930CD0E70DF17D
:100320001304C0E7D368002BF1D11369002BEED181
:100330001FFA8CF2DBE700BFD80E002008B5EFF300
:10034000058363B9EFF310834BB9084B1B68022B8D
:1003500001D038B908BDEFF31183002BF9D06FF04D
:10036000050008BD00F046FF002008BDD80E0020A3
:10037000802330B4034D044C05600C60136030BC26
:10038000704700BF500A0020500800204FF48073CF
:1003900030B4034D034C05600C60136030BC7047F3
:1003A000E0120020DC0E002006480068006880F3A0
:1003B000088862B661B6BFF34F8FBFF36F8F00DF5F
:1003C00000BF000008ED00E000220E4B82B01B6869
:1003D0000192013308D04FF0500383F31188BFF32B
:1003E0006F8FBFF34F8FFEE74FF0500383F31188F9
:1003F000BFF36F8FBFF34F8F019B002BFCD002B078
:10040000704700BF0000002010B44FF08074064B0E
:1004100021F0010140E9021440F80C3C40F8202C86
:1004200010BC4038704700BFC9030008000000003E
:10043000074B19680868B0E8F00F80F30988BFF32C
:100440006F8F4FF0000080F311884EF00D0E704753
:10045000B01700204FF0500383F31188BFF36F8F64
:10046000BFF34F8F0B4A13680133012B136000D089
:1004700070474FF0E023D3F8043DDBB2002BF7D0F8
:100480004FF0500383F31188BFF36F8FBFF34F8F8B
:10049000FEE700BF00000020084A136843B94FF090
:1004A000500383F31188BFF36F8FBFF34F8FFEE7C5
:1004B000013B13600BB983F31188704700000020E3
:1004C000EFF30980BFF36F8F0D4B1A6820E9F00F2F
:1004D00010602DE908404FF0500080F3118800F0C3
:1004E00037FF4FF0000080F31188BDE8084019681D
:1004F0000868B0E8F00F80F30988BFF36F8F70478A
:10050000B017002008B54FF0500383F31188BFF3F4
:100510006F8FBFF34F8F00F00BFF28B14FF0E02338
:100520004FF08052C3F8042D002383F3118808BDD7
:100530004FF0E02200210720064B10B411619161B9
:100540001B68054CA4FB03139B09013B536110BCC2
:100550001061704710000020D34D62104FF0FF0C67
:1005600030B50724294B83B01A782949D2B20192B9
:1005700083F800C01B782748DBB28DF803309DF864
:1005800003309DF8032003F05003120648BF0622F3
:1005900004600B700ED59DF8033011465B00DBB292
:1005A0008DF803309DF80330013A1B06F3D403297C
:1005B00009D001604FF0500383F31188BFF36F8FB0
:1005C000BFF34F8FFEE74FF440754FF0E023002458
:1005D000019A0E49D2B205600A70D3F8202D42F478
:1005E0007002C3F8202DD3F8202D42F07042C3F8DA
:1005F000202DFFF79DFF084B1C60FFF7D5FE00F094
:10060000A7FE2046FFF7E0FE03B030BD00E400E0A7
:10061000681700206C170020000000204FF0FF3109
:10062000002200F10803C0E90131C0E90333026090
:10063000704700BF00230361704700BF30B40D68EE
:100640006B1C10D000F108031C465B681A68AA42B4
:10065000FAD902684B60013299608C606160086170
:1006600030BC0260704704696368F2E7036910B444
:10067000D0E901125C688A6051600021844208BFA1
:100680005A601A680161013A1A60186810BC704714
:1006900070B50546FFF7DEFE95F845305CB2002CDC
:1006A00014DD05F1240603E0631EDAB25CB26AB120
:1006B0006B6A5BB1304600F0DDFE0028F4D000F03C
:1006C0009DFF631EDAB25CB2002AF1D1FF2385F8E8
:1006D0004530FFF7E1FEFFF7BDFE95F844305CB210
:1006E000002C14DD05F1100603E0631EDAB25CB2E3
:1006F0006AB12B695BB1304600F0BCFE0028F4D033
:1007000000F07CFF631EDAB25CB2002AF1D1FF2355
:1007100085F84430BDE87040FFF7BEBE58B3C36BE8
:1007200070B50446F3B1056CA5FB0335D5B90E468B
:10073000FFF790FED4E90F31FF2001FB03F322689D
:10074000591A626013440A44A563C4E9023284F86A
:10075000440084F8450046BB2369ABB9FFF79CFE13
:10076000012070BD4FF0500383F31188BFF36F8FEA
:10077000BFF34F8FFEE74FF0500383F31188BFF3B1
:100780006F8FBFF34F8FFEE704F1100000F072FE91
:100790000028E3D04FF0E0234FF08052C3F8042D3F
:1007A000BFF34F8FBFF36F8FD8E704F11000FFF74F
:1007B00035FF04F12400FFF731FFCFE730B585B0F6
:1007C0009DF82050E3B1044688B1084672B171B17A
:1007D00050210391039950291BD04FF0500383F30C
:1007E0001188BFF36F8FBFF34F8FFEE719B34FF040
:1007F000500383F31188BFF36F8FBFF34F8FFEE772
:100800004FF0500383F31188BFF36F8FBFF34F8F07
:10081000FEE70399012183F84610C3E90F401A60EF
:10082000012118460193FFF779FF019B184683F8D1
:100830004C5005B030BD50220392039A502ACCD1BF
:100840000121039A83F846101A46E6E72DE9F043A2
:1008500085B00192002800F0A18004460D460029D1
:1008600047D000F0D1FE00284FD0FFF7F3FDA66B74
:10087000002E67D1019B002B35D002A800F06EFE40
:1008800037464FF0E02904F12408FFF705FE00F099
:1008900031FDFFF7DFFD94F84430FF2B08BF84F8EB
:1008A000447094F84530FF2B08BF84F84570FFF77B
:1008B000F3FD01A902A800F05DFE002831D1FFF789
:1008C000C9FDA36B002B53D0FFF7E6FD2046FFF7D1
:1008D000DFFE00F017FDFFF7BDFDA66B002E31D146
:1008E000019B002BD1D1FFF7D7FD002005B0BDE85B
:1008F000F083036C002BB4D04FF0500383F31188C6
:10090000BFF36F8FBFF34F8FFEE7019B002BACD07F
:100910004FF0500383F31188BFF36F8FBFF34F8FF6
:10092000FEE72046FFF7B4FE00F0ECFCFFF792FD77
:10093000A36B002BD7D0FFF7AFFDFFF78BFDA66BA6
:10094000002ECDD0226C5AB1E168A36811449942BF
:10095000E16028BF2168284628BFE160FFF7D8FB87
:10096000013EA663236913BBFFF796FD0120BDE797
:10097000FFF792FD4046019900F032FD2046FFF757
:1009800087FE00F0BFFC0028D7D14FF08053C9F894
:10099000043DBFF34F8FBFF36F8FCEE74FF050038F
:1009A00083F31188BFF36F8FBFF34F8FFEE704F11E
:1009B000100000F05FFD0028D6D04FF0E0234FF08C
:1009C0008052C3F8042DBFF34F8FBFF36F8FCBE777
:1009D00030B330B40D4679B100242346164901EBFB
:1009E000C30252684FEAC30C824214D034B10133BF
:1009F000082BF4D1C4E9005030BC704751F83320C3
:100A0000BAB10133082B01EBC3024FEAC30CF3D098
:100A100052689042F2D101EB0C04C4E90050EBE7BC
:100A20004FF0500383F31188BFF36F8FBFF34F8FE5
:100A3000FEE701EB0C04DAE77017002070B50446FE
:100A40000E461546FFF706FD94F84430FF2B04BF11
:100A5000002384F8443094F84530FF2B04BF002372
:100A600084F84530FFF718FDA36B23B12046BDE89D
:100A70007040FFF70DBE04F124002A46314600F015
:100A8000C9FC2046BDE87040FFF702BE2DE9F843DF
:100A90000546FFF7DFFC3C4A3C4F13680133136007
:100AA0003B68002B41D03A4C2368002B35D0EB6AD1
:100AB000384E394939480A6805F1040E01326A6432
:100AC0000A6002689A4238BF036003EB830306EBB7
:100AD000830042689B009168AA60E960D2F808C070
:100AE000F158CCF804E00131C2F808E06861F15037
:100AF000FFF7D2FC236873B13A68EB6AD26A9A4274
:100B000009D24FF0E0234FF08052C3F8042DBFF319
:100B10004F8FBFF36F8FBDE8F8833A68EB6AD26AF4
:100B20001C4E9A4298BF3D60C3E73D601368012B9D
:100B300003D0EB6A174E164CBBE7164E344606F54B
:100B40008C6820461434FFF769FDA045F9D1DFF821
:100B50005090DFF850804846FFF760FD4046FFF7B1
:100B60005DFD1148FFF75AFD1048FFF757FD10488B
:100B7000FFF754FD0F4B064CC3F800900E4BC3F823
:100B80000080EB6A95E700BF1C1C0020B017002016
:100B9000781C0020BC170020281C00202C1C0020E2
:100BA000301C0020441C0020641C0020901C0020ED
:100BB0007C1C0020B4170020B8170020F8B50546AB
:100BC0001B4B1C4E1C6830680F460430FFF74EFD6F
:100BD0006B1C17D0336864195C6007D3164B186818
:100BE0003168BDE8F8400431FFF728BD134B1868A1
:100BF00031680431FFF722FD114B1A68A24288BF09
:100C00001C60F8BD002FE5D00E4B30685A68316883
:100C100082609068C86031689068043141603068D3
:100C20003468196804300131906019606361F8BD5F
:100C3000A41C0020B0170020B8170020B417002013
:100C4000581C00207C1C002010B50446583004F0CD
:100C500047F994F8853463B1012B13D0022B10D0DF
:100C60004FF0500383F31188BFF36F8FBFF34F8FA3
:100C7000FEE7206B00F066FF2046BDE8104000F064
:100C800061BF10BD2046BDE8104000F05BBF00BF53
:100C90004FF0E0294FF0805880B5134C134E144D9F
:100CA000DFF850A011E0FFF7D5FBF368DF68381DCF
:100CB000FFF7DCFC2B68013B2B602368013B2360C2
:100CC000FFF7EAFB3846FFF7BFFF2368002BEAD1A6
:100CD000DAF80030012BF8D9C9F8048DBFF34F8F33
:100CE000BFF36F8FF1E700BF201C0020901C002095
:100CF0001C1C0020BC1700202DE9F0478A460A9CE6
:100D000095000746A5212A46206B9846089E04F0C8
:100D100071F8D4F83090BAF1000F5CD00AF1FF32CC
:100D20000AF10F0304F1330C12F8011F0CF8011F34
:100D300009B19A42F8D1002384F84330372E08D9FC
:100D40004FF0500383F31188BFF36F8FBFF34F8FC2
:100D5000FEE74FF0000AE662E664201DC4F850A0EA
:100D6000FFF768FCC6F1380604F11800FFF762FCD3
:100D700051464FF48562A66124616462C4F880A480
:100D800084F884A404F1580004F034F80B233946A5
:100D900001260027043D4D4425F007000F4DA4F81F
:100DA0001431C4F808510E4B0E4D4246C4E943536A
:100DB00004F55173E36504F56B73236604F2144381
:100DC0006366C4E94067FFF71FFB099B206003B11E
:100DD0001C60BDE8F08784F834A0AFE70E33CDABDC
:100DE000ECDE050034126DE62DE9F04F5C4B83B06C
:100DF0001D6801351D60002D00F08180594B019365
:100E0000019B1B689D4261D3574E33681B68002BC2
:100E100000F0A1804FF0000E544C7746A446DFF856
:100E200050B1DFF85081009542E05969D3E90225BD
:100E300095606A604A6882420A6808BF4D60013A5C
:100E40005F610A60996A61B1D3E90752AA601A6AC0
:100E500055604D68A54208BF4A600A689F62013A22
:100E60000A60DA6AD8F8001002EB82050CEB8509FB
:100E70008A42D9F8041088BFC8F800208C689960AD
:100E8000DC605CF82540D1F808A00134CAF8040001
:100E90008860C3F814904CF82540DBF800103368E4
:100EA000C96A1B688A4228BF4FF0010E002B45D04B
:100EB00033680099DB68DB685A68181D914203F1BA
:100EC0001804B2D2019B64461A6004E04FF0000E91
:100ED000264CDFF89CB0DBF800302749DB6A03EBD7
:100EE00083039B00E2580B68022A28BF4FF0010ED3
:100EF000002B0CBF7046012003B0BDE8F08F1A4BE9
:100F00001A68126842B14FF0500383F31188BFF39F
:100F10006F8FBFF34F8FFEE7184A1868116819608A
:100F2000174910600A6801320A601A6812685AB9D3
:100F30004FF0FF330B4A0192136061E764464FF0B4
:100F4000FF33019A1360C6E71B68064ADB6801920B
:100F50001B68136054E79E46044CDFF814B0EEE7BC
:100F6000A41C0020581C0020B4170020BC1700202F
:100F7000B01700202C1C0020A81C0020B81700204F
:100F80005C1C00202DE9F04F584F83B0FFF762FA48
:100F90003B68013B3B60D7F800E0BEF1000F40F03A
:100FA0009580534B1B68002B00F09080DFF844C104
:100FB000DCF80030002B00F095807546DFF838B182
:100FC000DFF838814E4EDFF83C91CDF804B0DCF804
:100FD0000C30DB689A6AD3E9070181604860506889
:100FE00003F11804A04208BF516011689D620139E5
:100FF00011605A69D3E9021088604160516803F1B9
:10100000040A5145116808BF506001391160DA6A5D
:10101000D8F8001002EB820006EB800B8A42DBF866
:10102000041088BFC8F800208C689960DC6056F80E
:101030002040D1F808E00134CEF804A0C1F808A09F
:10104000C3F814B046F82040D9F80030DB6A9A4261
:1010500002D30123019A1360DCF80030002BB6D1D3
:10106000294BDDF804B01A681268002A35D01A68D6
:10107000264BD26812681A60254D2C6894B101265F
:1010800006E0FFF7B1FE08B1CBF80060013C08D0E4
:101090003B68002BF5D02B68013C03F101032B606A
:1010A000F6D12C60DBF8003083B14FF0E0234FF035
:1010B0008052C3F8042DBFF34F8FBFF36F8F01240D
:1010C000FFF7EAF9204603B0BDE8F08F0024FFF7F0
:1010D000E3F9204603B0BDE8F08F4FF0FF320B4B31
:1010E0001A60C9E7DFF810B0C6E700BF241C002073
:1010F0001C1C0020641C0020A81C00202C1C0020AC
:10110000BC170020B0170020B4170020581C002086
:10111000601C002030B587B00B9CD4B10C9D7DB114
:101120004FF491650595059DB5F5916F1AD04FF077
:10113000500383F31188BFF36F8FBFF34F8FFEE728
:101140004FF0500383F31188BFF36F8FBFF34F8FBE
:10115000FEE74FF0500383F31188BFF36F8FBFF3A7
:101160004F8FFEE70C9D2C63022402950A9D00958B
:10117000059D04AD01950C9D85F88544FFF7BCFDE8
:101180000C98FFF783FC049807B030BD2DE9F043BD
:10119000074685B0900015468846994600F032FC17
:1011A000E0B104464FF4916000F02CFC0646D0B14B
:1011B0000463002486F885440D9C4B4601940C9CE6
:1011C0002A464146384602960094FFF795FD304680
:1011D000FFF75CFC012005B0BDE8F0834FF0FF3065
:1011E00005B0BDE8F083204600F0ACFC4FF0FF30C6
:1011F000F1E700BF10B550B94FF0E0234FF0805237
:10120000C3F8042DBFF34F8FBFF36F8F10BD104C89
:10121000216841B14FF0500383F31188BFF36F8F02
:10122000BFF34F8FFEE7236801332360FFF7C6FC4F
:10123000236843B94FF0500383F31188BFF36F8FD6
:10124000BFF34F8FFEE7FFF79DFE0028D4D010BDFF
:10125000241C002030B5002489B007AA06A905A8DF
:10126000CDE90544FFF784F8DDE905012346CDE922
:101270000110079A174918480094FFF74BFFD0B1A7
:1012800000F05EFB01281AD14FF0500383F3118860
:10129000BFF36F8FBFF34F8F4FF0FF350F4B104AE7
:1012A0001B681049583313600F4A104B0D601060D3
:1012B0001C60FFF753F90E4B1B6809B030BD0130BD
:1012C000F9D14FF0500383F31188BFF36F8FBFF351
:1012D0004F8FFEE7F4520008910C0008B017002071
:1012E00014000020581C0020781C0020A41C0020A2
:1012F00004000020024A136801331360704700BFE6
:10130000241C0020064B1B6843B94FF0500383F3A5
:101310001188BFF36F8FBFF34F8FFEE7FFF732BE29
:10132000241C0020014B1868704700BFA41C00203B
:10133000054B1B680BB9FFF757BD044A0020136823
:1013400001331360704700BF241C0020601C002084
:101350001D4B1B681BB101221C4B1A6070471B4AB6
:1013600010B41B4C136023681A4903EB83029200EC
:101370008A58980042B9F3B1013B03EB830251F85C
:1013800022209800002AF6D0C21801EB8200024603
:101390004168083249689142416008BF49680E4A75
:1013A00008BF4160C8680D4910602360136810BC15
:1013B00058330B6070474FF0500383F31188BFF32D
:1013C0006F8FBFF34F8FFEE7241C0020A81C002066
:1013D0002C1C0020BC170020B01700201400002097
:1013E00060B110B50C460A4B19681831FFF726F9A1
:1013F0002046BDE810400121FFF7E0BB4FF050034D
:1014000083F31188BFF36F8FBFF34F8FFEE700BFE9
:10141000B0170020034608B308461146144AF0B43A
:101420005C681568A668EC61156800292E6216686C
:10143000156817681A68D4F808C006F1180605F18F
:10144000180502F10102CCF8046018BF4FF0FF301C
:10145000A560BB621A60F0BCFFF7B0BB4FF0500351
:1014600083F31188BFF36F8FBFF34F8FFEE700BF89
:10147000B0170020C368DB68002B5AD0D3E90701FE
:10148000F0B400259A6A81604860506803F118043E
:10149000A04208BF516011682A4801399D6211605D
:1014A0000268BAB128494A689068C3E90720906881
:1014B0004460086894600130DA6A9962234B0860DE
:1014C0001B68DB6A934231D2F0BC0123204A1846E4
:1014D000136070475A69D3E902108860D8681E1DEE
:1014E000416051681B4CB142116808BF506001391E
:1014F000194811600168DA6A8A4202EB820104EB42
:10150000810788BF02607868890085689860DD601F
:10151000D0F808C06558CCF80460013586605F617A
:101520000A4B65501B68DB6A9342CDD3F0BC0020A8
:1015300070474FF0500383F31188BFF36F8FBFF3F1
:101540004F8FFEE7241C0020641C0020B0170020F1
:10155000A81C0020BC1700202C1C0020034A044BB0
:1015600012681B68C0E90023704700BF5C1C0020A4
:10157000A41C0020F8B508B30D46B1B10446FEF72F
:1015800069FF2B681B4A581C11682DD0D4E900C094
:10159000194E3768BC451AD0884218D80023012656
:1015A0002B60FEF779FF3046F8BD4FF0500383F310
:1015B0001188BFF36F8FBFF34F8FFEE74FF05003DB
:1015C00083F31188BFF36F8FBFF34F8FFEE7A1EB5B
:1015D000000C6345E2D95B1A3168126803442B6042
:1015E0000026C4E90012DCE70026FEF755FF30466E
:1015F000F8BD00BFA41C00205C1C00200122014B90
:101600001A607047A81C0020054B1B6833B1054BBE
:101610001B68002B0CBF0220002070470120704780
:10162000781C0020241C0020F0B5124C83B0FEF77B
:1016300011FF256825B103B0BDE8F040FEF72CBFCF
:101640000D4F0E4E3846FEF7E9FF3046FEF7E6FF37
:101650000B4A009517600B4A102116600A200A4BAE
:101660000A4AFFF7ABF820600028E4D00849FFF7EA
:10167000AFF9E0E7D01D0020541D0020681D0020B8
:10168000AC1C0020B01C0020801D0020B41C0020D9
:10169000FC52000870B50446164605E0934218D87F
:1016A0002046236A98472946A369721A5D182CBF01
:1016B00001200020B54265602461EFD9B14201D913
:1016C0000028EDD0064B211D1868BDE87040FEF7DC
:1016D000B5BF044B211D1868BDE87040FEF7AEBFD2
:1016E000AC1C0020B01C0020104A70B512680546E2
:1016F000D2680E46D468201DFEF7B8FF94F8283053
:101700005A0708D423F0010384F828302046236ABE
:10171000BDE870401847204632462946FFF7BAFF19
:101720002046236ABDE87040184700BFAC1C00206B
:101730002DE9F0437E4D7F4E7F4F804C85B02B6866
:10174000D3F80090B9F1000F00F0BE80DB68D3F849
:101750000090FFF7CFFDFFF7E5FD33688046834239
:1017600043D88145306040F2CA8000222068A9EB4E
:101770000801FFF763F9FFF7C5FD48B94FF0E02313
:101780004FF08052C3F8042DBFF34F8FBFF36F8F1C
:10179000002269462068FFF759F80028CFD0009B47
:1017A000002BC0F28880DDF80880D8F814301BB117
:1017B00008F10400FEF75AFFFFF7B4FD33688146D5
:1017C000984224D3009BC6F80090013B082BDFD839
:1017D000DFE803F025256149682525614900DB68BC
:1017E0004FF0FF311868FFF77FFF2B681A68002A57
:1017F000F5D13A68C6F800802A603B60FFF782FDA9
:10180000C6E7DB684FF0FF311868FFF76DFF2B6804
:101810001A68002AF5D13A683B602A60D2E798F846
:101820002800019BD8F8182040F0010C991888F87E
:1018300028C02CBF4FF0010C4FF0000C4945C8F8F0
:101840000410C8F810804FD8A9EB03039A421CD8A3
:1018500043075FD420F0010088F828004046D8F8FC
:101860002030984794E798F82820019B42F0010225
:1018700088F82820C8F81830002B50D04B444B452E
:10188000C8F80430C8F8108033D8386808F104016B
:10189000FEF7D4FE7CE798F8283023F0010388F89F
:1018A000283075E798F828309A072FD523F00103E0
:1018B00088F828306CE7019BDDE902019847009B1E
:1018C000002BFFF665AF6EE7FFF714FDFFF72AFD6B
:1018D00033688046984288D33B68C6F800801A680F
:1018E000B2FA82F2520941E74B4502D9BCF1000F2E
:1018F000AED0286808F10401FEF7A0FE48E7FFF724
:1019000001FD41464846FFF7EFFE41E7404600F043
:1019100019F93DE74A464046FFF7BCFE9EE74FF007
:10192000500383F31188BFF36F8FBFF34F8FFEE730
:10193000AC1C00207C1D0020B01C0020D01D00200D
:1019400030B589B0FFF770FE124B1B68CBB1002495
:10195000022507AA06A905A8CDE90544FEF716FD4C
:10196000DDE905012346CDE90110079A0A490B4834
:101970000095FFF7CFFB0A4B186010B1012009B0AA
:1019800030BD4FF0500383F31188BFF36F8FBFF367
:101990004F8FFEE7D01D00200453000831170008C8
:1019A000D41D002010B4154B1A461B688342FBD38C
:1019B000516802EB010C60450AD0416800EB010C54
:1019C00063450DD09042036010BC18BF1060704793
:1019D00044681046214400EB010C63455160F1D18D
:1019E000074C2468A342EDD018CB90422144C0E9B3
:1019F000003110BC18BF1060704700BFF03D0020E0
:101A0000D81D00202DE9F041474E0446FFF772FC37
:101A10003368002B67D0454B1D682C423AD1631EBA
:101A20000A3337D8600704F1080127D1DFF80081B5
:101A3000D8F800708F422DD33E4B18461C6803E047
:101A4000236823B120461C4662688A42F8D3336873
:101A5000A3421FD0236806680360531A102B06F1B7
:101A6000080622D9601842071AD04FF0500383F3BA
:101A70001188BFF36F8FBFF34F8FFEE721F007038D
:101A800008338B4206D91946DFF8A480D8F80070D5
:101A90008F42D1D2FFF736FC00263046BDE8F081F8
:101AA00043606160FFF77EFF6268234BBF1A1968CD
:101AB0002A438F424FF000016260204A38BF1F6006
:101AC0001368216001331360C8F80070FFF71AFC37
:101AD0007307E2D04FF0500383F31188BFF36F8F89
:101AE000BFF34F8FFEE7164B00215D070EBF1A466E
:101AF000DA1D22F0070210464FF0004703F50053AD
:101B0000083B23F007030B4D9A1AC5E90001336027
:101B1000C3E90011C0E90032074B3D461A60044B8F
:101B20001A60024B1F6078E7D81D0020DC3D0020C2
:101B3000E03D0020F03D0020E43D0020E83D002095
:101B4000DC1D0020D0B11C4A50F8043C126813423E
:101B50000BD050F8081C91B14FF0500383F311885B
:101B6000BFF36F8FBFF34F8FFEE74FF0500383F348
:101B70001188BFF36F8FBFF34F8FFEE7704700B53B
:101B800023EA020383B040F8043C0190FFF7B2FB64
:101B90000A4A0198116850F8043C08380B44136055
:101BA000FFF700FF064A13680133136003B05DF8C6
:101BB00004EBFFF7A7BB00BFDC3D0020E03D0020A9
:101BC000EC3D0020014B1868704700BFE03D00204D
:101BD000074A08B51368032043F01003136000F0B0
:101BE0001BF80F2002F05CF902F032F9002008BD6A
:101BF00000200240034A044B11681B780B44136019
:101C0000704700BFF83D002008000020014B186815
:101C1000704700BFF83D0020C31E042B10B50446DA
:101C20000ED84FF6FF01094A2302D46803F4E0639B
:101C30000C40234343F0BF6343F40033D36010BD33
:101C40009221034802F0A6F8EBE700BF00ED00E0A8
:101C50000C5300080F2A70B5164605460C4637D8B7
:101C60000F2C30D81D4BDB68C3F30223C3F10700F0
:101C7000042803F1040228BF0420062A18D94FF0D3
:101C8000FF32033B9A4026EA02064FF0FF318140C3
:101C900024EA01049C40002D44EA06040BDB2401E5
:101CA00005F16045E4B205F5614585F8004370BD76
:101CB00000263346E9E70A4B05F00F052401E4B29C
:101CC0002B441C7670BDAB21064802F063F8C9E7CF
:101CD000AA21044802F05EF8C2E700BF00ED00E070
:101CE000FCEC00E00C530008002808DB012300F0A6
:101CF0001F01054A40098B4042F820307047BE2141
:101D0000024802F047B800BF00E100E00C530008B1
:101D10002DE9F04FAC4B064698420F4683B013D0E6
:101D200003F5806398420FD003F5806398420BD08F
:101D300003F58063984207D003F58063984203D08F
:101D4000BD21A24802F026F839688BB223B10B0CF2
:101D50001B04002B00F01881BE219C4802F01AF8E9
:101D60007B68012B1AD9A3F11102012A16D99A1EF8
:101D7000012A13D9964923F400128A420ED001F5A4
:101D800080118B420AD0A1F570218A4206D0914A77
:101D9000934203D0BF218D4801F0FCFF3968002930
:101DA00000F0CB804FF0000A874B5546DFF828B291
:101DB000DFF828928A4A04E0013531FA05F000F094
:101DC000BC800124AC4034EA010004EA0108F3D1EC
:101DD0009E4212D0964210D082498E420DD001F51B
:101DE00080618E4209D001F580618E4205D0CD21FF
:101DF000764801F0CFFF7A4A734B7968122900F2D6
:101E00009F80122923D8DFE811F0A800F300D70043
:101E100011012200220022002200220022002200C2
:101E2000220022002200220022002200D000C9004D
:101E3000A0F58010814200F0908000F57020814272
:101E400000F08B80A0F58010814200F08680B8F110
:101E5000FF0F00F28D8034464FEA850E0F20216877
:101E60000AFA0EFC00FA0EFE21EA0E0141EA0C010C
:101E700021607968CC0040F18580DBF8184005F0DE
:101E8000030C44F00104CBF81840DBF818404FEA8B
:101E90008C0C04F001040194019C25F0030404F16E
:101EA000804404F58034D4F808E000FA0CF09E4237
:101EB0002EEA000013D0964200F0B180DFF824E152
:101EC000764500F0A580DFF820E176450CBF4FF0A5
:101ED000030E4FF0040E0EFA0CFC40EA0C00A0605A
:101EE000D9F80000CC034CBF40EA080020EA080003
:101EF000C9F80000D9F804008C034CBF40EA080080
:101F000020EA0800C9F80400D9F80800CC024CBF48
:101F100040EA080020EA0800C9F8080011F4001F90
:101F2000D9F80C102AD041EA0801C9F80C10396818
:101F3000013531FA05F07FF444AF03B0BDE8F08F0E
:101F40002448814209D07FF673AF2848814204D0EB
:101F500000F5803081427FF47AAFB96802296FD8EA
:101F6000002966D1B8F1FF0F4FF0040A7FF673AF76
:101F70004FEA850EAEF1200E341D6FE721EA08010D
:101F8000C9F80C10396817E77B68012B7FF60AAF98
:101F9000A3F11102012A3FF6EAAEFFE6F968481EF6
:101FA000022857D801F10C0A51E7F968481E0228A7
:101FB00060D801F1040A4AE7F968481E022851D89E
:101FC00001F1080A43E700BF00080140345300084C
:101FD0000000111000002210001002400004014017
:101FE000000C0140001001400014014000003110BD
:101FF000D7F80CA00AF1FF3102297FF628AFD521CE
:10200000204801F0C7FED7F80CA01F4B1F4A1EE75F
:102010004FF0020E0EFA0CFC40EA0C005FE74FF0A6
:10202000010E0EFA0CFC40EA0C0058E74FF0000AD3
:102030000DE701294FF0080A0CBF3461746106E70F
:10204000F721104801F0A6FEB968104A0E4B00298E
:1020500088D0EEE7EA210B4801F09CFEF9680B4AB4
:10206000094B9FE7E321074801F094FEF968074A0E
:10207000054BA5E7DC21034801F08CFEF968034A13
:10208000014B96E73453000800080140000C014062
:1020900038B505460C4629B1AB681C4214BF012077
:1020A000002038BD4FF4DA71014801F073FEF3E708
:1020B0003453000870B506460C46154661B1012D33
:1020C00003D805B92404346170BD40F2D511054828
:1020D00001F060FE346170BD4FF4EA71014801F017
:1020E00059FEECE73453000838B505460C4641B1BB
:1020F000E96804EA010324EA010444EA03442C6188
:1021000038BD4FF4F671024801F044FEF0E700BF1D
:10211000345300082DE9F84380460E461746994689
:10212000D8F8004004E065696A0509D47B1C21D118
:10213000606926EA000080B20028F4D1BDE8F88387
:1021400000226FF4806520212368012043F400738E
:1021500023606561C8F8302088F83D1088F83E207B
:10216000D8F8403088F83C2043F00403C8F84030E9
:10217000BDE8F883FFF74AFDA0EB0900B84201D89B
:10218000002FCDD100222023C8F8302088F83D3020
:1021900088F83E20D8F84030012043F0200388F82A
:1021A0003C20C8F84030C9E7F8B505460E4617464A
:1021B0002C6801E0731C19D1636913F0800313D1FB
:1021C00060694205F6D56FF48061202261612B635E
:1021D00085F83D2085F83E302A6C85F83C3042F089
:1021E000040201202A64F8BD0020F8BDFFF70EFDAF
:1021F000C01BB04201D8002EDAD1002220232A636E
:1022000085F83D3085F83E202B6C85F83C2043F066
:10221000200301202B64F8BDF8B505460E4617468D
:102220002C6801E0731C19D1636913F0040313D106
:1022300060694205F6D56FF48061202261612B63ED
:1022400085F83D2085F83E302A6C85F83C3042F018
:10225000040201202A64F8BD0020F8BDFFF7D6FC77
:10226000C01BB04201D8002EDAD1002220232A63FD
:1022700085F83D3085F83E202B6C85F83C2043F0F6
:10228000200301202B64F8BD002800F0358138B50B
:102290009A4A03680446934208D002F5806293424A
:1022A00004D040F2D111964801F074FD6368954A5C
:1022B000013B934200F20781A36833F4804340F06E
:1022C000DD80E36823F47F7323F00303002B40F0E9
:1022D000E280236923F40043B3F5804F04D040F239
:1022E000D511874801F056FD6369012B00F2D980B2
:1022F000A36933F0FE0340F0DE80E36933F040036E
:1023000004D04FF4EC717E4801F044FD236A33F0B1
:10231000800340F0A18094F83D3003F0FF02002BD1
:1023200000F0A6802422236884F83D201A6822F059
:1023300001021A601A6842F400421A601A6822F414
:1023400000421A6000F0B6FD63686F498B4251D8B5
:102350006E4A904240F2B5806D4D5A00A5FB0035A3
:10236000431EB3FBF2F340F6FC7E2268A90C5068D2
:1023700001F1010C20F03F0040EA95405060116AE5
:10238000013321F03F0141EA0C011162D16913EAE6
:102390000E0F21F44F4121F0FF0140F09A800423F9
:1023A0000B43D3611168D4E9073021F0C001034326
:1023B0000B4313609168D4E9030321F40341034301
:1023C00021F0FF010B439360D068D4E9053120F080
:1023D000FF000B430343D3601368002143F0010364
:1023E00013602023216484F83D30216384F83E107B
:1023F000084638BD474A904263D9454DA5FB002C9D
:102400004FF496724FEA9C4102FB01F1424D226863
:10241000A5FB01515568890925F03F0545EA9C4512
:102420005560156A013125F03F0529431162D169D4
:10243000A56821F44F4121F0FF01002D4CD1013856
:1024400003EB4303B0FBF3F30133C3F30B03002BA4
:1024500050D043F40043A3E740F2D911284801F0DB
:1024600099FC94F83D3003F0FF02002B7FF45AAF43
:10247000204684F83C2001F005FC53E740F2D311DC
:102480001F4801F087FCE36823F47F7323F0030304
:10249000002B3FF41EAF4FF4EA71194801F07AFCAB
:1024A00017E74FF4EB71164801F074FCA36933F0A1
:1024B000FE033FF422AF40F2D711114801F06AFC4D
:1024C0001BE7012038BD4FF4E9710D4801F062FCB3
:1024D000F2E6C3F30B0363E703EB8303013803EB7B
:1024E0008303B0FBF3F30133C3F30B0313B143F4E2
:1024F000404355E7012353E7012070470054004053
:10250000585300087F1A0600A08601007F841E0031
:1025100083DE1B43FF083D00D34D62102DE9F047D9
:10252000044682B09946884692460A9FFFF76EFBA2
:1025300094F83D30202B05D04FF00208404602B001
:10254000BDE8F087064605E0FFF760FB801B192811
:1025500000F2C28023689D696FEA050C1CF0020539
:10256000F2D094F83C20012AE6D0012284F83C20E5
:102570001A68D50740F18F800021212510201A68A4
:1025800022F400621A6084F83D5084F83E00216411
:10259000A4F82A90628DA1F58031E1622285E26A79
:1025A000C4F824A0082A06D0012A04D08A4202D006
:1025B000226B122A06D11A6842F480721A6001E076
:1025C000781C5FD15A69D207FAD52269B2F5804FDB
:1025D00066D108F0FE01196133463A462046574954
:1025E000FFF798FD8046002870D1236801905A6952
:1025F00001929B690193019B34E0324639462046A3
:10260000FFF7D2FD00285ED1D4F824E0D4F800C052
:10261000734613F801ABB4F82890CCF810A06362AD
:10262000638D09F1FF35013B9BB26385DCF8143003
:10263000ADB25B0732463946204625850FD575B1C8
:102640009EF80130A9F10209CCF810300EF1020316
:102650006362638DA4F82890013B9BB26385FFF70A
:10266000DBFD80BB238D002BC7D121680A6842F4B3
:1026700000720A60202284F83C3084F83D2084F8FF
:102680003E305BE7FFF7C2FA801B874236D3002F4C
:1026900034D0236896E71A6842F001021A606BE7AB
:1026A0004FEAE81202F0060242F0F0021A612046F8
:1026B00033463A462249FFF72DFD38B922685FFAC2
:1026C00088F3136188E7236C042B2ED04FF00108A8
:1026D000404602B0BDE8F0874FF002082023404694
:1026E000256384F83D3084F83E50236C84F83C50D8
:1026F00043F02003236402B0BDE8F08700222023CA
:10270000226384F83D3084F83E20236C216843F036
:10271000200384F83C2023640B68D905D6D54FF4F8
:1027200000734FF00108236408E722684FF00108A6
:10273000136843F40073136000E700BF0200010058
:1027400008000100002800F05A822DE9F0410368DA
:10275000044682B0002B00F084801E0700F0C58183
:10276000DD0734D5636833F4803203D0B3F5A02F8E
:1027700040F09D819F4A536803F00C03042B1DD049
:10278000536803F00C03082B15D06368B3F5803F42
:1027900000F07A81002B00F0AF81B3F5A02F00F09C
:1027A0000882944B1A6822F480321A601A6822F464
:1027B00080221A606DE15368D803E6D58D4B1B6803
:1027C000990303D56368002B00F0778123689F0786
:1027D0001ED52369012B00F2198163691F2B00F2BA
:1027E0001E81844B5A6812F00C0F40F0DE80814B42
:1027F0001B689D0703D52369012B40F05E817D4A4C
:102800006169136823F0F80343EAC1031360236886
:102810001A0726D5A369012B00F21881002B00F0BE
:1028200004810122744B734EC3F88024FFF7EEF944
:10283000054605E0FFF7EAF9401B022800F2518146
:10284000736A9B07F6D56D4B6D4A1B68A2FB032389
:102850005B0A019300BF019B5A1E0192002BF9D124
:1028600023685D073FD5E368012B06D9052B04D00B
:1028700040F21121634801F08DFA5E4BDA69D00015
:1028800040F1ED800025604E3368D90540F1198193
:10289000E368012B0FD0002B00F04481052B554B32
:1028A0001A6A00F0938122F001021A621A6A22F079
:1028B00004021A6204E04F4A136A43F001031362F0
:1028C000FFF7A4F941F2883806464A4F05E0FFF7C2
:1028D0009DF9801B404500F204813B6A9B07F6D5B9
:1028E000002D40F06081E069022800F2C3800028DA
:1028F00057D0404D6B6803F00C03082B00F0438168
:10290000022840F06B81236A33F4803304D04FF403
:102910002E713C4801F03EFA636A33F4402223F4FE
:10292000802110D0B2F5801F0DD0B2F5001F0AD063
:10293000B1F5401F07D0B3F5601F04D040F2B921B4
:10294000304801F027FA00222B4B2A4E1A66FFF777
:102950005DF9054605E0FFF759F9401B022800F232
:10296000C08033689901F6D4226AB2F5803F00F046
:10297000488101201F4D616A6B6823F474130B4377
:102980001D4913436B600866FFF740F9044605E0F4
:10299000FFF73CF9001B022800F2A3802B689A0184
:1029A000F6D5002002B0BDE8F0815A6802F00C02B2
:1029B000082A00F0E3802369002B00F0CE8001227A
:1029C0000D4B0C4E1A60FFF721F9054605E0FFF7A5
:1029D0001DF9401B022800F2848033689807F6D561
:1029E0003368626923F0F80343EAC2033360236863
:1029F0000EE700BF0010024000004242100000201D
:102A0000D34D62107C5300080070004040F2A111C9
:102A1000854801F0BFF963691F2B7FF6E2AE4FF4E2
:102A2000D171814801F0B6F9DBE6804A804EC2F8E8
:102A30008034FFF7EBF8054604E0FFF7E7F8401BAA
:102A400002284ED8736A9F07F7D409E74FF4F17153
:102A5000754801F09FF9A369002BE6D0E1E6DA6939
:102A6000012542F08052DA61DB6903F08053009364
:102A7000009B08E76C4840F2AF2101F08BF9E06958
:102A800000287FF436AF8CE7694A136843F480333B
:102A90001360FFF7BBF8664E054604E0FFF7B6F893
:102AA000401B64281DD833689A03F7D58EE640F2A0
:102AB0006D115D4801F06EF95CE6012002B0BDE8E1
:102AC000F081336843F480733360FFF79FF8074663
:102AD0003368DA053FF5DCAEFFF798F8C01B6428D1
:102AE000F6D9032002B0BDE8F08140F267114E48EC
:102AF00001F050F9236833E64D4D2B6823F4803301
:102B00002B602B6823F480232B60FFF77FF80646A9
:102B100004E0FFF77BF8801B6428E2D82B689B0356
:102B2000F7D453E6424E41F28838336A23F001036A
:102B30003362336A23F004033362FFF767F8074612
:102B400004E0FFF763F8C01B4045CAD8336A980712
:102B5000F7D4002D3FF4C7AE25E0344A344E13605D
:102B6000FFF754F8054604E0FFF750F8401B022831
:102B7000B7D833689907F7D4236849E65B68DE0362
:102B80003FF519AF33E601283FF40CAF6B68226ABA
:102B900003F48031914290D1606A03F47013181AE3
:102BA00018BF0120FEE6224AD36923F08053D36187
:102BB00099E603F18043A3F53C331A6842F480227E
:102BC0001A601A6842F480321A6062E742F0040226
:102BD0001A621A6A42F001021A6271E60022134B6D
:102BE0001A66FFF713F8044605E0FFF70FF8001B1D
:102BF00002283FF676AF2B689B01F6D4D1E6012080
:102C00007047A16831F4003306D040F2CF21064866
:102C100001F0C0F8A168226A0548436823F4003334
:102C20000B434360A5E600BF7C530008000042420E
:102C30000010024040F2012C00B51A4B87B00DF194
:102C4000180E0FCB0EE90F001749ADF804C04A6803
:102C500002F00C03042B1AD0082B14D1C2F38343C7
:102C6000734413F8100CD30315D54B680F4AC3F304
:102C7000404302FB00F0734413F8143CB0FBF3F044
:102C800007B05DF804FB0A4807B05DF804FB07488D
:102C900007B05DF804FB074B03FB00F007B05DF8DD
:102CA00004FB00BFA0530008001002400024F40001
:102CB00000127A0000093D00002800F0DF80036860
:102CC0002DE9F0411E0704460D4600F0CD80022D8F
:102CD00000F2C480714A136803F00703AB420CD2C0
:102CE000136823F007032B431360136803F00703F3
:102CF000AB4202D00120BDE8F081236898072CD5B3
:102D0000590704D566494A6842F4E0624A601A07E6
:102D100004D563494A6842F460524A60A16831F0C0
:102D2000800214D021F02002902A10D021F040021D
:102D3000A02A0CD021F01002C02A08D0F02906D019
:102D400040F25F31574801F025F8A16823685448E4
:102D5000426822F0F0020A434260DF0724D563682C
:102D6000022B00F291804E4A012B126800F08880FD
:102D7000022B7FD09107BDD5494E41F28838726849
:102D800022F0030213437360FEF740FF074604E09E
:102D9000FEF73CFFC01B40457DD87368626803F0B6
:102DA0000C03B3EB820FF3D13C4A136803F0070323
:102DB000AB4209D9136823F007032B431360136850
:102DC00003F00703AB4295D123685A0718D5E16891
:102DD00031F480620ED021F40072B2F5A06F09D0F8
:102DE000B1F5C06F06D04FF469712E4800F0D2FFE4
:102DF000E16823682A48426822F4E0620A4342609C
:102E00001B0718D5226932F480630DD022F40073B9
:102E1000B3F5A06F08D0B2F5C06F05D040F2AB316A
:102E2000204800F0B7FF22691D494B6823F4605326
:102E300043EAC2034B60FFF7FDFE0346184A1A49F6
:102E400052681A48C2F30312895C194ACB400068E1
:102E5000136001F025F80020BDE8F08140F239311F
:102E6000104800F097FF35E74FF44E710D4800F021
:102E700091FF2CE790013FF57FAF3BE701207047C2
:102E800096033FF579AF35E740F26631054800F02B
:102E900081FF636867E703202DE700BF0020024041
:102EA000001002407C530008785400080C000020F9
:102EB00010000020044B054A5B680549C3F3022358
:102EC000CB5C1068D8407047001002401000002012
:102ED00088540008044B054A5B680549C3F3C223C4
:102EE000CB5C1068D84070470010024010000020F2
:102EF0008854000838B504460D46D0B105B30F22FA
:102F0000124B22605A68124902F0030262605A684A
:102F100002F0F002A2605A6802F4E062E2605B68CC
:102F2000DB0803F4E06323610B6803F007032B6005
:102F300038BD40F22351074800F02CFF002DDED1B0
:102F400040F22451034800F025FFD8E7001002406A
:102F5000002002407C530008002800F0DC80F8B517
:102F6000754A03680446934208D0A2F5784293421A
:102F700004D04FF4AC71714800F00CFF63683BB1B2
:102F8000B3F5827F04D040F259116C4800F002FF83
:102F9000A36833F4806273D1E36833F400637BD1B8
:102FA000A36933F4007203D0B3F5802F40F0A880FA
:102FB000E36933F0180306D0202B04D040F25D11F2
:102FC0005E4800F0E7FE236A33F080036AD1636A4B
:102FD000002B6FD1236933F0020340F08B806369CB
:102FE000012B04D940F26511544800F0D3FE636808
:102FF000B3F5827F00F091800023E361002394F811
:103000005120A36202F0FF01002A6AD09C46D4E955
:10301000013202264FF0010E002502F4044203F4AF
:1030200082731343E268A06902F4006213432269C9
:1030300084F85160324013436269216802EA0E024B
:103040001A43E369266A03F0380700F40073134358
:1030500006F080060A683B433343000C43EA0C0346
:1030600000F0040022F040020A600B604860CB6967
:10307000284623F40063CB61656584F851E0F8BD10
:10308000B3F5004F88D04FF4AD712C4800F082FEAC
:10309000E36833F4006383D040F25B11274800F00B
:1030A00079FE7DE74FF4AF71244800F073FE636A48
:1030B000002B8FD040F26111204800F06BFE636A54
:1030C000002B87D0E36933F0180306D0202B04D0FF
:1030D00040F27311194800F05DFE0023C4E9043387
:1030E0008CE7204684F8501000F078FEA36A03F4C1
:1030F000005C8CE74FF4B271104800F04BFE6EE7B5
:103100004FF4AE710D4800F045FEE36933F018034B
:103110003FF459AF50E701207047E36933F01803DB
:103120003FF46CAF202B3FF469AF40F269110348C4
:1031300000F030FE62E700BF00300140B4530008E9
:10314000704700BF1E4A036810B5934204460FD073
:10315000B3F1804F0CD0A2F59432934208D002F51F
:103160008062934204D040F2CF11164800F012FE64
:1031700094F83D30012B1FD10222236884F83D20B2
:10318000DA680F4942F001028B42DA6009D0B3F1EC
:10319000804F06D00C4A934203D002F580629342DE
:1031A00004D19A6802F00702062A07D01A680020A4
:1031B00042F001021A6010BD012010BD002010BDB8
:1031C000002C0140D8530008000400402DE9F843CA
:1031D00090F83E5090F83F30634A5FFA83F990F8D8
:1031E000423004465FFA83F890F843300E46DFB26F
:1031F0000368EDB293420FD0B3F1804F0CD0A2F52B
:103200009432934208D002F58062934204D040F693
:103210004A41564800F0BEFD16BB012D03D00125E2
:103220002846BDE8F883B8F1010FF9D102232568DB
:103230004D4A84F83E30954284F8423055D0B5F17D
:10324000804F52D04A4B9D424FD003F580639D4240
:103250004BD041F60951454800F09CFD266845E0F9
:10326000042E53D0012DDAD1B9F1010FD8D1B8F124
:10327000010FD5D1012FD3D1022326683A4A84F811
:103280003E30964284F83F3084F8423084F8433030
:1032900054D0B6F1804F51D0354B9E424ED003F5FD
:1032A00080639E4254D041F60951304800F072FDCF
:1032B000336A256823F001033362336A2A4A43F0F4
:1032C0000103954233622FD0B5F1804F2CD0284BAB
:1032D0009D4229D003F580639D4225D041F60951D6
:1032E000224800F057FD26681FE02E462B6A23F087
:1032F00001032B622B6A43F001032B620025336824
:10330000284643F001033360BDE8F883B9F1010FAB
:1033100085D1012F83D102232568134A84F83F30D9
:10332000954284F84330CFD12E462B6A23F0100308
:103330002B622B6A43F010032B62DFE7336A3546BA
:1033400023F001033362336A43F001033362ECE795
:10335000084B35461A6A22F001021A621A6A42F0D4
:1033600001021A62E1E700BF002C0140D8530008B7
:103370000004004000080040704700BF704700BFD5
:10338000704700BF704700BF036810B51A69044654
:10339000910702D5DA6892075FD41A69500702D5FF
:1033A000DA68510746D41A69120702D5DA6810079D
:1033B0002ED41A69D20602D5DA68D00618D41A6952
:1033C000D10702D5DA68D2075DD41A69100602D592
:1033D000DA6811065FD41A69520602D5DA68500617
:1033E00061D41A69910602D5DA68920643D410BDF9
:1033F0006FF01001082219612277DB69204613F46F
:10340000407F64D0FFF7BAFF002223682277D6E717
:103410006FF00801042219612277DB6920469907C1
:1034200052D1FFF7A9FF2046FFF7AAFF0022236829
:103430002277BEE76FF004010222196122779B69AF
:10344000204613F4407F3CD1FFF796FF2046FFF75C
:1034500097FF002223682277A5E76FF0020101227F
:10346000196102779B699B0725D0FFF787FF002230
:103470002368227791E76FF020022046BDE81040D4
:103480001A6100F053BA6FF0010220461A6100F091
:1034900075FC236899E76FF0800220461A6100F0FE
:1034A00047FA236897E76FF0400220461A61FFF75A
:1034B00069FF236895E7FFF75FFF2046FFF760FF8E
:1034C000D5E7FFF75BFFC4E7FFF758FFAEE7FFF76D
:1034D00053FF2046FFF754FF96E700BF244A30B45D
:1034E000904203682CD0B0F1804F14D0A2F59432F2
:1034F000904210D002F5806290420CD04D6923F0CA
:1035000080032B438C680A6803600123C4628262D3
:1035100030BC436170474A6823F07003CC681343A2
:1035200023F440734A69234323F0800313438C68D8
:103530000A6803600123C462826230BC4361704741
:103540004C6823F07003CA68234323F44073134389
:103550004A6923F08003134303608B6830BCC36265
:103560000B6883620B69036301234361704700BFEB
:10357000002C014000286ED00368384A10B59342F1
:1035800004460FD0B3F1804F0CD0A2F59432934291
:1035900008D002F58062934204D040F21311304803
:1035A00000F0F8FBA36833F010020AD023F04002C9
:1035B000202A06D0402B04D04FF48A71284800F00E
:1035C000E9FB236933F4807202D0B3F5007F38D170
:1035D000A36933F0800323D194F83D3003F0FF0258
:1035E0004BB30223214684F83D3051F8040BFFF71A
:1035F00075FF012384F8463084F83E3084F83F306C
:1036000084F8403084F8413084F8423084F8433004
:1036100084F8443084F8453084F83D30002010BDF3
:103620004FF48B710E4800F0B5FB94F83D3003F079
:10363000FF02002BD5D1204684F83C20FFF780FD07
:10364000CFE740F21511064800F0A4FBA36933F060
:103650008003C1D0E4E70120704700BF002C014087
:10366000D8530008002800F0FB80F8B57D4A0368B5
:10367000054693420C460FD0B3F1804F0CD0A2F513
:103680009432934208D002F58062934204D040F60F
:103690008E31754800F07EFBAB6833F010020AD023
:1036A00023F04002202A06D0402B04D040F68F3170
:1036B0006D4800F06FFB2B6933F4807203D0B3F5D3
:1036C000007F40F0C280AB6933F0800340F081801E
:1036D0002368013B022B00F28680A368013B022B8A
:1036E00000F28B80A369013B022B00F2908063689B
:1036F00033F0020304D040F695315B4800F04AFBFA
:10370000636933F0020304D040F69631564800F066
:1037100041FBE36833F00C0304D040F69731524884
:1037200000F038FBE36933F00C0340F08880236934
:103730000F2B7ED8236A0F2B75D895F83D3003F0F8
:10374000FF02002B69D00223294685F83D3051F84D
:10375000040B836823F4804323F007038360FFF79F
:10376000BDFE01212E68A768B068B269A36922F482
:10377000407222F0030247EA0323134323F47C42FE
:103780002369E7691B0143EA0723E76822F0FC028B
:103790003B43376A27F0220C276A43EA0733134377
:1037A00067696268246842EA0712204342EA0C0211
:1037B000B060B361326285F8461085F83E1085F836
:1037C0003F1085F8421085F8431085F83D10002021
:1037D000F8BD40F69131244800F0DCFA2368013B43
:1037E000022B7FF67AAF40F692311F4800F0D2FAF2
:1037F000A368013B022B7FF675AF40F693311A4860
:1038000000F0C8FAA369013B022B7FF670AF40F6C7
:103810009431154800F0BEFA69E7284685F83C2047
:1038200000F0E6FB8FE740F69A310F4800F0B2FA5D
:1038300083E740F699310C4800F0ACFA7AE740F69D
:103840009831094800F0A6FA71E74FF4396106484B
:1038500000F0A0FAAB6933F080033FF439AFB8E76A
:1038600001207047002C0140D853000838B52C4A7D
:103870000368044693420D460FD0B3F1804F0CD03D
:10388000A2F59432934208D002F58062934204D0AC
:1038900040F28671234800F07DFA2B6833F0300344
:1038A00006D0402B04D040F287711E4800F072FA17
:1038B0006B6833F0800328D194F83C30012B2DD075
:1038C0000222236884F83D205A682968144822F0AF
:1038D00070020A43834299685A6009D0B3F1804F5D
:1038E00006D0114A934203D002F58062934204D17C
:1038F0006A6821F08001114399600023012284F855
:103900003C3084F83D20184638BD4FF4F16105483D
:1039100000F040FA94F83C30012BD1D1022038BDA0
:10392000002C0140FC53000800040040704700BF19
:10393000704700BF38B54268344B04469A4255D8A8
:10394000E36833F4005304D040F65461304800F08B
:1039500021FA236933F4806202D0B3F5C06F4FD1EE
:103960004FF6F3736069184239D1002837D02368C5
:10397000E2681969256921F4405111431961D96838
:10398000A26821F4B05121F00C012A430A430243FA
:10399000DA605A69A0691F4922F4407202438B42DF
:1039A0005A6129D0FFF786FA0346626803EB830366
:1039B000920003EB8303B3FBF2F34FF0640C164960
:1039C0002068A1FB034252090CFB12331B01323366
:1039D000A1FB0313120102EB5313836038BD0C48A3
:1039E00040F6566100F0D6F96069C0E740F65361D1
:1039F000074800F0CFF9A3E7FFF76CFA0346D4E7D6
:103A000040F65561024800F0C5F9A9E720AA440034
:103A100024540008003801401F85EB5100286ED067
:103A200038B583690446002B43D0026835498A4281
:103A300051D0A1F574418A424DD001F580618A428E
:103A400049D04FF4B671304800F0A4F9A369002BB7
:103A500041D1A36833F4805304D040F273112A4853
:103A600000F098F994F83D3003F0FF02002B40D0AD
:103A70002423226884F83D30D368204623F4005381
:103A8000D360FFF757FF00252021236828461A69D5
:103A900022F490421A615A6922F02A025A61DA68C5
:103AA00042F40052DA60256484F83D1084F83E1038
:103AB00038BD0368134A9342CBD0A2F574429342B7
:103AC000C7D002F580629342C3D040F271110E4814
:103AD00000F060F9BDE723F40072B2F5807FB8D042
:103AE000B3F5007FB5D040F26D11074800F052F9F0
:103AF000AFE7204684F83C2000F0C4FAB8E7012084
:103B0000704700BF0038014024540008FEE7000061
:103B1000704700BF08B50A20FCF710FCFBE700BFA8
:103B200000B583B0FEF74EF803460021114A124853
:103B30000193FCF79FFB114B1860FEF743F80190CF
:103B400000F066FEFEF73EF8019001F009F8FEF77E
:103B500039F8019001F052F8FEF734F8019001F0C5
:103B60005DF8FEF72FF80190019B0133019303B03C
:103B70005DF804FB54540008153B0008FC3D002090
:103B8000FDF738BB2DE9F041002488B0CDE90444AD
:103B9000CDE90644294B2A4E9A692A4D42F020026B
:103BA0009A619A69304602F020020192019A9A695C
:103BB000102142F004029A619A694FF0010802F064
:103BC00004020292029A9A69022742F008029A615C
:103BD0009B69224603F008030393039BFEF76AFAEE
:103BE000224628460721FEF765FA48F20C033046C4
:103BF00004A90493CDE90544FEF78AF81023304662
:103C00000DEB03010493CDE905840797FEF780F8D7
:103C10000723284604A90493CDE90647CDF814806C
:103C2000FEF776F83823284604A9CDE90544049325
:103C3000FEF76EF808B0BDE8F08100BF001002404A
:103C400000080140000C014000234FF4804210B5F1
:103C500009480A4C0A49C0E90233C0E90041C0E9F9
:103C60000423C0E906330362FEF70EFB00B910BD62
:103C7000BDE8104000F08CB8003E00200054004029
:103C8000801A0600002330B5144A016887B09142BB
:103C9000CDE90233CDE9043301D007B030BDC020F7
:103CA000032212250E4C02A9A36943F00803A36165
:103CB000A369029003F0080300930A48009B039550
:103CC0000592FEF725F8E36943F40013E361E36925
:103CD00003F400130193019B07B030BD0054004072
:103CE00000100240000C014030B54FF4803209242E
:103CF0004FF4003191B001200023CDE90721069453
:103D00000E9202244FF4E0120A900C9006A8CDE91E
:103D10000233CDE904330B93099301930D940F9271
:103D2000FEF710FD08B172B6FEE703460F254FF40B
:103D30008062214601A802940393059301950492A1
:103D4000FEF7BAFF08B172B6FEE711B030BD00BF92
:103D500008B5FDF73DFFFFF7C7FFFFF713FFFFF7BC
:103D600073FF00F019F800F013F900F06FF9FCF799
:103D700045FAFFF7D5FEFCF75BFAFEE7034B026856
:103D80009A4200D07047FDF735BF00BF00040040E5
:103D900072B6FEE7704700BF38B5082100234FF424
:103DA00082754FF400740A220A48C0E90153C0E941
:103DB0000333C0E90534C0E90713C0E90933064BF2
:103DC000C2620360FFF7C8F800B938BDBDE83840EB
:103DD000FFF7DEBF543E00200030014070B50024E4
:103DE000194B026886B09A42CDE90244CDE90444F9
:103DF00001D006B070BD0320A026022503F5604364
:103E00009A6902A942F480529A619A6902F4805236
:103E10000092009A9A6942F004029A619B690590A7
:103E200003F0040301930948019BCDE90265FDF706
:103E30006FFF4023054802A9CDE903440293FDF733
:103E400067FF06B070BD00BF0030014000080140B0
:103E5000114B10B5986982B040F0010098619C69DF
:103E6000002204F001040094009CDC690F2144F05E
:103E70008054DC61DB696FF0010003F08053019333
:103E8000019BFDF7E7FE054A536823F0E06343F02A
:103E90000073536002B010BD0010024000000140EA
:103EA00030B5014689B000221D20FDF7D3FE1D204C
:103EB000FDF71AFF164B01A9DA6903A842F00202C6
:103EC000DA61DB69134D03F002030293029BFFF7F3
:103ED00011F8FEF7EFFF0346002240F2E7315B00E6
:103EE000A5FB03530C4C0D489B0C2060013B204666
:103EF000C4E90312A2606360FFF73CFB10B101202C
:103F000009B030BD2046FFF71DF909B030BD00BF34
:103F10000010024083DE1B43AC3E00200004004042
:103F2000FEE700BFFEE700BFFEE700BFFEE700BF01
:103F3000FEE700BF704700BF0148FFF725BA00BF8A
:103F4000AC3E00200D49034610B50D4A0D4C0868E3
:103F5000121B20B10344934207D80B6010BD0A4CDA
:103F60002046034493420C60F7D900F009FF0C226D
:103F700003464FF0FF301A6010BD00BFF43E002032
:103F8000005000200004000058400020704700BF8F
:103F900010B58CB02022002104A800F02BFF4FF6B2
:103FA000FF71002301224FF080441048CDE9023216
:103FB000C16003A9C0E90133046001930361836117
:103FC00005920992FFF74EFB48B90023074801A963
:103FD000CDE90133FFF74AFC20B90CB010BDFFF763
:103FE000D7FEF2E7FFF7D4FE0CB010BDF83E00207C
:103FF000002310B5026886B0B2F1804FCDE90233DC
:10400000CDE9043301D006B010BD032403F1804391
:1040100003F50433DA690C4842F00102DA61DA6927
:1040200002A902F001020092009A9A6942F0040289
:104030009A619B69029403F004030193019BFDF7CD
:1040400067FE06B010BD00BF0008014000234FF41A
:10405000E1310C2210B50948094CC0E90113C0E94F
:104060000333C0E905230460C361FFF7D7FC00B93F
:1040700010BDBDE81040FFF78BBE00BF403F0020E1
:104080000038014070B500241A4B026886B09A428D
:10409000CDE90244CDE9044401D006B070BD03204F
:1040A0004FF40076022503F558439A6902A942F4B9
:1040B00080429A619A6902F480420092009A9A6959
:1040C00042F004029A619B69059003F00403019396
:1040D0000948019BCDE90265FDF71AFE4FF48063A4
:1040E000054802A9CDE903440293FDF711FE06B08D
:1040F00070BD00BF003801400008014030B50346E4
:104100004FF00414002201204FF6017E5C61B1F8EB
:1041100000C019604988164DACF1050C05390FFA3D
:104120008CFC09B2A3F842E0DA8483F84100A3F8DA
:10413000442083F84C2083F8542083F85C2083F8D3
:104140006420C3E90C22C3E90E22C3E901222B60DB
:10415000A3F818C0A3F810C0598359821A629A6252
:104160009A85DA609A641A659A651A6630BD00BF4E
:10417000843F002030B51D4C4028637883B06FF336
:104180000413637024D0802829D0637823F00303BC
:1041900063704FF496756278217022F06C0242F0E1
:1041A0006402627002234021104A00951048FEF715
:1041B000B5F96178022321F0640141F04401617096
:1041C0000A4A402100950A48FEF7A8F903B030BD1D
:1041D000637823F0030343F002036370D9E7637845
:1041E00023F0030343F001036370D2E7883F00200C
:1041F000003E0020F0B54FF496752D4C2D4F2388CE
:104200002D4E3B4043F4C84383B043F03F03224666
:1042100023804021022330460095FEF77FF9637822
:10422000224623F0640343F04403637040210223D9
:1042300030460095FEF772F9238822463B4043F44E
:10424000C84343F0400323804021022330460095B9
:10425000FEF764F96378224623F0640343F04403D5
:1042600063704021022330460095FEF757F9B821CC
:104270000020FFF77FFF228802233A4042F4C94220
:1042800042F0400222804021224630460095FEF74F
:1042900045F96278022322F0640242F0440262701F
:1042A0003046224640210095FEF738F903B0F0BDB4
:1042B000883F00200080FFFF003E00202DE9F047EE
:1042C000B821002082B0FFF755FF4FF0B8094FF436
:1042D0009677384C384EDFF8E4806578022325F075
:1042E0007F052246402145F0640530460097657001
:1042F00084F80090FEF712F940216578022325F03A
:10430000640545F044052246304600978A466570AC
:10431000FEF704F92588022305EA080545F4ED4572
:104320002246402145F07F05304600972580FEF764
:10433000F5F86578022325F06405224640213046D1
:1043400045F0440500970AF1FF3A6570FEF7E6F87C
:104350001AF0FF0ADED14025B4F800C002230CEAAF
:10436000080C4CF4EB4C4CF07F0C224640213046BC
:104370000097A4F800C0FEF7D1F894F801C002231A
:104380002CF0640C4CF0440C22464021304600973F
:10439000013D84F801C0FEF7C1F815F0FF05DBD13F
:1043A00009F101095FFA89F9B9F1C00F95D102B09D
:1043B000BDE8F087883F0020003E00200080FFFF1E
:1043C0002DE9F047B821002082B0FFF7D3FE4FF06F
:1043D000B8094FF49677364C364EDFF8DC806578B6
:1043E000022325F07F052246402145F06405304632
:1043F0000097657084F80090FEF790F8402165788A
:10440000022325F0640545F0440522463046009716
:104410008A466570FEF782F82588022305EA0805BA
:104420002246402145F4EC45304600972580FEF7B2
:1044300075F86578022325F0640522464021304650
:1044400045F0440500970AF1FF3A6570FEF766F8FB
:104450001AF0FF0AE0D14025B4F800C002230CEAAC
:10446000080C4CF4EA4C2246402130460097A4F850
:1044700000C0FEF753F894F801C002232CF0640C3E
:104480004CF0440C2246402130460097013D84F810
:1044900001C0FEF743F815F0FF05DDD109F1010970
:1044A0005FFA89F9B9F1C00F99D102B0BDE8F08780
:1044B000883F0020003E00200080FFFF2DE9F04FE4
:1044C000B821002083B0FFF755FE4FF0B80A4FF433
:1044D0009676574C574DDFF860816778022327F0B6
:1044E0007F072246402147F0640728460096677000
:1044F00084F800A0FEF712F86778022327F064071B
:1045000022464021284647F04407009667704FF046
:104510002009FEF703F847F2AA6B2788022307EA6F
:104520000807224640214BEA0707284600962780C5
:10453000FDF7F4FF6778022327F064072246402145
:1045400047F04407284600966770FDF7E7FF278885
:10455000022307EA080747F4EC472246402147F0C8
:104560005507284600962780FDF7D8FF6778022375
:1045700027F0640722464021284647F0440700966A
:1045800009F1FF396770FDF7C9FF19F0FF09C4D1C0
:10459000202747F2AA59B4F800C002230CEA080CFD
:1045A00049EA0C0C2246402128460096A4F800C097
:1045B000FDF7B4FF94F801C002232CF0640C4CF01A
:1045C000440C224640212846009684F801C0FDF79D
:1045D000A5FFB4F800C002230CEA080C4CF4EA4C26
:1045E0004CF0550C2246402128460096A4F800C005
:1045F000FDF794FF94F801C002232CF0640C4CF0FA
:10460000440C2246402128460096013F84F801C010
:10461000FDF784FF17F0FF07BDD10AF1010A5FFA29
:104620008AFABAF1C00F7FF458AF03B0BDE8F08F3B
:10463000883F0020003E00200080FFFF2DE9F04F62
:10464000002785B0B8213846FFF794FDB8234FF412
:104650009675B846DFF81091DFF810B1444C03931B
:10466000A9F1400A9BF80160022326F07F0646F07C
:10467000640C039E5A464021204600958BF800604A
:104680008BF801C0FDF74AFF9BF80160022326F07A
:10469000640646F044065A464021204600958BF8B1
:1046A0000160FDF73BFFA9F17F0601E016F8017FED
:1046B0009BF801C05A462CF07F0C4CF0760C02237C
:1046C0004021204600958BF800708BF801C0FDF763
:1046D00025FF9BF80170022327F064075A4640210A
:1046E000204647F0440700958BF80170FDF716FF50
:1046F0005645DBD1A9F13F0601E016F8018F9BF882
:1047000001705A4627F07F070223402147F07507C2
:10471000204600958BF801708BF80080FDF7FEFEB7
:104720009BF80170022327F064075A464021204677
:1047300047F0440700958BF80170FDF7EFFE4E45FA
:10474000DBD1039B09F18009BF2B0AF1800A07D056
:104750000133DBB219F83F8C19F87F7C039381E7B2
:1047600005B0BDE8F08F00BF0F550008883F00205E
:10477000003E002010B5114C637843F08003637055
:10478000FFF75CFF4FF47A70FFF7FAF963786FF385
:10479000C7136370FFF792FE4FF47A70FFF7F0F9DA
:1047A000FFF78CFD4FF47A70FFF7EAF9FFF708FE88
:1047B000BDE810404FF47A70FFF7E2B9883F00205F
:1047C00008B5032811D8DFE800F00C080204FFF751
:1047D00075FDBDE80840FFF7F3BDBDE80840FFF7F1
:1047E0006DBEBDE80840FFF729BF08BD08B5FFF75B
:1047F00001FDFFF7BFFF04490448FFF77FFC4FF4BA
:10480000FA70FBF79BFDFAE7903F00209C3F0020E9
:1048100008B50021034A0448FBF72CFD034B186040
:1048200008BD00BF9C580008ED4700088C3F0020E1
:1048300003280ED8DFE800F00B0805020220FFF77E
:10484000BFBF0120FFF7BCBF0020FFF7B9BFFFF7D4
:1048500091BF704780B5BF4CBF4DC04F84B0082199
:104860002846FDF715FC0246237810219B1AB3FA5F
:1048700083F328465B098DF80A30FDF709FC0346EF
:1048800026782021F61AB6FA86F6284676098DF89B
:104890000960FDF7FDFB804694F800904FF400415D
:1048A000A8EB0903B3FA83F338465B098DF80830A7
:1048B000FDF7EEFB0246237864209B1AB3FA83F3DC
:1048C0005B098DF80B30FBF739FD08212846FDF711
:1048D000DFFB0246237810219B1AB3FA83F32846A4
:1048E0005B098DF80E30FDF7D3FB024623782021BB
:1048F0009B1AB3FA83F328465B098DF80D30FDF758
:10490000C7FB024623784FF400419B1AB3FA83F3A6
:1049100038465B098DF80C30FDF7BAFB86462378E4
:104920004FF0000CA3EB0E03B3FA83F304225B09F0
:1049300003A902A88DF80F30CDF804C000F026FAC4
:104940000190019B6BB9C8450FD0002E4AD19DF84C
:104950000A60012E00F084809DF80B60012E00F0AB
:10496000BD806420FBF7EAFC79E708212846FDF7C3
:104970008FFB0246237810219B1AB3FA83F3284653
:104980005B098DF80A30FDF783FB0346267820216A
:10499000F61AB6FA86F6284676098DF80960FDF70C
:1049A00077FB804694F800904FF40041A8EB090390
:1049B000B3FA83F338465B098DF80830FDF768FBDE
:1049C0000246237896209B1AB3FA83F35B098DF88D
:1049D0000B30FBF7B3FCC845C7D00120FFF728FF19
:1049E000002EB4D008212846FDF752FB0346267856
:1049F0001021F61AB6FA86F6284676098DF80A606E
:104A0000FDF746FB804694F800902021A8EB0903AF
:104A1000B3FA83F328465B098DF80930FDF738FBBC
:104A2000024623784FF400419B1AB3FA83F33846C9
:104A30005B098DF80830FDF72BFB024623789620A2
:104A40009B1AB3FA83F35B098DF80B30FBF776FC06
:104A5000C845C7D00220FFF7EBFE012E7FF47CAFE4
:104A600008212846FDF714FB804694F80090102199
:104A7000A8EB0903B3FA83F328465B098DF80A30E3
:104A8000FDF706FB0246237820219B1AB3FA83F335
:104A900028465B098DF80930FDF7FAFA02462378BB
:104AA0004FF400419B1AB3FA83F338465B098DF843
:104AB0000830FDF7EDFA034626789620F61AB6FA86
:104AC00086F676098DF80B60FBF738FCC845C7D031
:104AD0000320FFF7ADFE012E7FF443AF08212846E7
:104AE000FDF7D6FA0246237810219B1AB3FA83F316
:104AF00028465B098DF80A30FDF7CAFA024623788A
:104B000020219B1AB3FA83F328465B098DF80930FC
:104B1000FDF7BEFA024623784FF400419B1AB3FA20
:104B200083F338465B098DF80830FDF7B1FA064685
:104B300094F800809620A6EB0803B3FA83F35B0990
:104B40008DF80B30FBF7FAFB4645C7D00020FFF786
:104B50006FFE06E704400020000C01400008014001
:104B600008B50021034A0448FBF784FB034B186097
:104B700008BD00BFCC580008554800080840002078
:104B80002DE9F0473C211948FEF720FB47F6FF7955
:104B90004FF0000ADFF85480154D164F164E16E000
:104BA000C8BF01203B88D6BF02201B1803F1FF338A
:104BB0003B8000F0CDF833782C600133DBB2142B4E
:104BC00094BF337086F800A03220FBF7B7FBD8F80B
:104BD00000202B68546A013CC4F34E04A9EB040482
:104BE000A342DDD1002000F0B3F8EDE7F83E00204D
:104BF000144000200C4000201840002008B500217F
:104C0000034A0448FBF736FB034B186008BD00BF9E
:104C1000F0580008814B00081040002008B5002122
:104C2000034A0448FBF726FB034B186008BD00BF8E
:104C300014590008854C00082040002070B504235A
:104C4000012403260D4D84B0694628460093CDE922
:104C500001440396FDF75CF84FF4807369460848F9
:104C60000093CDE901440396FDF752F8002202219A
:104C70002846FDF71FFA04B070BD00BF000C0140CC
:104C80000008014008B5FFF7D9FF044C23880A202B
:104C900001332380FBF752FBF8E700BF1A400020E6
:104CA00070B5284D04462E78002E3ED022460421B1
:104CB0002548FDF7FFF99624244D4FF480712846CE
:104CC000FDF712FA42F6E06300BF013BFCD1013C64
:104CD000F3D195241D4D4FF480712846FDF704FA59
:104CE00041F2883300BF013BFCD1013CF3D1C72422
:104CF000164D4FF480712846FDF7F6F94FF4966390
:104D000000BF013BFCD1013CF3D140F2E7340F4D31
:104D10004FF480712846FDF7E7F94FF4487300BF60
:104D2000013BFCD1013CF3D170BD04212246064871
:104D3000FDF7C0F9324602210348FDF7BBF9012314
:104D40002B70B3E71C400020000C0140000801401C
:104D50000A4A03461178814204D0012809D002286A
:104D600003D000B170471070704701201370FFF737
:104D700097BF00201370FFF793BF00BF19400020BA
:104D8000014B1868704700BF14000020032A10B5BB
:104D900016D940EA010C1CF0030F04460B4622D141
:104DA00019462046D1F800E0D0F800C00433F4459D
:104DB00004F1040417D1043A032A20461946EFD817
:104DC000541EA2B100F1FF3C013901E0C3180CD020
:104DD0001CF801EF11F8012FA4EB0C039645F5D058
:104DE000AEEB020010BD541EECE7184610BD104695
:104DF00010BD00BF830730B548D0541E002A3FD0F5
:104E00000346CAB201E0013C3AD303F8012B9D07E7
:104E1000F9D1032C2DD9CDB245EA05250F2C45EA51
:104E2000054536D9A4F1100222F00F0C03F1200E33
:104E3000E6444FEA121C03F1100242E9045542E92C
:104E4000025510327245F8D10CF1010214F00C0F2A
:104E500003EB021204F00F0C13D0ACF1040323F0A7
:104E600003030433134442F8045B9342FBD10CF078
:104E700003042CB1CAB21C4403F8012B9C42FBD1A1
:104E800030BD64461346002CF4D1F9E703461446BE
:104E9000BFE71A46A446E0E72DE9F0410E680C464C
:104EA0000546BEB137688FB1D7F80080B8F1000F62
:104EB00008D0D8F8001009B1FFF7EEFF41462846A8
:104EC00000F0A6F83946284600F0A2F831462846F8
:104ED00000F09EF821462846BDE8F04100F098B861
:104EE000224B1B68834240D0C16C70B5054681B12E
:104EF00000268C593CB121462468284600F088F8E9
:104F0000002CF8D1E96C0436802EF2D1284600F04E
:104F10007FF8296C11B1284600F07AF8D5F848419D
:104F200054B105F5A676B44206D021462468284639
:104F300000F06EF8A642F8D1696D11B1284600F074
:104F400067F8AB6B83B12846EB6B9847D5F8E04226
:104F500054B1216811B12846FFF79EFF214628462B
:104F6000BDE8704000F054B870BD704714000020D8
:104F7000F8B50C46234F064600F04AF9BB685D6859
:104F8000C4F57E6325F003050F332B4423F47F63C0
:104F900023F00F03A3F58054B4F5805F07DB0021F5
:104FA000304600F041F9BB682B44984204D03046AB
:104FB00000F034F90020F8BD3046614200F034F9C9
:104FC00001300DD0104ABB682D1B45F001055D6016
:104FD000136830461B1B136000F020F90120F8BD58
:104FE0000021304600F020F9BA68831A0F2BDEDD6D
:104FF00043F001035360054B03491B68C01A086066
:10500000D5E700BF400400202840002048080020C9
:1050100000295ED0F8B50C46064600F0F9F854F8C1
:10502000042C784FA4F1080522F001016818D7F884
:1050300008C04368844523F0030300F08780D2074B
:10504000436034D454F8082C07F10804AD1A114415
:10505000AA68A24268D000EB030CDCF804E0D5F8A3
:105060000CC01EF0010FC2F80CC0CCF8082000F0F4
:10507000918041F001036B600160B1F5007F31D296
:105080004A09CB08012191407A68013311437960C4
:1050900007EBC30257F83310083AC5E9021247F884
:1050A0003350CD603046BDE8F84000F0B7B8C218C4
:1050B0005268D2070ED4194407F108048368A3424A
:1050C00070D0C268DA60936041F001036B60695090
:1050D000D3E7704741F00103B1F5007F44F8043C89
:1050E0000160CDD3B1F5206F4FEA512347D28B0930
:1050F00003F1390003F13802C300F818FB580838EF
:10510000984258D05A6822F003028A4202D99B681A
:105110009842F7D1D868C5E9023085603046DD6035
:10512000BDE8F84000F07AB8C2185268D20763D4DC
:105130000B44D0E90212CA60916043F001026A6038
:105140003046EB50BDE8F84000F068B80B44D1079A
:1051500007D454F8082CAD1A1344D5E90212CA60DA
:10516000916043F001026A60274ABD6012689A426A
:1051700098D8264B30461968FFF7FAFE92E7142BB1
:105180000AD9542B1FD80B0B03F16F0003F16E02E9
:10519000C300B2E7194491E703F15C0003F15B023D
:1051A000C300AAE741F00103C7E90455C5E9024479
:1051B0006B60695076E70121921001FA02F279687A
:1051C0000A437A60A7E7B3F5AA7F06D8CB0B03F1B1
:1051D000780003F17702C3008FE740F25452934204
:1051E00006D88B0C03F17D0003F17C02C30084E739
:1051F0004FF47E737E2280E741F001036B60016013
:1052000050E700BF400400204C0800205040002020
:10521000014800F01BB800BF54400020014800F0D6
:1052200017B800BF54400020002238B5064D044690
:1052300008462A60FEF786FE431C00D038BD2B6866
:10524000002BFBD0236038BD24400020704700BFF6
:04525000704700BFE4
:105254001E481F4A08B5904207D2013A121A22F09A
:1052640003021C490432FAF751FF1B481B4A9042BF
:1052740007D2013A121A22F0030200210432FFF786
:10528400B7FDFEF743FC164DFEF77EFE154B5B1B88
:10529400002B4FEAA30606DD002455F8043B013435
:1052A4009847A642F9DC104B104D5B1B002B4FEACC
:1052B400A30606DD002455F8043B01349847A642B2
:1052C400F9DCFEF743FDFBF7C3FFFEE70000002017
:1052D4005008002038590008500800205840002089
:1052E4003859000838590008385900083859000856
:1052F40049444C4500000000546D72510000000008
:10530400546D7220537663002E2E2F6D63752F68B3
:10531400616C2F7372632F73746D333266317878D6
:105324005F68616C5F636F727465782E6300000060
:105334002E2E2F6D63752F68616C2F7372632F731C
:10534400746D3332663178785F68616C5F67706959
:105354006F2E63002E2E2F6D63752F68616C2F7373
:1053640072632F73746D3332663178785F68616C61
:105374005F6932632E6300002E2E2F6D63752F68D4
:10538400616C2F7372632F73746D33326631787866
:105394005F68616C5F7263632E630000020304053F
:1053A400060708090A0B0C0D0E0F10100000000070
:1053B4002E2E2F6D63752F68616C2F7372632F739C
:1053C400746D3332663178785F68616C5F737069CD
:1053D4002E6300002E2E2F6D63752F68616C2F7362
:1053E40072632F73746D3332663178785F68616CE1
:1053F4005F74696D2E6300002E2E2F6D63752F6808
:10540400616C2F7372632F73746D333266317878E5
:105414005F68616C5F74696D5F65782E630000007E
:105424002E2E2F6D63752F68616C2F7372632F732B
:10543400746D3332663178785F68616C5F75617260
:10544400742E630064656661756C745461736B00DB
:1054540048540008000000000000000000000000A4
:10546400000000000001000018000000000000001F
:10547400000000000000000000000000010203041E
:1054840006070809000000000102030400000000F0
:105494000000000000000000000000000000000008
:1054A40000000000000000000000000000000000F8
:1054B40000000000000000000000000000000000E8
:1054C40000000000000000000000000000000000D8
:1054D40000000000000000000000000000000000C8
:1054E40000000000000000000000000000000000B8
:1054F40000000000000000000000000000000000A8
:105504000000000000000000000000008080808097
:105514008080808080808080808000000000000087
:105524000000808080808080808080808080808077
:10553400808000000000C0C0C0C000000000000067
:10554400000080C0C0C0C0C0000000000080808097
:105554008080808080808080808080808080C00087
:1055640000000000008080808080808080808080B7
:1055740000000000000000000080808080808080A7
:10558400808080808080808080C000000F0F0F0F9B
:10559400CFFFFF0F0F0F0F0F0F1FFFFFFCF00000D7
:1055A40000000F0F8FCFFF0F0F0F0F0F0F0F0F0FF5
:1055B4000F0F00000000FFFFFFFF00000000C0E02D
:1055C400F8FE3F0F0707070700000000000F0F0F4A
:1055D4000FCFFF0F0F0F0F0F0F0F0FFFFFFFFF0076
:1055E40000000000000F0F0FCFFFFF3F0F3FFFFF32
:1055F400F800000000000000000F0F8FCFFF070726
:10560400070707070707070707070000000000FF51
:10561400FFFFFF8080808080C0E0FFFFFF3F00002D
:10562400000000FCFFFFFFF0F0F0F0F0F0F0F000FD
:10563400000000000000FFFFFFFFF8F8FEFFFF0F6F
:105644000100000000000000000000000000000055
:10565400FFFFFF0000000000000000FFFFFFFF004D
:10566400000000000000E0FFFFFF030000000F7FC8
:10567400FFFEE00000000000000000FFFFFFF0F06C
:10568400F0F0F0F0F0E0E0E0C0800000000000FF87
:10569400FFFFFF07070707070707030100000000D4
:1056A400000000FFFFFFFF010000000000000000F9
:1056B400000000000000FFFFFFFF0101071F7FFF44
:1056C400FCF0C0800000000000000000000000802A
:1056D400FFFFFF0000000000000000FFFFFFFF00CD
:1056E40000000000E0FEFFFFFFF8F8F8F8F8F8FC0F
:1056F400FFFFFFFEC0000000000000FFFFFF0000EE
:1057040000000000000103FFFFFFFE300000007FE7
:105714007F7F7F0000000000000000000000000008
:105724000000007F7F7F7F7C7C7C7C7C7C7C7C7C1D
:105734007C7C000000007F7F7F7F00000000000071
:10574400030F3F7F7E7860400000000078787E7F02
:105754003F1F0300000000000000007F7F7F7F00E8
:105764000000407C7F7F0F0100000000000000006B
:1057740000013F7F7F7C00000000007F7F7F7E7EF2
:105784007E7E7E7E7E3E3F1F0F07010000000000EC
:105794000000000000000000000000000000000005
:1057A40000000000000000000000000000000000F5
:1057B40000000000000000000000000000000000E5
:1057C40000000000000000000000000000000000D5
:1057D40000000000000000000000000000000000C5
:1057E40000000000000000000000000000000000B5
:1057F40000000000000000000000000000000000A5
:105804000000000000000000000000000000000094
:105814000000000000000000000000000000000084
:105824000000000000000000000000000000000074
:105834000000000000000000000000000000000064
:105844000000000000000000000000000000000054
:105854000000000000000000000000000000000044
:105864000000000000000000000000000000000034
:105874000000000000000000000000000000000024
:105884000000000000000000000000006469737064
:105894006C61795461736B0090580008000000003B
:1058A40000000000000000000000000000020000F2
:1058B400180000000000000000000000627574740D
:1058C4006F6E735461736B00C058000800000000D1
:1058D4000000000000000000000000008000000044
:1058E400180000000000000000000000C05800087C
:1058F40000000000000000000000000000000000A4
:1059040080000000180000000000000000000000FB
:10591400C058000800000000000000000000000063
:1059240000000000800000002800000000000000CB
:04593400000000006F
:10593800AAAAAAAA3700000001000000100000006F
:105948000024F400180000200000000004030020D8
:105958006C030020D40300200000000000000000B9
:10596800000000000000000000000000000000002F
:10597800000000000000000000000000000000001F
:10598800000000000000000000000000000000000F
:1059980000000000000000000000000000000000FF
:1059A80000000000000000000000000000000000EF
:1059B80000000000000000000000000000000000DF
:1059C80000000000000000000000000000000000CF
:1059D80000000000000000000000000000000000BF
:1059E80000000000000000000000000000000000AF
:1059F80001000000000000000E33CDAB34126DE64C
:105A0800ECDE05000B0000000000000000000000B4
:105A1800000000000000000000000000000000007E
:105A2800000000000000000000000000000000006E
:105A3800000000000000000000000000000000005E
:105A4800000000000000000000000000000000004E
:105D78000000000000000000400400204004002053
:105D8800480400204804002050040020500400204B
:105D980058040020580400206004002060040020FB
:105DA80068040020680400207004002070040020AB
:105DB800780400207804002080040020800400205B
:105DC800880400208804002090040020900400200B
:105DD8009804002098040020A0040020A0040020BB
:105DE800A8040020A8040020B0040020B00400206B
