:020000040800F2
:100000000050002045590008A5480008A7480008EE
:10001000A9480008AB480008AD48000800000000EF
:100020000000000000000000000000007104000853
:10003000AF48000800000000110500085505000841
:10004000914400089144000891440008914400083C
:10005000914400089144000891440008914400082C
:10006000914400089144000891440008914400081C
:10007000914400089144000891440008914400080C
:1000800091440008914400089144000891440008FC
:1000900091440008914400089144000891440008EC
:1000A00091440008914400089144000891440008DC
:1000B00091440008B14800087553000891440008B5
:1000C00091440008914400089144000891440008BC
:1000D00091440008914400089144000891440008AC
:1000E0009144000891440008914400080000000079
:1000F0000000000000000000000000000000000000
:0C01000000000000000000005FF808F1A3
:10011000844641EA000313F0030349D1403A23D354
:100120000B6803604B6843608B688360CB68C36077
:100130000B6903614B6943618B698361CB69C3615F
:100140000B6A03624B6A43628B6A8362CB6AC36247
:100150000B6B03634B6B43638B6B8363CB6BC3632F
:1001600040304031403ADBD230320BD30B68036071
:100170004B6843608B688360CB68C360103010317C
:10018000103AF3D20C3205D351F8043B40F8043B4B
:10019000043AF9D2043208D0D2071CBF11F8013B4F
:1001A00000F8013B01D30B8803806046704700BF15
:1001B000082A13D38B07B1D010F00303AED0C3F1DC
:1001C0000403D21ADB071CBF11F8013B00F8013B06
:1001D000A4D331F8023B20F8023B9FE7043AD9D37D
:1001E000013A11F8013B00F8013BF9D20B7803709A
:1001F0004B7843708B78837060467047EFF30583CC
:1002000093B9EFF3108393B90C4B1868022804D00C
:1002100080B90A4B01221A607047EFF31183002B5B
:10022000F6D06FF0050070476FF0050070476FF073
:10023000050070474FF0FF30704700BF7802002084
:1002400008B5EFF30583B3B9EFF31083B3B90E4BE1
:100250001B68022B08D0012B13D10B4B02221A6012
:1002600001F08CF8002008BDEFF31182002AF2D0D3
:100270006FF00500F7E76FF00500F4E76FF0050099
:10028000F1E74FF0FF30EEE778020020F0B587B0DD
:1002900000240494EFF30584002C43D1EFF3108382
:1002A000002B3FD1334B1B68022B16D0002839D0CE
:1002B00000238DF8173062B3156895B1936903B9BF
:1002C00018235C1E372C51D8546814F0010F4FD1FD
:1002D00056694EB14FEA960C08E0EFF311830BBB61
:1002E000E4E70DF11705E9E74FF0800C94682CB1B5
:1002F000D7685B2F02D9176907B1B6B914B14FF0AF
:10030000FF340CE0D46894B914699CB14FF0FF3409
:1003100005E0002418234FF0800C0DF11705012C87
:100320000AD0ACB1049807B0F0BD0124F7E74FF054
:10033000FF34F4E70024F2E7146992680292019412
:1003400000930B466246294600F0A8FF0490E9E7B7
:1003500004AA019200930B461FFA8CF2294600F082
:10036000D8FF0128DED000230493DBE70020DAE782
:100370000020D8E77802002008B5EFF30583A3B981
:10038000EFF31083A3B90C4B1B68022B02D040B9CA
:10039000002008BDEFF31183002BF8D06FF00500AB
:1003A000F7E701F0ADF90020F3E76FF00500F0E7A3
:1003B0006FF00500EDE700BF78020020034B0360FB
:1003C000034B0B6080231360704700BF1C020020AA
:1003D0001C000020034B0360034B0B6020231360C1
:1003E000704700BFFC0200207C02002082B0002386
:1003F00001930D4B1B68B3F1FF3F08D04FF0500342
:1004000083F31188BFF36F8FBFF34F8FFEE74FF079
:10041000500383F31188BFF36F8FBFF34F8F019B9E
:10042000002BFCD002B07047000000200648006896
:10043000006880F3088862B661B6BFF34F8FBFF3E0
:100440006F8F00DF00BF000008ED00E04FF0807309
:1004500040F8043C21F0010140F8081C034B40F82F
:100460000C3C40F8202C4038704700BFED030008DA
:10047000074B19680868B0E8F00F80F30988BFF3EC
:100480006F8F4FF0000080F311884EF00D0E704713
:10049000A00300204FF0500383F31188BFF36F8F48
:1004A000BFF34F8F0B4A136801331360012B00D049
:1004B00070474FF0E023D3F8043D13F0FF0FF7D05F
:1004C0004FF0500383F31188BFF36F8FBFF34F8F4B
:1004D000FEE700BF00000020094B1B6843B94FF046
:1004E000500383F31188BFF36F8FBFF34F8FFEE785
:1004F000013B034A13600BB983F31188704700BFB7
:1005000000000020000000000000000000000000CB
:10051000EFF30980BFF36F8F0D4B1A6820E9F00FDE
:1005200010602DE908404FF0500080F3118801F071
:100530000DF94FF0000080F31188BDE808401968FC
:100540000868B0E8F00F80F30988BFF36F8F704739
:10055000A003002008B54FF0500383F31188BFF3C8
:100560006F8FBFF34F8F00F069FF28B14FF0E0238A
:100570004FF08052C3F8042D002383F3118808BD87
:100580004FF0E022002313619361054B1B6805497E
:10059000A1FB03139B09013B5361072313617047C0
:1005A00010000020D34D621010B582B02A4B1A788B
:1005B000D2B20192FF221A701B78DBB28DF80330A1
:1005C0009DF8033003F05003244A1370244B072294
:1005D0001A6009E0224A1368013B13609DF803305A
:1005E0005B00DBB28DF803309DF8033013F0800F11
:1005F000F0D11B4B1B68032B08D04FF0500383F343
:100600001188BFF36F8FBFF34F8FFEE71B02144AB1
:10061000136003F4E0631360019BDBB20E4A1370B6
:100620004FF0E023D3F8202D42F47002C3F8202DC0
:10063000D3F8202D42F07042C3F8202DFFF7A0FF21
:100640000024084B1C60FFF7F1FE01F07FF8FFF774
:10065000CDFE204602B010BD00E400E058030020AB
:100660005C03002000000020EFF305830F2B0FD95F
:10067000114A9B5CDBB2114A12789A4208D94FF0BA
:10068000500383F31188BFF36F8FBFF34F8FFEE7E3
:100690004FF0E023D3F80C3D03F4E063084A1268FE
:1006A000934208D94FF0500383F31188BFF36F8F43
:1006B000BFF34F8FFEE77047F0E300E058030020E0
:1006C0005C03002000F1080343604FF0FF328260BA
:1006D000C360036100230360704700230361704718
:1006E00030B40D68B5F1FF3F11D000F108031C468E
:1006F0005B681A68AA42FAD963684B6099608C609B
:100700006160086103680133036030BC70470469AD
:10071000F2E70369416882688A60416851605A68FB
:10072000824206D0002202611A68013A1A601868F3
:10073000704782685A60F5E70346406A18B11B6B40
:100740001868C0F13800704710B50446FFF7A2FEE4
:10075000A26BE36B9A4204D00024FFF7BDFE204653
:1007600010BD0124F9E710B50446FFF793FEA36B13
:1007700023B90124FFF7B0FE204610BD0024F9E79D
:1007800070B504461546866B026C5AB903681BB1F6
:1007900000200136A66370BD806801F09FF9002338
:1007A000A360F6E76DB94068FFF7B2FC226C63689E
:1007B00013446360A268934219D323686360284698
:1007C000E7E7C068FFF7A4FC226C5142E3689B1A7C
:1007D000E3602268934202D2A3680B44E360022DD7
:1007E00001D00020D5E726B1013E0020D1E7284600
:1007F000CFE70020CDE708B50346026C62B108469A
:10080000D9681144D960D3F808C0614501D319688B
:10081000D960D968FFF77CFC08BD38B50546FFF7FD
:1008200039FE95F8454064B201E0013C64B2002C09
:100830000ADD6B6A43B105F1240001F013F80028CA
:10084000F3D001F0D7F8F0E7FF2385F84530FFF744
:1008500043FEFFF71FFE95F8444064B201E0013CFF
:1008600064B2002C0ADD2B6943B105F1100000F0E1
:10087000F9FF0028F3D001F0BDF8F0E7FF2385F879
:100880004430FFF729FE38BD38B590B10D46044617
:10089000C36B2BB1026C0021A3FB022393B999B166
:1008A0004FF0500383F31188BFF36F8FBFF34F8F67
:1008B000FEE74FF0500383F31188BFF36F8FBFF350
:1008C0004F8FFEE70121EAE7FFF7E4FD2368E26BC3
:1008D000216C01FB0230A0600020A0636360013A3C
:1008E00002FB0133E360FF2384F8443084F8453091
:1008F000B5B923691BB9FFF7EFFD012038BD04F13D
:10090000100000F0AFFF0028F5D04FF0E0234FF0CB
:100910008052C3F8042DBFF34F8FBFF36F8FEAE708
:1009200004F11000FFF7CEFE04F12400FFF7CAFE29
:10093000E1E738B51D46049C0B4649B92460E063E5
:10094000236401212046FFF79FFF84F84C5038BDF7
:100950002260F4E7A3B110B584B01C46D8B102B14F
:10096000C9B1B2B150230393039B502B1CD04FF05D
:10097000500383F31188BFF36F8FBFF34F8FFEE7F0
:100980004FF0500383F31188BFF36F8FBFF34F8F86
:10099000FEE70029E6D04FF0500383F31188BFF340
:1009A0006F8FBFF34F8FFEE7039B012384F8463020
:1009B00000949DF81830FFF7BCFF204604B010BD2E
:1009C000F0B583B060B10C46174605460023A0FB86
:1009D000041272B923B904FB05F010F1510F0AD9C2
:1009E0004FF0500383F31188BFF36F8FBFF34F8F26
:1009F000FEE70123EEE7503001F04EFC064650B111
:100A0000002380F8463000903B4600F1500221461A
:100A10002846FFF78EFF304603B0F0BDF0B585B035
:100A2000019288B10F461D460446B1B1022D20D176
:100A3000E36B012B1DD04FF0500383F31188BFF3FC
:100A40006F8FBFF34F8FFEE74FF0500383F3118892
:100A5000BFF36F8FBFF34F8FFEE7036C002BE5D022
:100A60004FF0500383F31188BFF36F8FBFF34F8FA5
:100A7000FEE700F0CBFF064658B9019B002B48D09B
:100A80004FF0500383F31188BFF36F8FBFF34F8F85
:100A9000FEE700263DE02A4639462046FFF770FE75
:100AA000636A7BB948B14FF0E0234FF08052C3F83E
:100AB000042DBFF34F8FBFF36F8FFFF70DFD0120A4
:100AC00005B0F0BD04F1240000F0CCFE0028F4D005
:100AD0004FF0E0234FF08052C3F8042DBFF34F8F47
:100AE000BFF36F8FE9E7FFF7F7FC0020E8E702A804
:100AF00000F030FF012619E0002384F8443021E0A3
:100B0000002384F8453023E02046FFF786FE00F0FE
:100B100051FDFFF7BFFCA26BE36B9A42BBD3022DE2
:100B2000B9D0019B002BDED0002EE0D0FFF7D4FC23
:100B300000F076FCFFF7AEFC94F8442052B2B2F11C
:100B4000FF3FD9D094F8452052B2B2F1FF3FD7D041
:100B5000FFF7C2FC01A902A800F008FFD8B920469F
:100B6000FFF7F2FD0028CFD0019904F1100000F04A
:100B700037FE2046FFF751FE00F01CFD0028C8D1CB
:100B80004FF0E0234FF08052C3F8042DBFF34F8F96
:100B9000BFF36F8FBDE72046FFF73FFE00F00AFD71
:100BA00000208DE7F0B585B0019290B10F46044664
:100BB000C1B100F02BFF064600BB019B002B5ED0AD
:100BC0004FF0500383F31188BFF36F8FBFF34F8F44
:100BD000FEE74FF0500383F31188BFF36F8FBFF32D
:100BE0004F8FFEE7036C002BE3D04FF0500383F3ED
:100BF0001188BFF36F8FBFF34F8FFEE700263EE0F3
:100C000039462046FFF7F7FD013DA563236923B967
:100C1000FFF762FC012005B0F0BD04F1100000F008
:100C200021FE0028F4D04FF0E0234FF08052C3F8AB
:100C3000042DBFF34F8FBFF36F8FE9E7FFF74CFC35
:100C40000020E8E702A800F085FE012621E000234D
:100C500084F8443029E0002384F845302BE0204616
:100C6000FFF7DBFD00F0A6FC09E02046FFF7D5FD0D
:100C700000F0A0FC2046FFF776FD00283FD1FFF7EB
:100C800009FCA56B002DBBD1019B002BD6D0002EFB
:100C9000D8D0FFF721FC00F0C3FBFFF7FBFB94F873
:100CA00044305BB2B3F1FF3FD1D094F845305BB232
:100CB000B3F1FF3FCFD0FFF70FFC01A902A800F06E
:100CC00055FE0028D1D12046FFF74DFD0028C6D0A3
:100CD000019904F1240000F083FD2046FFF79DFDFB
:100CE00000F068FC0028CAD14FF0E0234FF080529A
:100CF000C3F8042DBFF34F8FBFF36F8FBFE7002002
:100D000089E770B584B0019158B10446036C8BB18A
:100D10004FF0500383F31188BFF36F8FBFF34F8FF2
:100D2000FEE74FF0500383F31188BFF36F8FBFF3DB
:100D30004F8FFEE700F06AFE054650B9019B5BB19C
:100D40004FF0500383F31188BFF36F8FBFF34F8FC2
:100D5000FEE70026354655E0064653E0013BA36317
:100D600023683BB123694BB9FFF7B6FB0126304638
:100D700004B070BD00F066FFA060F3E704F110005E
:100D800000F070FD0028EFD04FF0E0234FF08052CC
:100D9000C3F8042DBFF34F8FBFF36F8FE4E746B165
:100DA0004FF0500383F31188BFF36F8FBFF34F8F62
:100DB000FEE7FFF791FBDAE702A800F0CBFD012583
:100DC0002AE0002384F8443032E0002384F84530E0
:100DD00034E0FFF75FFBA06800F028FE0646FFF74F
:100DE0007BFB3BE02046FFF718FD00F0E3FB09E04A
:100DF0002046FFF712FD00F0DDFB2046FFF7B3FCB5
:100E0000002842D1FFF746FBA36B002BA6D1019B24
:100E1000002BC4D0002DCFD0FFF75EFB00F000FB0D
:100E2000FFF738FB94F844305BB2B3F1FF3FC8D012
:100E300094F845305BB2B3F1FF3FC6D0FFF74CFBEF
:100E400001A902A800F092FD0028D1D12046FFF7A9
:100E50008AFC0028C6D02368002BBAD0019904F17F
:100E6000240000F0BDFC2046FFF7D7FC00F0A2FBF9
:100E70000028C7D14FF0E0234FF08052C3F8042D73
:100E8000BFF34F8FBFF36F8FBCE70EB900266EE73D
:100E9000FFF700FB2046FFF74FFC0146A06800F07B
:100EA00073FEFFF719FBF1E730B110B40C460146B1
:100EB0008CB10020034611E04FF0500383F31188FA
:100EC000BFF36F8FBFF34F8FFEE70E4800EBC300F9
:100ED00008B10460416010BC70470133072BF7D89C
:100EE000084A02EBC30252688A42EED00028F4D1CD
:100EF000044A52F83320002AEFD1024800EBC30025
:100F0000EBE700BF6003002070B504460D461646AF
:100F1000FFF7C0FA94F844305BB2B3F1FF3F0DD055
:100F200094F845305BB2B3F1FF3F0BD0FFF7D4FA32
:100F3000A36B5BB12046FFF770FC70BD002384F803
:100F40004430EDE7002384F84530EFE73246294688
:100F500004F1240000F05CFCECE70000074B1B6888
:100F60001B6823B9064B4FF0FF321A607047034BE2
:100F70001B68DB681A68024B1A607047A4030020E4
:100F80004C0800202DE9F84380460C461646994649
:100F9000089F0A9D9200A521286B04F081FC2A6B12
:100FA00006F18043013B02EB830323F00706C4B143
:100FB00000220F2A07D8A15CAB1883F83410A15C7B
:100FC00009B10132F5E7002385F84330372F0CD9FA
:100FD0004FF0500383F31188BFF36F8FBFF34F8F30
:100FE000FEE7002385F83430F0E7EF62EF64002479
:100FF0002C65281DFFF771FB05F11800FFF76DFB4D
:101000002D61C7F13807AF616D626C6585F8584096
:101010004A4641463046FFF719FA2860099B03B15A
:101020001D60BDE8F883000038B5002407E004EB3C
:10103000840293000E481844FFF744FB0134372C18
:10104000F5D90C4D2846FFF73DFB0B4C2046FFF72A
:1010500039FB0A48FFF736FB0948FFF733FB09481D
:10106000FFF730FB084B1D60084B1C6038BD00BF0C
:10107000AC0300202008002034080020580800207D
:101080008408002070080020A4030020A80300208A
:1010900010B50446FFF7FEF9294A136801331360BF
:1010A000284B1B685BB1284B1B686BB9254B1B6831
:1010B000DA6AE36A9A4207D8224B1C6004E0214BAB
:1010C0001C601368012B37D0204A1368013313606A
:1010D0006364E36A1E4A1268934201D91C4A136092
:1010E0001C4A03EB830302EB83035B68A3609868ED
:1010F000E060211D41609960E36A03EB8301880091
:1011000002EB81016161115801311150FFF7E4F9DF
:101110000D4B1B687BB10B4B1B68DA6AE36A9A4282
:1011200009D24FF0E0234FF08052C3F8042DBFF3F3
:101130004F8FBFF36F8F10BDFFF776FFC4E700BF7F
:101140000C080020A00300206C08002018080020D4
:101150001C080020AC03002010B5044690F859305C
:1011600063B1012B11D0022B0ED04FF0500383F34B
:101170001188BFF36F8FBFF34F8FFEE7006B01F055
:1011800013F9204601F010F910BD01F00DF9FBE74D
:101190000F4B1B68D3B110B5FFF77CF90D4BDB6823
:1011A000DC68201DFFF7B5FA0B4A1368013B13609A
:1011B000074A1368013B1360FFF78EF92046FFF7DB
:1011C000CBFF034B1B68002BE6D110BD704700BF5F
:1011D00010080020840800200C08002008B5FFF744
:1011E000D7FF074B1B68012BF9D94FF0E0234FF0D5
:1011F0008052C3F8042DBFF34F8FBFF36F8FEEE71C
:10120000AC03002070B504460D461E4B1E681E4BF5
:1012100018680430FFF77DFAB4F1FF3F0DD0344475
:10122000194B1B685C60A6421DD9184B1868164BF9
:1012300019680431FFF754FA70BD002DEFD0144A3D
:101240005168114B1868816018688C68C460186810
:10125000043060601868043088601B685A61136845
:1012600001331360E8E70B4B1868074B196804312A
:10127000FFF736FA084B1B68A342DDD9064B1C600A
:10128000DAE700BF98080020A0030020A803002090
:1012900070080020A40300204C08002030B587B05F
:1012A0000B9C7CB10C9DB5B15C250495049D5C2D17
:1012B0001AD04FF0500383F31188BFF36F8FBFF341
:1012C0004F8FFEE74FF0500383F31188BFF36F8F0A
:1012D000BFF34F8FFEE74FF0500383F31188BFF346
:1012E0006F8FBFF34F8FFEE7049D0C9D2C6302248C
:1012F00085F8594000240394029505AC01940A9C9A
:101300000094FFF73FFE0C98FFF7C2FE059807B068
:1013100030BD2DE9F04385B00746884614461E4689
:10132000900000F0B9FF00B381465C2000F0B4FFEC
:101330000546B0B1C0F83090E5B1002385F85930CA
:10134000039302950D9B01930C9B00933346224619
:1013500041463846FFF716FE2846FFF799FE012062
:1013600005E0484601F020F8E6E74FF0FF3005B011
:10137000BDE8F0834FF0FF30F9E7000010B588B00A
:1013800000240594069407AA06A905A8FFF716F8F5
:10139000059B0293069B019300942346079A1949E3
:1013A0001948FFF77BFF194B186050B100F0E0FEC1
:1013B000012808D0B0F1FF3F1AD0154B1B6808B0C8
:1013C00010BD0020F4E74FF0500383F31188BFF302
:1013D0006F8FBFF34F8F0F4B4FF0FF321A600E4BE2
:1013E00001221A600D4B00221A60FFF7DDF8E4E7D6
:1013F0004FF0500383F31188BFF36F8FBFF34F8F0C
:10140000FEE700BFD4590008DD110008480800209D
:10141000040000204C0800206C08002098080020E0
:10142000024A136801331360704700BF140800209C
:10143000014B1868704700BF98080020524B1B688A
:10144000002B40F0998070B5504B1C6801341C6033
:10145000C4B94F4B1B681B6843B14FF0500383F373
:101460001188BFF36F8FBFF34F8FFEE7484A1168B3
:10147000484B186810601960474A136801331360BD
:10148000FFF76CFD454B1B68A34210D90020444B6D
:101490001B68DB6A03EB83039A00424B9B58012BCA
:1014A00000D90120404B1B68002B6BD170BD002080
:1014B00037E03A4B4FF0FF321A60E8E7374B1A60DB
:1014C000E5E7D968516042E000219962116801396D
:1014D0001160DA6A354909688A4201D933490A60DC
:1014E000304902EB82024FEA820C8C44DCF8042083
:1014F0009A609668DE6075609560DA6A02EB820C2D
:101500004FEA8C054E195E614D5901354FEA8C0C3E
:1015100041F80C50DA6A224B1B68DB6A9A4200D30E
:1015200001201B4B1B681B68002BC2D0184B1B688B
:10153000DB68DB685A689442C0D35A699D68D968F1
:10154000A9609D684D6051681D1DA942B9D0002158
:1015500059611168013911609A6A002AB9D0DE69AF
:10156000196AB160DE694E60566803F118018E4257
:10157000AAD1196A5160A7E70D4A136801331360B5
:1015800000207047012091E71408002098080020EF
:10159000A4030020A8030020500800204C080020CD
:1015A000A0030020AC0300209C0800201C080020A1
:1015B000540800204A4B1B6843B94FF0500383F393
:1015C0001188BFF36F8FBFF34F8FFEE710B5FEF7A3
:1015D00061FF434B1A68013A1A601B68002B7AD1ED
:1015E000404B1B683BB9002476E0196A516015E056
:1015F000D968516021E000233B4A1268002A47D095
:10160000394BDB68DB689A6AD869196A8160D869E6
:101610004860506803F118018842E6D000219962C1
:101620001168013911605A699868D96881609868B1
:1016300048605168181D8142DAD000215961116853
:1016400001391160DA6A294909688A4201D92749B2
:101650000A60274902EB820201EB820252689A601B
:101660009468DC6060609060DA6A02EB820084005B
:1016700001EB80005861085901300851D96A1D4AB0
:101680001268D26A9142B7D31B4A01211160B3E7B5
:101690000BB1FFF763FC194B1C6884B9164B1C682F
:1016A000D4B14FF0E0234FF08052C3F8042DBFF3C4
:1016B0004F8FBFF36F8F01240EE0013C07D0FFF77F
:1016C000BDFE0028F9D00C4B01221A60F5E70B4B48
:1016D00000221A60E2E70024FEF7FEFE204610BD5D
:1016E000140800200C080020580800201C080020C6
:1016F000AC030020A00300209C0800205408002018
:1017000010B5A8B10446104B1B6843B14FF050030D
:1017100083F31188BFF36F8FBFF34F8FFEE7FFF79F
:101720007FFE00212046FFF76DFDFFF743FF48B91C
:101730004FF0E0234FF08052C3F8042DBFF34F8FDA
:10174000BFF36F8F10BD00BF140800201F4B1B6834
:101750001BB11F4B01221A6070471D4B00221A60FB
:101760001C4B1B6803EB83018A001B498A585AB93A
:101770000BB1013BF6E74FF0500383F31188BFF341
:101780006F8FBFF34F8FFEE703EB830082000A44A5
:1017900050684068506003EB830C4FEA8C020832BB
:1017A000114488420BD003EB830291000A4A0A4499
:1017B0005268D168094A1160064A13607047406850
:1017C00062469100044A0A445060ECE71408002085
:1017D0009C0800201C080020AC030020A00300206F
:1017E00058B110B50C46094A11681831FEF778FF58
:1017F00001212046FFF706FD10BD4FF0500383F393
:101800001188BFF36F8FBFF34F8FFEE7A003002057
:1018100038B5D8B18C46114605464268104B186859
:10182000C2611868946804621868183060601868AB
:10183000183090601B689D622B6801332B6009B1E2
:101840004FF0FF3C6046FFF7DDFC38BD4FF0500322
:1018500083F31188BFF36F8FBFF34F8FFEE700BF95
:10186000A0030020C368DB68002B4AD010B49A6A3A
:10187000D869196A8160D8694860516803F1180015
:10188000814247D0002199621168013911602B4AC9
:101890001268002A44D15A699868D96881609868AA
:1018A00048605168181D814237D000215961116884
:1018B00001391160DA6A224909688A4201D920494E
:1018C0000A60204902EB820201EB820252689A60B0
:1018D0009468DC6060609060DA6A02EB82008400E9
:1018E00001EB80005861085901300851DA6A164B43
:1018F0001B68DB6A9A421FD90120144B186010BC88
:1019000070474FF0500383F31188BFF36F8FBFF31D
:101910004F8FFEE7196A5160B4E7D9685160C4E798
:101920000B4A5168D9618C681C62606088609A6259
:10193000116801311160D9E70020E0E714080020A8
:101940001C080020AC030020A00300209C080020FD
:1019500058080020034B1B680360034B1B6843605F
:10196000704700BF5008002098080020C8B170B52B
:101970000C460546F1B1FEF78DFD1C4B19686B68EE
:10198000C81A2268B2F1FF3F2BD0194E3668D5F83D
:1019900000C0B44517D08B4215D800232360012422
:1019A00020E04FF0500383F31188BFF36F8FBFF334
:1019B0004F8FFEE74FF0500383F31188BFF36F8F13
:1019C000BFF34F8FFEE7824203D800232360012438
:1019D00008E05B1A134423602846FFF7BBFF00248E
:1019E00000E00024FEF778FD204670BD9808002036
:1019F00050080020014B01221A6070479C0800200B
:101A0000014B1868704700BFA0030020054B1B68FE
:101A100033B1054B1B680BB10020704702207047A3
:101A2000012070476C0800201408002000284BD0CB
:101A300038B50446C36A264A1268D26A93423BD23A
:101A40008269002A05DB224A1268D26AC2F1380292
:101A50008261616903EB83031E4A02EB83039942AF
:101A600005D01B4B1B68DB6AE362012038BD251DD6
:101A70002846FEF74EFE164B1B68DB6AE362164AE9
:101A80001268934201D9144A1360124A03EB83038C
:101A900002EB83035B68A3609968E1604D609D6021
:101AA000E36A03EB8301880002EB81016161115855
:101AB000013111500120D9E7C26C054B1B68DB6A6C
:101AC0009A4203D30020D1E7002070470120CDE7E0
:101AD000A0030020AC0300201C080020002848D0F0
:101AE00038B50446254B1B68834208D04FF050039D
:101AF00083F31188BFF36F8FBFF34F8FFEE7036D42
:101B000043B94FF0500383F31188BFF36F8FBFF3D6
:101B10004F8FFEE7013B0365C16AC26C91422AD038
:101B20000BB1002038BD051D2846FEF7F2FDE36C21
:101B3000E362C3F13802A261114A1268934201D9EB
:101B40000F4A13600F4A03EB830302EB83035B68C6
:101B5000A3609968E1604D609D60E36A03EB8301D7
:101B6000880002EB8101616111580131115001209F
:101B7000D8E7002070470020D4E700BFA003002072
:101B80001C080020AC030020002853D038B50446C0
:101B9000036D43B94FF0500383F31188BFF36F8F88
:101BA000BFF34F8FFEE7C26C8A4200D20A46E16A59
:101BB000914201D0012B00D038BD1F4B1B68A342BE
:101BC0002FD0E262A369002B02DBC2F13802A261CE
:101BD000626901EB8101194B03EB81018A42EBD170
:101BE000251D2846FEF795FDE36A154A12689342C3
:101BF00001D9134A1360114A03EB830302EB8303F9
:101C00005B68A3609968E1604D609D60E36A03EBE7
:101C10008301880002EB810161611158013111508B
:101C2000CAE74FF0500383F31188BFF36F8FBFF300
:101C30004F8FFEE7704700BFA0030020AC030020D9
:101C40001C080020054B1B6823B1044B1A68136D58
:101C500001331365014B1868704700BFA0030020D3
:101C600040B14FF0500383F31188BFF36F8FBFF380
:101C70004F8FFEE770B50E4614460546FEF70AFC88
:101C8000214B1B6805F1140203EB82035B6833B937
:101C90001D4B1B682B44012283F85820E4B9FEF742
:101CA0001BFCFEF7F7FB184B1B6805F1140203EB56
:101CB00082035C6834B1F6B1134B1B6803EB8203FB
:101CC00000225A60104B1B681D44002385F85830D1
:101CD000FEF702FC204670BD11462046FFF792FA3F
:101CE0004FF0E0234FF08052C3F8042DBFF34F8F25
:101CF000BFF36F8FD3E7044B1B68621E05F114011D
:101D000003EB81035A60DDE7A003002068B170B5E2
:101D10000C461546064689B14FF0500383F31188EF
:101D2000BFF36F8FBFF34F8FFEE74FF0500383F386
:101D30001188BFF36F8FBFF34F8FFEE7FEF794FC60
:101D4000EFF311804FF0500383F31188BFF36F8FCF
:101D5000BFF34F8F331993F85820D2B2022183F882
:101D6000581004F1140306EB8303596801315960DC
:101D7000012A02D080F3118870BDB36A43B14FF0DD
:101D8000500383F31188BFF36F8FBFF34F8FFEE7CC
:101D9000264B1B68002B3BD17369B268F1689160D8
:101DA000F268B16851605A68311D8A422DD0002214
:101DB00072611A68013A1A60F36A1D4A1268934206
:101DC00001D91B4A13601B4A03EB830302EB830315
:101DD0005B68B3609C68F46061609960F36A03EBD0
:101DE00083018C0002EB81017161115901311151A4
:101DF000F26A114B1B68DB6A9A42BBD90DB1012311
:101E00002B600E4B01221A60B4E7F2685A60CEE7ED
:101E10000B4B5A68F2619468346206F118016160F4
:101E20009160B3621A6801321A60E1E71408002079
:101E30001C080020AC030020A00300209C08002008
:101E400058080020064B1A6813682BB90123036059
:101E500023B9D368186870470023F8E7002070475B
:101E6000A008002008B54160006191420CD8D21A48
:101E700083699A4201D3012008BD011D094B1868EE
:101E8000FEF72EFC0020F7E79A4201D2994206D2D3
:101E9000011D054B1868FEF723FC0020ECE701202C
:101EA000EAE700BFA4080020A008002070B504469F
:101EB0000D46164604E0A3691D44236A2046984750
:101EC000A1692B46324629442046FFF7CBFF002864
:101ED000F1D170BD70B505460E460D4B1B68DB6831
:101EE000DC68201DFEF715FC94F8283013F0040F71
:101EF00007D123F0010384F82830236A204698474D
:101F000070BD324629462046FFF7D0FFF5E700BFF7
:101F1000A008002008B505E0DB684FF0FF31186825
:101F2000FFF7D8FF054B1B681A68002AF4D1044A52
:101F3000106802490860136008BD00BFA0080020B7
:101F4000A408002038B50546FFF772FA0446074B8F
:101F50001B68834205D800232B60044B1C6020467D
:101F600038BDFFF7D7FF01232B60F6E7700900208B
:101F700070B582B006460C46FFF752FA01A8FFF78B
:101F8000E1FF019B33BB05460CB9B04219D224B125
:101F9000124A12681268DAB901242246711B104BEA
:101FA0001868FEF7B1FFFFF705FBA8B94FF0E02373
:101FB0004FF08052C3F8042DBFF34F8FBFF36F8FE4
:101FC0000AE0FFF7F7FA29463046FFF783FF03E000
:101FD0001C46E2E7FFF7EEFA02B070BDA40800204D
:101FE000C409002030B587B002E0029B002B0FDA55
:101FF000002202A93B4B1868FEF7D4FD00286ED0E2
:10200000029B002BF1DA05990498039B9847ECE7B3
:10201000049C636913B1201DFEF77BFB01A8FFF749
:1020200091FF0546029B013B082BE1D8DFE803F056
:102030000505293049050529300094F8283043F07A
:10204000010384F82830039BA16902461944204605
:10205000FFF708FF0028CBD094F8283013F0040FC6
:1020600007D123F0010384F82830236A20469847DB
:10207000BEE7A3692A46039919442046FFF716FFD5
:10208000F3E794F8283023F0010384F82830AFE711
:1020900094F8283043F0010384F828300399A161B3
:1020A00031B10346024601442046FFF7DBFE9FE7BD
:1020B0004FF0500383F31188BFF36F8FBFF34F8F3F
:1020C000FEE794F8283013F0020F04D023F0010348
:1020D00084F828308CE7204600F066F988E707B0DE
:1020E00030BD00BFC409002000B583B001A8FFF7D0
:1020F000A9FE0199FFF73CFFFFF774FFF6E7000028
:1021000030B583B0FEF7C6F9114B1B681BB1FEF763
:10211000E3F903B030BD0F4D2846FEF7D3FA0E4C5D
:102120002046FEF7CFFA0D4B1D600D4B1C600023BF
:1021300000930C4B0C4A10210A20FEF70BFC044BB9
:1021400018600028E3D00949FEF7AEFEDFE700BFC4
:10215000C4090020480900205C090020A0080020D4
:10216000A408002074090020A8080020DC590008F9
:1021700010B588B0FFF7C4FF124B1B68CBB1002429
:102180000594069407AA06A905A8FEF723F9059B5E
:102190000293069B0193022300932346079A0A4960
:1021A0000A48FFF77BF80A4B186010B1012008B00D
:1021B00010BD4FF0500383F31188BFF36F8FBFF34F
:1021C0004F8FFEE7C4090020E4590008E920000809
:1021D000C8090020124A12F0070F1ED0D11D21F0AD
:1021E0000701C1F5706313440A460E4802600021DE
:1021F00041601344083B23F007030B480360596018
:102200001960991A51601360084B1960084B1960E6
:10221000084B4FF000421A6070474FF47063E4E7D8
:10222000D0090020E4180020CC090020D818002094
:10223000D4180020D0180020154B1A461B68834282
:10224000FBD3516802EB010C844509D0416800EBD7
:10225000010C634509D00360904218D010607047AC
:102260004068014451601046F0E710B4094C2468FE
:10227000A3420AD05B681944416013681B6803607D
:10228000904200D0106010BC70470460F8E77047BF
:10229000E4180020CC09002038B50446FFF7C0F848
:1022A0003B4B1B68DBB13B4B1B681C4255D1631E8B
:1022B00013F10A0F53D804F1080214F0070F05D0E8
:1022C00022F007030833934258D91A46002A57D000
:1022D000314B1B68934255D330490C6804E0FFF73B
:1022E00079FFE0E721461C466368934202D22368E7
:1022F000002BF7D1264B1B68A34245D00D6808354B
:1023000023680B6063689B1A102B10D9A01810F07B
:10231000070F08D04FF0500383F31188BFF36F8F7E
:10232000BFF34F8FFEE743606260FFF785FF62688F
:1023300019490B689B1A0B60194909688B4201D235
:1023400017490B60134B1B68134363600023236022
:10235000144A13680133136002E0002500E00025F1
:10236000FFF728F915F0070F10D04FF0500383F353
:102370001188BFF36F8FBFF34F8FFEE70025EFE7A4
:102380000025EDE70025EBE70025E9E7284638BD05
:10239000CC090020D0180020D4180020E418002018
:1023A000D8180020DC180020002834D038B50446A6
:1023B000A0F1080550F8043C174A1268134208D1EE
:1023C0004FF0500383F31188BFF36F8FBFF34F8F2C
:1023D000FEE750F8081C41B14FF0500383F3118819
:1023E000BFF36F8FBFF34F8FFEE723EA020340F87E
:1023F000043CFFF715F854F8041C084A13680B4412
:1024000013602846FFF718FF054A1368013313606D
:10241000FFF7D0F838BD7047D0180020D41800203E
:10242000E0180020014B1868704700BFD418002046
:1024300008B5074A136843F010031360032000F047
:102440001BF80F2002F0F0F902F0C4F9002008BDDB
:1024500000200240034A1168034B1B780B441360B1
:10246000704700BFEC18002008000020014B1868DE
:10247000704700BFEC18002010B50446C31E042BA3
:102480000FD80A4AD36823F4E0631B041B0C240210
:1024900004F4E064234343F0BF6343F40033D360A8
:1024A00010BD9221024802F038F9EAE700ED00E0A1
:1024B000EC59000870B505460C4616460F2A25D87B
:1024C0000F2C28D81B4BDB68C3F30223C3F1070191
:1024D000042928BF04211A1D062A21D9033B4FF0E5
:1024E000FF3202FA01F124EA01049C4002FA03F3EC
:1024F00026EA03063443002D14DB2401E4B205F17F
:10250000604505F5614585F8004370BDAA210A487C
:1025100002F003F9D4E7AB21074802F0FEF8D1E757
:102520000023DCE705F00F052401E4B2034B5C5502
:10253000EBE700BF00ED00E0EC59000814ED00E00F
:1025400010B5041E0ADB002C07DB04F01F0264092F
:1025500001239340044A42F8243010BDBE210348B1
:1025600002F0DBF8EFE700BF00E100E0EC59000803
:102570002DE9F04383B007460E467D4B984213D0B9
:1025800003F5806398420FD003F5806398420BD027
:1025900003F58063984207D003F58063984203D027
:1025A000BD21744802F0B9F833689AB212B11B0C1D
:1025B0001B041BB1BE216F4802F0AFF87368012BFA
:1025C0001ED9112B1CD0022B1AD0122B18D06A4AFC
:1025D000934215D002F58012934211D002F5801279
:1025E00093420DD0A2F5F812934209D002F5801261
:1025F000934205D002F58012934201D0032B03D100
:102600004FF000094D46EDE0BF215A4802F085F831
:10261000F6E75A4A934210D007D9594A93420CD050
:1026200002F58032934208D018E0A2F5801293425E
:1026300003D002F5702293420CD1B368022B7FD8ED
:10264000B368002B00F08880012B7ED07C614FF0B6
:10265000080903E0A2F580129342EED0B8F1FF0F13
:102660007DD83846B8F1FF0F7BD8AA0003680F2148
:10267000914023EA010309FA02F2134303607368ED
:1026800013F0805F00F0AD803E4B9A6942F001028A
:102690009A619B6903F001030193019BAA08911CB5
:1026A000394B53F8210005F0030399000F238B40A9
:1026B00020EA03002E4B9F4268D003F580639F42BF
:1026C00000F0E28003F580639F4200F0DF8003F5B5
:1026D00080639F4249D0042359E0F368013B022BF9
:1026E00002D8D6F80C90B9E7D521224802F015F8A7
:1026F000F7E7F368013B022B03D8F36803F1040901
:10270000ACE7DC211B4802F008F8F6E7F368013B70
:10271000022B03D8F36803F108099FE7E32115486A
:1027200001F0FBFFF6E7F368013B022B03D8F368E7
:1027300003F10C0992E7EA210E4801F0EEFFF6E7FB
:10274000F7210C4801F0E9FF7AE73C614FF00809F6
:1027500084E74FF0000981E74FF004097EE7381D58
:1027600080E7A5F10802920080E703230FE000BF95
:1027700000080140145A0008000011100000221047
:1027800000003110001002400000014000238B4087
:10279000034302324C4941F82230736813F4803FFE
:1027A00076D04A4A136843EA08031360736813F447
:1027B000003F73D0454A536843EA08035360736887
:1027C00013F4801F70D0414A936843EA0803936072
:1027D000736813F4001F6DD03C4AD36843EA0803C2
:1027E000D3600135336833FA05F269D00124AC4077
:1027F00003EA040834EA0303F3D1354B9F4213D0B4
:1028000003F580639F420FD003F580639F420BD096
:1028100003F580639F4207D003F580639F4203D096
:10282000CD212C4801F079FF7368122B3FF6F1AEF1
:10283000122B3FF613AF01A252F823F03B260008FB
:10284000DB2600080D270008532700085D26000836
:102850005D2600085D2600085D2600085D2600084C
:102860005D2600085D2600085D2600085D2600083C
:102870005D2600085D2600085D2600085D2600082C
:10288000F326000827270008012380E702237EE7BC
:102890000E4A136823EA0803136087E70B4A53685C
:1028A00023EA080353608AE7084A936823EA080387
:1028B00093608DE7054AD36823EA0803D36090E765
:1028C00003B0BDE8F08300BF0000014000040140F8
:1028D00000080140145A000838B504460D4621B1DD
:1028E000A3681D4207D0012038BD4FF4DA710348B8
:1028F00001F013FFF4E70020F6E700BF145A0008C8
:1029000070B5054614460E4621B1012C08D86CB1AD
:102910002E6170BD4FF4EA71064801F0FEFEF4E747
:1029200040F2D511034801F0F8FEF0E736042E61BD
:10293000EFE700BF145A000803685A6912F4806F69
:1029400001D1002070476FF480625A610023036355
:10295000202280F83D2080F83E30026C42F00402D4
:10296000026480F83C30012070472DE9F0410746B1
:102970000D4690461E4624E0FFF778FD069BC01AE0
:10298000B04200D8EEB900233B63202287F83D20F7
:1029900087F83E303A6C42F020023A6487F83C30C7
:1029A00001201EE03B689C6925EA040C1FFA8CFCA0
:1029B000BCFA8CFC4FEA5C1CE04511D1B6F1FF3F3C
:1029C000DAD1C5F30743012BECD13B685B6925EAFB
:1029D000030C1FFA8CFCBCFA8CFC4FEA5C1CEBE786
:1029E0000020BDE8F0812DE9F04105460E4617466E
:1029F00098463DE01A6842F400721A602B686FF442
:102A000080625A6100232B63202285F83D2085F8DF
:102A10003E302A6C42F004022A6485F83C300120E2
:102A200034E0FFF723FDA0EB0800B84200D8FFB95F
:102A300000232B63202285F83D2085F83E302A6C48
:102A400042F020022A6485F83C3001201EE02B6809
:102A50009C6926EA0404A4B2003C18BF0124A4B176
:102A60002B685A6912F4806FC4D1B7F1FF3FD8D1F7
:102A7000C6F30743012BEAD12B685C6926EA0404FC
:102A8000A4B2003C18BF0124E9E70020BDE8F081B2
:102A9000F0B583B004460D4616461F46C36A082BA0
:102AA0000DD0012B0BD013F5803F08D0036B122BF8
:102AB0000AD10268136843F48073136004E022684B
:102AC000136843F4807313600097334600224FF07D
:102AD00001112046FFF749FF80B92369B3F5804F04
:102AE00016D1236805F0FE051D613B4632461349A9
:102AF0002046FFF778FFF8B903B0F0BD23681B68E4
:102B000013F4807F02D04FF4007323640320F3E7B3
:102B1000EB11226803F0060343F0F00313613B4618
:102B2000324607492046FFF75EFF18B92368EDB229
:102B30001D61DAE70120DFE70120DDE70200010087
:102B40000800010070B504460D46164623685B690F
:102B500013F0800F1CD12046FFF7EEFED0B9B5F17F
:102B6000FF3FF3D0FFF782FC801BA84201D8002D65
:102B7000ECD100232363202284F83D2084F83E30EA
:102B8000226C42F02002226484F83C30012000E0F4
:102B9000002070BD0120FCE770B504460D461646C6
:102BA00023685B6913F0040F1CD12046FFF7C4FEB5
:102BB000D0B9B5F1FF3FF3D0FFF758FC801BA84216
:102BC00001D8002DECD100232363202284F83D207E
:102BD00084F83E30226C42F02002226484F83C30BB
:102BE000012000E0002070BD0120FCE7002800F07B
:102BF000328170B504460368994A934208D002F5C1
:102C00008062934204D040F2D111964801F085FDD4
:102C10006368013B944A934271D8A36813B1B3F53A
:102C2000804F72D1E36823F47F7323F00303002BFA
:102C300071D12369B3F5804F02D0B3F5404F70D105
:102C40006369012B73D8A36933F0FE0375D1E3697F
:102C50000BB1402B77D1236A0BB1802B79D194F83B
:102C60003D30002B7BD0242384F83D30226813684C
:102C700023F0010313602268136843F400431360D8
:102C80002268136823F40043136000F0C5FD6268F6
:102C9000764B9A4269D8764B98428CBF0023012329
:102CA000002B40F0DA807349A1FB00318B0C2568C2
:102CB0006A6822F03F0242EA91426A6021680A6A29
:102CC00022F03F026668694DAE4254D80133134387
:102CD0000B622168CA6922F44F4222F0FF02666843
:102CE000624B9E4251D8431E7600B3FBF6F301338C
:102CF00040F6FC7003427ED0C3F30B037CE04FF43C
:102D0000E971584801F009FD87E740F2D3115548B1
:102D100001F003FD86E74FF4EA71524801F0FDFC33
:102D200087E740F2D5114F4801F0F7FC88E74FF4F0
:102D3000EB714C4801F0F1FC85E740F2D7114948AE
:102D400001F0EBFC83E74FF4EC71464801F0E5FC41
:102D500081E740F2D911434801F0DFFC7FE784F8B6
:102D60003C30204601F04CFC7DE7434B98428CBF41
:102D70000023012394E74FF4967505FB03F33F4DC1
:102D8000A5FB03539B090133A1E7A368C3B9451E03
:102D900006EB460CB5FBFCF50135C5F30B05B5FAA2
:102DA00085F56D09002D54D1C3B9013806EB4603F2
:102DB000B0FBF3F30133C3F30B0343F400431BE015
:102DC000451E06EB860C0CEB8C0CB5FBFCF50135B7
:102DD000C5F30B05B5FA85F56D09E3E7013806EB98
:102DE000860303EB8303B0FBF3F30133C3F30B035D
:102DF00043F4404300E004231343CB6121680B6894
:102E000023F0C003E269206A024313430B60216888
:102E10008B6823F4034323F0FF032269E068024335
:102E200013438B602168CB6823F0FF036269A069BC
:102E300002431343CB602268136843F0010313601D
:102E400000202064202384F83D30206384F83E0075
:102E500070BD0123D0E7012070470120F8E700BFD3
:102E600000540040385A00087F1A0600A08601006E
:102E70007F841E0083DE1B43FF083D00D34D62109C
:102E80002DE9F04385B004460F46914698460C9EC6
:102E9000FFF7ECFA054694F83D00C0B2202804D0B4
:102EA0000227384605B0BDE8F083009519230122BA
:102EB0004F492046FFF759FD002840F0928094F8D2
:102EC0003C30012B00F08F80012384F83C302368D4
:102ED0001A6812F0010F03D11A6842F001021A6059
:102EE0002268136823F400631360212384F83D30C3
:102EF000102384F83E3000232364C4F82490A4F8FF
:102F00002A80638D23853B4BE3622B46324639464C
:102F10002046FFF7BDFD0746002866D10023039336
:102F200023685A6903929B690393039B11E0236C06
:102F3000042B01D00127B4E72268136843F400731F
:102F40001360F7E72A4631462046FFF725FE0028A2
:102F50002ED1238D002B36D02A4631462046FFF74E
:102F6000F1FD0028E3D1626A236812781A61606A71
:102F7000431C6362618D89B2013989B26185238DF9
:102F8000013B9BB223852268516911F0040FD9D00F
:102F9000002BD7D043781361636A01336362638D7A
:102FA0009BB2013B9BB26385238D013B2385C9E71F
:102FB000236C042B01D0012773E72268136843F4C4
:102FC00000731360F7E72268136843F4007313601B
:102FD000202384F83D30002384F83E3084F83C30D0
:102FE0005FE702275DE702275BE7012759E700BF9C
:102FF000020010000000FFFF82B0084B1B68084A67
:10300000A2FB03235B0A00FB03F3019300BF019BB8
:103010005A1E0192002BF9D102B070471000002017
:10302000D34D6210002800F0898270B582B004464A
:10303000036813B113F00F0F2AD0236813F0010FA8
:1030400040D063682BB1B3F5803F02D0B3F5A02F19
:1030500024D19C4B5B6803F00C03042B29D0994BC3
:103060005B6803F00C03082B1ED06368B3F5803F48
:1030700055D0002B69D103F1804303F504331A685E
:1030800022F480321A601A6822F480221A604BE01F
:1030900040F267118C4801F040FBCEE740F26D1121
:1030A000894801F03AFBD4E7864B5B6813F4803F14
:1030B000DBD0844B1B6813F4003F03D06368002B04
:1030C00000F03E82236813F0020F00F0898023692C
:1030D000012B63D863691F2B66D87A4B5B6813F0AA
:1030E0000C0F6CD0774B5B6803F00C03082B61D09E
:1030F0002369002B00F09A80744B01221A60FFF7BD
:10310000B5F905466F4B1B6813F0020F40F0858040
:10311000FFF7ACF9401B0228F4D9032015E2694AF5
:10312000136843F480331360636843B3FFF79EF979
:103130000546644B1B6813F4003FC3D1FFF796F9B3
:10314000401B6428F5D90320FFE1B3F5A02F09D077
:103150005C4B1A6822F480321A601A6822F48022CA
:103160001A60E1E703F18043A3F53C331A6842F4A7
:1031700080221A601A6842F480321A60D4E7FFF79E
:1031800075F905464F4B1B6813F4003F9AD0FFF7C3
:103190006DF9401B6428F5D90320D6E140F2A11156
:1031A000494801F0BAFA95E74FF4D171464801F069
:1031B000B4FA92E7434B5B6813F4803F98D1414BDC
:1031C0001B6813F0020F03D02369012B40F0BA8172
:1031D0003C4A136823F0F803616943EAC1031360B2
:1031E000236813F0080F3CD0A369012B30D8A369E2
:1031F000002B6FD0354B0122C3F88024FFF736F93E
:103200000546304B5B6A13F0020F27D1FFF72EF90A
:10321000401B0228F5D9032097E12A4A136823F0BE
:10322000F803616943EAC1031360D9E7274B002221
:103230001A60FFF71BF90546224B1B6813F0020FBB
:10324000CED0FFF713F9401B0228F5D903207CE10B
:103250004FF4F1711C4801F060FAC8E70120FFF754
:10326000CBFE236813F0040F00F0A480E368012B69
:1032700001D9052B41D1134BDB6913F0805F42D19B
:10328000104BDA6942F08052DA61DB6903F0805357
:103290000193019B01250E4B1B6813F4807F34D0F2
:1032A000E368012B45D0002B5BD103F1804303F58C
:1032B00004331A6A22F001021A621A6A22F0040226
:1032C0001A623BE0001002405C5A000800004242D3
:1032D00000700040A14B0022C3F88024FFF7C6F81D
:1032E00005469F4B5B6A13F0020FBAD0FFF7BEF89A
:1032F000401B0228F5D9032027E140F2112199480B
:1033000001F00BFAB7E70025C5E7974A136843F4C5
:1033100080731360FFF7AAF80646934B1B6813F4FB
:10332000807FBDD1FFF7A2F8801B6428F5D9032068
:103330000BE18B4A136A43F001031362E36833B372
:10334000FFF794F80646864B1B6A13F0020F2FD145
:10335000FFF78CF8801B41F288339842F3D90320A1
:10336000F3E0052B09D07E4B1A6A22F001021A62A3
:103370001A6A22F004021A62E0E7794B1A6A42F0F4
:1033800004021A621A6A42F001021A62D6E7FFF7D3
:103390006DF80646724B1B6A13F0020F08D0FFF758
:1033A00065F8801B41F288339842F3D90320CCE0C2
:1033B000002D53D1E369022B56D8E369002B00F0AE
:1033C000C380674A526802F00C02082A00F0A68007
:1033D000022B40F08F80236A13B1B3F5803F49D1AF
:1033E000636A4BB3B3F5802F26D0B3F5002F23D0FB
:1033F000B3F5402F20D0B3F5801F1DD0B3F5A01F2B
:103400001AD0B3F5C01F17D0B3F5E01F14D0B3F531
:10341000001F11D0B3F5101F0ED0B3F5201F0BD035
:10342000B3F5301F08D0B3F5401F05D0B3F5501FDA
:1034300002D0B3F5601F23D1484B00221A66FFF774
:1034400015F80546464B1B6813F0007F1ED0FFF7AA
:103450000DF8401B0228F5D9032076E0404AD369D5
:1034600023F08053D361A5E740F2AF213D4801F03E
:1034700054F9A2E74FF42E713A4801F04EF9AFE744
:1034800040F2B921374801F048F9D5E7236AB3F58E
:10349000803F1AD032494B6823F47413226A606A61
:1034A000024313434B602D4B01221A66FEF7DEFFE9
:1034B00004462B4B1B6813F0007F19D1FEF7D6FF93
:1034C000001B0228F5D903203FE0A36813B1B3F530
:1034D000003F07D1224A536823F40033A1680B430D
:1034E0005360D7E740F2CF211E4801F016F9F1E70B
:1034F00000202AE0194B00221A66FEF7B7FF0446A7
:10350000174B1B6813F0007F06D0FEF7AFFF001BC0
:103510000228F5D9032018E0002016E0012B16D070
:103520000F4B5B6803F48031226A914211D103F49E
:103530007013626A93420ED1002006E001207047AA
:10354000012002E0012000E0002002B070BD012057
:10355000FBE70120F9E70120F7E700BF0000424246
:10356000001002405C5A00080070004086B0184B02
:103570000FCB0DF1180C0CE90F0040F20123ADF850
:103580000430144B5A6802F00C03042B1AD0082B99
:103590001AD1C2F38343634413F8100C12F4803F32
:1035A0000CD00C4B5B68C3F34043634413F8143CEA
:1035B000094A02FB00F0B0FBF3F006E0074B03FB07
:1035C00000F002E0044800E0054806B0704700BF84
:1035D000805A0008001002400024F40000093D0059
:1035E00000127A00002800F0FC8070B50D460446F9
:1035F000036813F00F0F6DD0022D71D87D4B1B683F
:1036000003F00703AB420BD27A4A136823F0070397
:103610002B431360136803F00703AB4240F0E380D1
:10362000236813F0020F29D013F0040F04D0724A5C
:10363000536843F4E0635360236813F0080F04D029
:103640006D4A536843F460535360A3687BB1802B89
:103650000DD0902B0BD0A02B09D0B02B07D0C02BB6
:1036600005D0D02B03D0E02B01D0F02B3ED1624A05
:10367000536823F0F003A1680B435360236813F0F1
:10368000010F4DD06368022B36D86368012B39D007
:10369000022B3ED0584A126812F0020F00F0A580AB
:1036A00055494A6822F0030213434B60FEF7DEFEE1
:1036B0000646514B5B6803F00C036268B3EB820F64
:1036C0002ED0FEF7D3FE801B41F288339842F0D90A
:1036D000032079E04FF44E71484801F01EF88BE763
:1036E00040F23931454801F018F887E740F25F3180
:1036F000424801F012F8BAE740F266313F4801F063
:103700000CF8C2E73C4A126812F4003FC8D101200D
:103710005AE0394A126812F0007FC1D1012053E00B
:10372000344B1B6803F00703AB420AD9314A1368D4
:1037300023F007032B431360136803F00703AB4226
:1037400055D1236813F0040F14D0E3685BB1B3F5CF
:10375000806F08D0B3F5A06F05D0B3F5C06F02D06D
:10376000B3F5E06F31D1244A536823F4E063E16894
:103770000B435360236813F0080F15D023695BB126
:10378000B3F5806F08D0B3F5A06F05D0B3F5C06F67
:1037900002D0B3F5E06F1ED1174A536823F460538B
:1037A000216943EAC1035360FFF7E0FE124B5B68F7
:1037B000C3F30313124AD35CD840124B1860124B68
:1037C000186801F031F8002070BD4FF469710B48A2
:1037D00000F0A3FFC7E740F2AB31084800F09DFFBF
:1037E000DAE7012070470120EEE70120ECE7012035
:1037F000EAE700BF00200240001002405C5A0008C7
:10380000585B0008100000200C000020014B1868D5
:10381000704700BF1000002008B5FFF7F7FF044B0A
:103820005B68C3F30223034AD35CD84008BD00BFE2
:1038300000100240685B000808B5FFF7E7FF044B83
:103840005B68C3F3C223034AD35CD84008BD00BF02
:1038500000100240685B000838B50D460446D0B140
:10386000FDB10F232360124B5A6802F0030262601D
:103870005A6802F0F002A2605A6802F4E062E26064
:103880005B68DB0803F4E06323610A4B1B6803F009
:1038900007032B6038BD40F22351074800F03DFF7D
:1038A000DEE740F22451044800F037FFD9E700BFBB
:1038B00000100240002002405C5A0008002800F07E
:1038C000008110B5044603687F4A934208D0A2F5F0
:1038D0007842934204D04FF4AC717C4800F01DFF55
:1038E000636813B1B3F5827F3DD1A3682BB1B3F503
:1038F000806F02D0B3F5004F3BD1E368B3F5006FA2
:1039000001D0002B3BD1A369B3F5007F03D013B1E5
:10391000B3F5802F39D1E3696BB1082B0BD0102B95
:1039200009D0182B07D0202B05D0282B03D0302B03
:1039300001D0382B2FD1236A0BB1802B31D1636A90
:10394000002B34D1636A002B59D123690BB1022BB0
:1039500033D16369012B36D86368B3F5827F38D0E1
:103960000023E3615EE040F25911584800F0D5FEB3
:10397000BBE74FF4AD71554800F0CFFEBDE740F214
:103980005B11524800F0C9FEBDE74FF4AE714F48DD
:1039900000F0C3FEBFE740F25D114C4800F0BDFEF1
:1039A000C9E74FF4AF71494800F0B7FEC7E740F2EE
:1039B0006111464800F0B1FEC4E74FF4B2714348CC
:1039C00000F0ABFEC5E740F26511404800F0A5FEEF
:1039D000C2E7E36933B3082B24D0102B22D0182B75
:1039E00020D0202B1ED0282B1CD0302B1AD0382BC7
:1039F00018D040F26911354800F08FFE12E0E369FB
:103A00006BB1082B0BD0102B09D0182B07D0202B13
:103A100005D0282B03D0302B01D0382B45D10023E3
:103A2000236163610023A36294F85130002B42D0DC
:103A3000022384F851302268136823F04003136096
:103A4000636803F48273A26802F404421343E268D9
:103A500002F400621343226902F002021343626916
:103A600002F001021343A26902F400721343E269F7
:103A700002F038021343226A02F080021343A26A62
:103A800002F40052216813430B60638B226803F039
:103A9000040353602268D36923F40063D3610020D8
:103AA0006065012384F8513010BD40F2731107485E
:103AB00000F033FEB3E784F85030204600F050FEAB
:103AC000B6E70120704700BF00300140945A00085B
:103AD0007047000010B504460368224A93420FD095
:103AE000B3F1804F0CD0A2F59432934208D002F586
:103AF0008062934204D040F2CF111B4800F00DFECB
:103B000094F83D30DBB2012B27D1022384F83D30FD
:103B10002268D36843F00103D3602368114A9342BB
:103B200010D0B3F1804F0DD0A2F59432934209D05A
:103B300002F58062934205D01A6842F001021A60D1
:103B400000200BE09A6802F00702062A07D01A68E4
:103B500042F001021A60002000E0012010BD0020A8
:103B6000FCE700BF002C0140B85A000870477047BE
:103B70007047704710B5044603681A6912F0020FC7
:103B800011D0DA6812F0020F0DD06FF002021A6144
:103B90000123037703689B6913F0030F70D0FFF7CD
:103BA000E6FF0023237723681A6912F0040F12D06E
:103BB000DA6812F0040F0ED06FF004021A610223CB
:103BC000237723689B6913F4407F5FD02046FFF77B
:103BD000CEFF0023237723681A6912F0080F12D052
:103BE000DA6812F0080F0ED06FF008021A61042391
:103BF00023772368DB6913F0030F4ED02046FFF7CD
:103C0000B6FF0023237723681A6912F0100F12D031
:103C1000DA6812F0100F0ED06FF010021A6108234C
:103C200023772368DB6913F4407F3DD02046FFF7FC
:103C30009EFF0023237723681A6912F0010F03D037
:103C4000DA6812F0010F36D123681A6912F0800F7A
:103C500003D0DA6812F0800F34D123681A6912F0A9
:103C6000400F03D0DA6812F0400F32D123681A698E
:103C700012F0200F03D0DA6812F0200F30D110BDFF
:103C8000FFF774FF2046FFF773FF8AE72046FFF730
:103C90006DFF2046FFF76CFF9BE72046FFF766FFAE
:103CA0002046FFF765FFACE72046FFF75FFF2046A1
:103CB000FFF75EFFBDE76FF001021A61204600F0DA
:103CC000D1FCC1E76FF080021A61204600F0EDFAE6
:103CD000C3E76FF040021A612046FFF74AFFC5E7CD
:103CE0006FF020021A61204600F0DEFAC7E70000FC
:103CF00003681B4A90420AD0B0F1804F07D0A2F56A
:103D00009432904203D002F58062904203D123F0B6
:103D100070034A681343124A90420AD0B0F1804FB0
:103D200007D0A2F59432904203D002F5806290420F
:103D300003D123F44073CA68134323F080034A6914
:103D4000134303608B68C3620B688362044B984221
:103D500002D00123436170470B690363F9E700BF99
:103D6000002C0140002865D010B504460368324A93
:103D700093420FD0B3F1804F0CD0A2F5943293420E
:103D800008D002F58062934204D040F213112B4810
:103D900000F0C3FCA3683BB1102B05D0202B03D04F
:103DA000402B01D0602B2DD123692BB1B3F5807F3F
:103DB00002D0B3F5007F2BD1A3690BB1802B2DD19D
:103DC00094F83D3083B3022384F83D30214651F806
:103DD000040BFFF78DFF012384F8463084F83E3052
:103DE00084F83F3084F8403084F8413084F8423021
:103DF00084F8433084F8443084F8453084F83D300A
:103E0000002010BD4FF48A710C4800F086FCCBE70F
:103E100040F21511094800F080FCCDE74FF48B719A
:103E2000064800F07AFCCBE784F83C302046FFF7E8
:103E30004FFEC8E701207047002C0140B85A000827
:103E4000002800F0028170B50C4605460368804AE0
:103E500093420FD0B3F1804F0CD0A2F5943293422D
:103E600008D002F58062934204D040F68E31794842
:103E700000F053FCAB6843B1102B06D0202B04D0CC
:103E8000402B02D0602B40F092802B6933B1B3F508
:103E9000807F03D0B3F5007F40F08F80AB6913B112
:103EA000802B40F090802368013B022B00F2918030
:103EB000A368013B022B00F29280A369013B022B15
:103EC00000F29380636813B1022B40F09480636921
:103ED00013B1022B40F09580E36833B1042B04D07A
:103EE000082B02D00C2B40F09280E36933B1042BF5
:103EF00004D0082B02D00C2B40F08F8023690F2BAD
:103F000000F29180236A0F2B00F2938095F83D30E8
:103F1000002B00F09480022385F83D302A689368D6
:103F200023F4804323F007039360294651F8040BE0
:103F3000FFF7DEFE29688A688B690E6A20681043E5
:103F400023F4407C2CF0030CA268A36942EA03230B
:103F500043EA0C0323F47C4323F0FC03E269D4F826
:103F60000CC04CEA022C4CEA030C226A13032269AF
:103F700043EA021343EA0C0326F0220662686469EE
:103F800042EA04123243886029688B612B681A6206
:103F9000012385F8463085F83E3085F83F3085F8B6
:103FA000423085F8433085F83D30002070BD40F642
:103FB0008F31284800F0B1FB67E74FF4396125489D
:103FC00000F0ABFB6AE740F69131224800F0A5FB18
:103FD00069E740F692311F4800F09FFB68E740F622
:103FE00093311C4800F099FB67E740F6943119487B
:103FF00000F093FB66E740F69531164800F08DFB24
:1040000065E740F69631134800F087FB64E740F619
:104010009731104800F081FB67E740F698310D4872
:1040200000F07BFB6AE740F699310A4800F075FB27
:1040300068E740F69A31074800F06FFB66E785F8BD
:104040003C30284600F06EFC65E70120704700BF59
:10405000002C0140B85A000870B504460D461646BB
:10406000184B98420FD0B0F1804F0CD0A3F5943389
:10407000984208D003F58063984204D041F6095174
:10408000114800F04AFB3DB1042D05D0082D03D0A6
:104090000C2D01D03C2D0ED105F01F05012303FA94
:1040A00005F2236A23EA02032362236A06FA05F56E
:1040B0001D43256270BD41F60A51034800F02DFBF7
:1040C000EAE700BF002C0140B85A00082DE9F84388
:1040D00004460E4690F83E50EDB290F83F70FFB2A5
:1040E00090F842805FFA88F890F843305FFA83F9DD
:1040F0000368364A93420FD0B3F1804F0CD0A2F53B
:104100009432934208D002F58062934204D040F684
:104110004A412F4800F001FBBEB9012D48D1B8F14A
:10412000010F46D1022384F83E3084F842306EB34A
:10413000042E37D0012200212068FFF78DFF0122D5
:1041400004212068FFF788FF25E0042E13D0012DFD
:1041500036D1012F2DD1B8F1010F33D1B9F1010FB3
:1041600032D1022384F83E3084F83F3084F8423064
:1041700084F84330DBE7012F1ED1B9F1010F1DD1C7
:10418000022384F83F3084F84330D0E70122002135
:104190002068FFF761FF2268136843F00103136092
:1041A000002506E0012204212068FFF755FFF2E711
:1041B00001252846BDE8F8830125FAE73D46F8E7E2
:1041C0000125F6E73D46F4E74546F2E7002C0140BD
:1041D000B85A000838B504460D460368304A934281
:1041E0000FD0B3F1804F0CD0A2F59432934208D097
:1041F00002F58062934204D040F28671294800F0B3
:104200008CFA2B686BB1102B0BD0202B09D0302BE4
:1042100007D0402B05D0502B03D0602B01D0702B42
:1042200030D16B68802B00D093BB94F83C30012BCD
:1042300034D0012384F83C30022384F83D302368D5
:104240005968986821F070012A680A435A60236807
:10425000134A93420AD0B3F1804F07D0A2F59432AB
:10426000934203D002F58062934204D120F0800093
:104270006A6810439860012384F83D30002084F878
:104280003C0038BD40F28771064800F046FAC8E7A6
:104290004FF4F161034800F040FAC6E70220F0E76E
:1042A000002C0140DC5A00087047704710B50446E6
:1042B0004268384B9A4257D8E36813B1B3F5005FB0
:1042C00058D123692BB1B3F5806F02D0B3F5C06F1D
:1042D00056D163694FF6F372134200D123B940F609
:1042E00056612D4800F019FA2268136923F44053EF
:1042F000E1680B431361A3682269134362691A439F
:104300002168CB6823F4B05323F00C031343CB6034
:104310002268536923F44073A1690B4353612268F7
:104320001E4B9A4232D0FFF777FA024602EB820226
:1043300002EB820263689B00B2FBF3F21848A0FB19
:1043400002314909642303FB11231B013233A0FB13
:1043500003235B0903F0F00202EB011203F00F03E9
:10436000216813448B6010BD40F653610A4800F089
:10437000D4F9A1E740F65461074800F0CEF9A0E770
:1043800040F65561044800F0C8F9A2E7FFF754FA77
:104390000246CBE720AA4400045B00080038014035
:1043A0001F85EB5100286CD010B5044683690BB310
:1043B0000368354A93420CD0A2F57442934208D068
:1043C00002F58062934204D04FF4B6712F4800F09A
:1043D000A4F9A369FBB1B3F5807F1CD0B3F5007FCE
:1043E00019D0B3F5407F16D040F26D11274800F088
:1043F00094F910E00368244A93420CD0A2F5744269
:10440000934208D002F58062934204D040F27111C9
:104410001E4800F082F9A36813B1B3F5805F24D180
:1044200094F83D303BB3242384F83D302268D368B0
:1044300023F40053D3602046FFF738FF2268136946
:1044400023F4904313612268536923F02A035361D4
:104450002268D36843F40053D360002020642023F3
:1044600084F83D3084F83E3010BD40F273110748A7
:1044700000F053F9D4E784F83C30204600F098FA75
:10448000D1E70120704700BF00380140045B0008FD
:10449000FEE7704708B50A20FBF76EFFFBE7000058
:1044A00000B583B0FDF7BEFF0190124A002112480B
:1044B000FBF7ECFE114B1860FDF7B4FF019000F024
:1044C00097FCFDF7AFFF019000F0F4FEFDF7AAFFA7
:1044D000019000F03FFFFDF7A5FF019001F01CF9EE
:1044E000FDF7A0FF0190019B0133019303B05DF83C
:1044F00004FB00BF345B000895440008F01800205E
:104500002DE9F04188B000240494059406940794A2
:10451000294B9A6942F020029A619A6902F02002BE
:104520000192019A9A6942F004029A619A6902F032
:1045300004020292029A9A6942F008029A619B6907
:1045400003F008030393039B1C4E224610213046C0
:10455000FEF7D6F91A4D224607212846FEF7D0F974
:1045600048F20C0304930594069404A93046FDF721
:10457000FFFF102304934FF00108CDF81480069438
:10458000022707970DEB03013046FDF7F1FF0723E4
:104590000493CDF814800694079704A92846FDF7E4
:1045A000E7FF382304930594069404A92846FDF7F1
:1045B000DFFF08B0BDE8F0810010024000080140B4
:1045C000000C014008B50B480B4B03600B4B4360DC
:1045D00000238360C3604FF48042026143618361C2
:1045E000C3610362FEF702FB00B908BD00F046F8A4
:1045F000FBE700BFF418002000540040801A0600BA
:1046000010B586B0002302930393049305930268C8
:10461000114B9A4201D006B010BD104CA36943F073
:104620000803A361A36903F008030093009BC02360
:104630000293122303930323059302A90848FDF76D
:1046400097FFE36943F40013E361E36903F40013A4
:104650000193019BDFE700BF0054004000100240BF
:10466000000C014008B50268034B9A4200D008BD17
:10467000FDF7F0FEFBE700BF0004004072B6FEE766
:1046800000B591B02822002106A801F009F9002305
:1046900001930293039304930593092306934FF424
:1046A000803307934FF40032089201220A920C9251
:1046B00002220D920E934FF4E0130F9306A8FEF71B
:1046C000B1FC80B90F2301930221029100230393CF
:1046D0004FF480620492059301A8FEF783FF20B98E
:1046E00011B05DF804FBFFF7C9FFFFF7C7FF08B57E
:1046F000FDF79EFEFFF7C4FFFFF702FFFFF762FF23
:1047000000F00CF800F0DEF800F038F9FBF776FD69
:10471000FFF7C6FEFBF794FDFEE7704708B50E48AD
:104720000E4B03604FF48273436000238360C360C9
:10473000036143614FF4007282610822C261036227
:10474000436283620A23C362FFF7B8F800B908BD69
:10475000FFF794FFFBE700BF48190020003001403D
:1047600010B586B000230293039304930593026867
:10477000164B9A4201D006B010BD03F560439A690A
:1047800042F480529A619A6902F480520092009A2F
:104790009A6942F004029A619B6903F00403019351
:1047A000019BA02302930223039303230593084C48
:1047B00002A92046FDF7DCFE402302930023039369
:1047C000049302A92046FDF7D3FED4E70030014050
:1047D0000008014000B583B0114B9A6942F0010214
:1047E0009A619A6902F001020092009ADA6942F035
:1047F0008052DA61DB6903F080530193019B002250
:104800000F216FF00100FDF755FE064A536823F0B3
:10481000E06343F00073536003B05DF804FB00BF36
:10482000001002400000014000B589B0014600229E
:104830001D20FDF73FFE1D20FDF782FE154BDA69B6
:1048400042F00202DA61DB6903F002030193019B8B
:1048500002A903A8FFF700F8FEF7DEFF43000E48A9
:10486000A0FB03239B0C013B0C480D4A026040F265
:10487000E732C2604360002303618360FFF772FA8E
:1048800018B1012009B05DF804FB0448FFF722F9D4
:10489000F8E700BF0010024083DE1B43A019002090
:1048A00000040040FEE7FEE7FEE7FEE7FEE7704794
:1048B00008B50248FFF75EF908BD00BFA019002047
:1048C0007047000000B58DB02422002103A800F03D
:1048D000E7FF00230193029311484FF080420260EA
:1048E000436083604FF6FF72C260036183610123FE
:1048F00003930593099303A9FFF7A2FA50B9002384
:104900000193029301A90648FFF764FC28B90DB092
:104910005DF804FBFFF7B2FEF1E7FFF7AFFEF6E745
:10492000E819002000B587B0002302930393049395
:1049300005930368B3F1804F02D007B05DF804FB24
:1049400003F50433DA6942F00102DA61DA6902F050
:1049500001020092009A9A6942F004029A619B69EE
:1049600003F004030193019B0323029302A902486D
:10497000FDF7FEFDE1E700BF0008014008B50A4869
:104980000A4B03604FF4E133436000238360C3604C
:1049900003610C2242618361C361FFF703FD00B92B
:1049A00008BDFFF76BFEFBE7301A0020003801401E
:1049B00010B586B000230293039304930593026815
:1049C000174B9A4201D006B010BD03F558439A69BF
:1049D00042F480429A619A6902F480420092009AFD
:1049E0009A6942F004029A619B6903F004030193FF
:1049F000019B4FF400730293022303930323059357
:104A0000084C02A92046FDF7B3FD4FF480630293E2
:104A100000230393049302A92046FDF7A9FDD2E7E2
:104A20000038014000080140016004238382C382F2
:104A30000A88043A92B2013A12B202834B88043BCC
:104A40009BB2013B1BB2438302824382012380F865
:104A5000413080F8423000230362038580F827301C
:104A600080F8263043858385036343638363C36390
:104A700080F84530FF2280F8432080F844304360BE
:104A80008360C36009E003F10902002140F832109D
:104A900000EBC20211710133DBB2032BF3D9024BDD
:104AA00018600120704700BF741A002000B583B061
:104AB00002460B464FF49671009140210248FEF7E2
:104AC000DFF903B05DF804FBF418002008B50648D0
:104AD000437843F040034370DBB243F00403437078
:104AE0000221FFF7E3FF08BD781E002008B5074844
:104AF00000230380437843F040034370DBB243F06C
:104B0000040343700221FFF7D1FF08BD781E002087
:104B100010B51C4B5A786FF304125A7040280BD012
:104B2000802825D0174B5A786FF300025A70D2B202
:104B30006FF341025A7008E0124B5A786FF300028B
:104B40005A70D2B242F002025A700E4C63786FF380
:104B5000C30363702170DBB243F020036370FFF77F
:104B6000B5FF63786FF345136370FFF7AFFF10BDB8
:104B7000044B5A7842F001025A70D2B26FF34102EC
:104B80005A70E2E7781E002008B50A4B0A4A1A60FC
:104B90003F210020FFF7BCFF40210020FFF7B8FFB6
:104BA000B8210020FFF7B4FFC0210020FFF7B0FFBD
:104BB00008BD00BF7C1E0020781A002010B51C4ADA
:104BC000537843F01003537040280BD0802825D031
:104BD000174B5A786FF300025A70D2B26FF341024A
:104BE0005A7008E0124B5A786FF300025A70D2B232
:104BF00042F002025A700E4C63786FF3C303637085
:104C00002170DBB243F020036370FFF75FFF63782E
:104C10006FF345136370FFF759FF10BD044B5A78CB
:104C200042F001025A70D2B26FF341025A70E2E7C9
:104C3000781E002008B501460020FFF769FF08BD77
:104C40002DE9F0410F46164698464838C0B2FFF7A6
:104C5000F1FF4546402D28BF4025002405E00021F6
:104C60004020FFF7ABFF0134E4B2B442F7D33F2E4C
:104C700009D9B8F13F0F11D9B8F1400F19D8FFF792
:104C800035FFBDE8F0813446AC42F2D2A31BF95C9B
:104C90004020FFF793FF0134E4B2F5E73F2D06D83B
:104CA00000214020FFF78AFF0135EDB2F6E72C46E0
:104CB000E2E74445E3D2A31BF95C8020FFF77EFFC7
:104CC0000134E4B2F5E738B50D464838C0B2FFF715
:104CD000B1FF002405E029464020FFF76FFF0134B3
:104CE000E4B23F2CF7D9002405E029468020FFF7E5
:104CF00065FF0134E4B214F0800FF6D0FFF7F6FE42
:104D000038BD38B50D464838C0B2FFF793FF0024D0
:104D100009E029784020FFF751FF69784020FFF72C
:104D20004DFF0134E4B21F2CF3D9002409E02978A7
:104D30008020FFF743FF69788020FFF73FFF0134B1
:104D4000E4B21F2CF3D9FFF7D1FE38BD08B5012A14
:104D500006D01346022A07D00022FFF771FF08BDD4
:104D60000978FFF7B0FFFAE7FFF7CBFFF7E7F8B5F1
:104D700004460D4617461E4606E032463946204692
:104D8000FFF7E4FF0134E4B2AC42F6D3F8BD000013
:104D900038B5B820FFF74EFF00251AE0134B03EBA0
:104DA000C513195D4020FFF709FF0134E4B23F2C21
:104DB000F4D9402408E00D4B03EBC513195D8020A6
:104DC000FFF7FCFE0134E4B214F0800FF3D001359C
:104DD000EDB2072D06D8A5F14800C0B2FFF72AFFB3
:104DE0000024E4E7FFF782FE38BD00BF781A0020F8
:104DF00008B5044A00210448FBF748FA034B186041
:104E000008BD00BF9C5B0008454F0008841E0020C1
:104E100082B000238DF807309DF807300133DBB2F4
:104E20008DF8073002B07047704700B583B0AA23F1
:104E30008DF8073001230DF1070208210020FFF74C
:104E400096FF03B05DF804FB00B583B045F2AA53AA
:104E5000ADF80430022301AA08210020FFF787FFE4
:104E600003B05DF804FB00B583B0FF23ADF8043058
:104E7000022301AA08210020FFF779FF03B05DF8A3
:104E800004FB00B583B08DF8070001230DF1070284
:104E900008210020FFF76BFF03B05DF804FB000062
:104EA000B1F5806F00D9704708B50A460146024B3C
:104EB0001868FBF72DF908BD7C1E002008B5FFF728
:104EC00067FF08BD08B51C4B1B78092B09D01A4B8E
:104ED0001B78062B10D8DFE803F00816191C1F23D7
:104EE0002700154B00221A70F1E74FF48061134838
:104EF000FFF7D6FFFFF7E2FF0F4A13780133137075
:104F0000FFF786FF08BDFFF790FFF5E7FFF79CFF6F
:104F1000F2E7FFF7A8FFEFE70020FFF7B2FFEBE7AC
:104F2000FF20FFF7AEFFE7E74FF480610448FFF78B
:104F3000B7FFFFF7C3FFDFE7801E0020C05F000858
:104F4000C05B000810B588B0FFF71EFE1A4B0622A2
:104F50001A701A491A48FFF767FDFFF7B3FF4FF4BD
:104F6000FA70FBF709FA14E0212A02D9154BFF2148
:104F70001970144B1B781A44D2B2134B1A7002F1F9
:104F80001E03DBB269460620FFF75AFE6420FBF7DA
:104F9000F3F9EC460D4C0FCCACE80F0094E80F0091
:104FA000ACE80700ACF80030074B1A78002ADBD1D8
:104FB000044B01211970DCE7801E0020881E0020B0
:104FC000941E00201500002014000020705B0008D3
:104FD00000B585B0E8E0B44D08212846FDF77CFC1B
:104FE000B24C2378834214BF002301238DF80A308A
:104FF00010212846FDF770FC2378834214BF00235C
:1050000001238DF8093020212846FDF765FC23781F
:10501000834214BF002301238DF808304FF4004170
:10502000A348FDF759FC2378834214BF00230123D2
:105030008DF80B309620FBF79FF99DF80830012B77
:10504000C9D00120FFF7F0FE1EE1974D0821284648
:10505000FDF742FC954C2378834214BF00230123C3
:105060008DF80A3010212846FDF736FC237883425C
:1050700014BF002301238DF8093020212846FDF7B5
:105080002BFC2378834214BF002301238DF80830C2
:105090004FF400418648FDF71FFC2378834214BF7C
:1050A000002301238DF80B309620FBF765F99DF85E
:1050B0000930012BC9D00220FFF7B6FEE9E07A4D96
:1050C00008212846FDF708FC784C2378834214BF5A
:1050D000002301238DF80A3010212846FDF7FCFB40
:1050E0002378834214BF002301238DF80930202147
:1050F0002846FDF7F1FB2378834214BF00230123E8
:105100008DF808304FF400416948FDF7E5FB23783E
:10511000834214BF002301238DF80B309620FBF748
:105120002BF99DF80A30012BC9D00320FFF77CFE34
:10513000B4E05D4D08212846FDF7CEFB5B4C23789B
:10514000834214BF002301238DF80A301021284622
:10515000FDF7C2FB2378834214BF002301238DF89F
:10516000093020212846FDF7B7FB2378834214BF7E
:10517000002301238DF808304FF400414C48FDF71F
:10518000ABFB2378834214BF002301238DF80B303F
:105190009620FBF7F1F89DF80B30012BC9D000F0F9
:1051A000CFFA6420FBF7E8F83F4D08212846FDF7C9
:1051B00093FB3E4C2378834214BF002301238DF8D8
:1051C0000A3010212846FDF787FB2378834214BF5D
:1051D000002301238DF8093020212846FDF77CFBB0
:1051E0002378834214BF002301238DF80830304E0A
:1051F0004FF400413046FDF76FFB2378834214BF24
:10520000002301238DF80B306420FBF7B5F808214B
:105210002846FDF761FB2378834214BF0023012356
:105220008DF80E3010212846FDF756FB2378834277
:1052300014BF002301238DF80D3020212846FDF7EF
:105240004BFB2378834214BF002301238DF80C30DD
:105250004FF400413046FDF73FFB2378834214BFF3
:10526000002301238DF80F3000230193042203A9AA
:1052700002A800F0E1FA0190019B002B91D19DF86A
:105280000830012B3FF4D9AE9DF80930012B3FF4D3
:105290000EAF9DF80A30012B3FF443AF9DF80B3061
:1052A000012B7FF47EAF76E7000C0140FC1E00204E
:1052B0000008014008B5044A00210448FAF7E6FF57
:1052C000034B186008BD00BFCC630008D14F000835
:1052D000001F002010B53C211A48FEF7F7FE0CE035
:1052E000194A1388013B1380022000F069FA19E083
:1052F000164B1C609620FBF73FF8124B1B685C6A4C
:10530000013CC4F34E04C4F5FF447F340F4B1B68CB
:10531000A34212D0E4DD0C4A13880133138001202C
:1053200000F04EFA0A4A13780133DBB21370062BF1
:10533000DED9134600221A70DAE7002000F040FAA6
:10534000D8E700BFE8190020041F00200C1F002030
:10535000101F002008B5044A00210448FAF796FF00
:10536000034B186008BD00BFF0630008D552000869
:10537000081F0020184B1B6913F0010F2AD030B50D
:1053800083B0154B6FF001021A6100240194134A97
:1053900013680133136009E001AA0021FCF7B6FC91
:1053A0000F4B002243F834200134E4B2042C0FD810
:1053B0000B4B53F834000028F6D003EBC4035B68B2
:1053C000002BE9D0064A02EBC402013B5360EBE735
:1053D00003B030BD704700BF00080040141F00201C
:1053E000181F0020134AD36943F00403D361124B02
:1053F00024229A623C22DA621A6842F085021A601C
:10540000DA6842F00102DA600C4BE02283F81E23D6
:105410004FF080421A60002308E0094A002142F858
:10542000331002EBC30251600133DBB2042BF4D919
:10543000704700BF001002400008004000E100E09B
:10544000181F002038B50546FCF7DAFA0446FBF7CA
:1054500021F80023042B19D819460E4A52F833209C
:1054600012B10133DBB2F5E70A4B43F8314003EBED
:10547000C1035D60FBF730F84FF0FF3201210020DF
:10548000FCF7EEFB003818BF012002E0FBF724F820
:10549000002038BD181F002049B10A4A02EBC003A2
:1054A000998852F8302001238B4013617047054AD8
:1054B00002EBC003998852F8302001238B405361DE
:1054C000704700BF1C64000830B51F4B03EBC003DE
:1054D000B3F804C0BCF1070F21D81B4B53F8303090
:1054E0001C684FEA8C0E0F2505FA0EF524EA050418
:1054F0001C601C6801FA0EF121431960124B53F82D
:105500003030D968012000FA0CF021EA0001D9609E
:10551000D96802FA0CFC41EA0C01D96030BD0A4B93
:1055200053F830305C68ACF1080E4FEA8E0E0F2550
:1055300005FA0EF524EA05045C605C6801FA0EF1D8
:1055400021435960DAE700BF1C64000810B50D4B19
:105550009A6942F004029A619A6942F008029A61DB
:105560009A6942F001029A61002408E0064B03EBBD
:10557000C403DA799979E0B2FFF7A6FF0134032C6E
:10558000F4DD10BD001002401C64000838B50D4663
:10559000134B00EB40001C18003918BF0121185CA8
:1055A000FFF77AFF01216078FFF776FF4FF0E023E5
:1055B0004FF08052C3F8042DBFF34F8FBFF36F8FAE
:1055C00000216078FFF768FF012D04D0054A1368B9
:1055D0000133136038BD034A1368013B1360F9E7D8
:1055E00018000020481F00202DE9F8430546884692
:1055F00016461F46DDF8209000EB4002124B134484
:1056000001219878FFF748FF002407E0414628462B
:10561000FFF7BCFF3846FFF715FF0134B44205D24F
:1056200000214846FBF76DFB0028EFD005EB450550
:10563000054B1D4400216878FFF72EFF0021A87854
:10564000FFF72AFFBDE8F8831800002000B585B0F9
:105650000021104B5878FFF71FFF4FF0FF3202A9CF
:105660000D4B1868FBF79EFA0C4B1B6800939DF8D6
:105670000C30BDF80A209DF809109DF80800FFF7CE
:10568000B3FF00231A46194605480068FBF7C6F920
:10569000E3E700BF18000020501F0020441F002037
:1056A000401F002030B583B00024019401250095EF
:1056B000234680220D490E48FBF72BFE2246062189
:1056C0000220FBF77DF90B4B186003222146284688
:1056D000FBF776F9084B1860032221462846FBF7B2
:1056E0006FF9064B186003B030BD00BF14640008AA
:1056F0004D560008501F0020441F0020401F00206E
:1057000008B5FFF723FFFFF7CDFFFFF76BFE4FF460
:105710007A70FBF7F5FFFAE708B50021044B196032
:10572000044A0548FAF7B2FD044B186008BD00BFF3
:10573000481F00203C64000801570008541F002047
:1057400070B582B000248DF8004001268DF801600C
:105750004FF44863ADF8023005238DF80430164D40
:105760002346042269462868FBF758F94FF47A70FB
:10577000FBF7C6FF03238DF8043023460422694655
:105780002868FBF74BF94FF47A70FBF7B9FF8DF8F7
:1057900004602346042269462868FBF73FF94FF46A
:1057A0007A70FBF7ADFF2346224621460348006886
:1057B000FBF734F902B070BD501F0020441F0020D9
:1057C0001A4B1B7883422FD000B583B000238DF88D
:1057D00000308DF80130A023ADF8023001238DF8A0
:1057E0000430984205D002280BD0A8B103B05DF870
:1057F00004FB0023042269460D480068FBF70EF9FC
:10580000F4E701238DF8013000230422694608489B
:105810000068FBF703F9E9E700231A461946054833
:105820000068FBF7FBF8E1E7704700BF4C1F002062
:10583000501F0020441F0020032A10B516D940EA4B
:10584000010C1CF0030F04460B4622D119462046DA
:10585000D1F800E0D0F800C00433F44504F10404AA
:1058600017D1043A032A20461946EFD8541EA2B194
:1058700000F1FF3C013901E0C3180CD01CF801EF26
:1058800011F8012FA4EB0C039645F5D0AEEB020006
:1058900010BD541EECE7184610BD104610BD00BFE9
:1058A000830730B548D0541E002A3FD00346CAB201
:1058B00001E0013C3AD303F8012B9D07F9D1032CF9
:1058C0002DD9CDB245EA05250F2C45EA054536D937
:1058D000A4F1100222F00F0C03F1200EE6444FEA6F
:1058E000121C03F1100242E9045542E9025510323C
:1058F0007245F8D10CF1010214F00C0F03EB021207
:1059000004F00F0C13D0ACF1040323F003030433B1
:10591000134442F8045B9342FBD10CF003042CB116
:10592000CAB21C4403F8012B9C42FBD130BD644633
:105930001346002CF4D1F9E703461446BFE71A4694
:04594000A446E0E7B2
:1059440008B51A4B1A4A03E052F8041B43F8041B27
:1059540018498B42F8D3184B02E0002243F8042B79
:10596400164A9342F9D3FEF792FDFEF7A7FF144DB2
:10597400144BED1AAD10002404E0124B53F82430FC
:1059840098470134A542F8DC0F4D104BED1AAD10C9
:10599400002404E00D4B53F8243098470134A54209
:1059A400F8DCFEF7A2FEFBF7E7FCFEE700000020B0
:1059B400606400081C0000201C000020581F002008
:1059C40060640008606400086064000860640008A3
:1059D40049444C4500000000546D72510000000021
:1059E400546D7220537663002E2E2F6D63752F68CD
:1059F400616C2F7372632F73746D333266317878F0
:105A04005F68616C5F636F727465782E6300000079
:105A14002E2E2F6D63752F68616C2F7372632F7335
:105A2400746D3332663178785F68616C5F67706972
:105A34006F2E63002E2E2F6D63752F68616C2F738C
:105A440072632F73746D3332663178785F68616C7A
:105A54005F6932632E6300002E2E2F6D63752F68ED
:105A6400616C2F7372632F73746D3332663178787F
:105A74005F68616C5F7263632E6300000203040558
:105A8400060708090A0B0C0D0E0F10100000000089
:105A94002E2E2F6D63752F68616C2F7372632F73B5
:105AA400746D3332663178785F68616C5F737069E6
:105AB4002E6300002E2E2F6D63752F68616C2F737B
:105AC40072632F73746D3332663178785F68616CFA
