:020000040800F2
:10000000005000209D5A00080145000805450008E1
:10001000094500080D4500081145000800000000D2
:100020000000000000000000000000003104000893
:100030001545000800000000C1040008050500087F
:10004000ED400008ED400008ED400008ED400008DC
:10005000ED400008ED400008ED400008ED400008CC
:10006000ED400008ED400008ED400008ED400008BC
:10007000ED400008ED400008ED400008ED400008AC
:10008000ED400008ED400008ED400008ED4000089C
:10009000ED400008ED400008ED400008ED4000088C
:1000A000ED400008ED400008ED400008ED4000087C
:1000B000ED40000819450008ED400008ED4000083B
:1000C000ED400008ED400008ED400008ED4000085C
:1000D000ED400008ED400008ED400008ED4000084C
:1000E000ED400008ED400008ED4000080000000071
:1000F0000000000000000000000000000000000000
:0C01000000000000000000005FF808F1A3
:10011000844641EA000313F0030349D1403A23D354
:100120000B6803604B6843608B688360CB68C36077
:100130000B6903614B6943618B698361CB69C3615F
:100140000B6A03624B6A43628B6A8362CB6AC36247
:100150000B6B03634B6B43638B6B8363CB6BC3632F
:1001600040304031403ADBD230320BD30B68036071
:100170004B6843608B688360CB68C360103010317C
:10018000103AF3D20C3205D351F8043B40F8043B4B
:10019000043AF9D2043208D0D2071CBF11F8013B4F
:1001A00000F8013B01D30B8803806046704700BF15
:1001B000082A13D38B07B1D010F00303AED0C3F1DC
:1001C0000403D21ADB071CBF11F8013B00F8013B06
:1001D000A4D331F8023B20F8023B9FE7043AD9D37D
:1001E000013A11F8013B00F8013BF9D20B7803709A
:1001F0004B7843708B78837060467047EFF30583CC
:1002000083B9EFF310836BB9084B1868022803D049
:1002100028B901221A607047EFF3118313B94FF028
:10022000FF3070476FF00500704700BFE00E002000
:10023000EFF30583C3B910B5EFF310848CB90C4B01
:100240001A68022A07D0012A08D102221A6001F096
:1002500005FA204610BDEFF3118313B94FF0FF30BC
:1002600010BD6FF0050010BD6FF00500704700BFB6
:10027000E00E002070B5002486B00594EFF30585EC
:10028000002D3DD1EFF31083002B40D12A4B1B688A
:10029000022B38D000283AD000238DF8133012B347
:1002A0001468002C3BD09569002D33D06E1E372E7C
:1002B00026D85368DB0723D453696BBB4FF0800CFF
:1002C00096687EB3D2F80CE0BEF5916F1FD3126929
:1002D000EAB1E3B10B46CDE901262146624600951D
:1002E00001F01CF90DE0802218250DF113040B46D6
:1002F000214605AC0095019401F04CF9012806D087
:10030000002006B070BDEFF31183002BC2D005981A
:1003100006B070BD1825CCE74FEA930CD0E70DF17D
:100320001304C0E7D368002BF1D11369002BEED181
:100330001FFA8CF2DBE700BFE00E002008B5EFF3F8
:10034000058363B9EFF310834BB9084B1B68022B8D
:1003500001D038B908BDEFF31183002BF9D06FF04D
:10036000050008BD01F04AF9002008BDE00E00209C
:10037000802330B4034D044C05600C60136030BC26
:10038000704700BF580A0020580800204FF48073BF
:1003900030B4034D034C05600C60136030BC7047F3
:1003A000E8120020E40E002006480068006880F390
:1003B000088862B661B6BFF34F8FBFF36F8F00DF5F
:1003C00000BF000008ED00E000220E4B82B01B6869
:1003D0000192013308D04FF0500383F31188BFF32B
:1003E0006F8FBFF34F8FFEE74FF0500383F31188F9
:1003F000BFF36F8FBFF34F8F019B002BFCD002B078
:10040000704700BF0000002010B44FF08074064B0E
:1004100021F0010140E9021440F80C3C40F8202C86
:1004200010BC4038704700BFC9030008000000003E
:10043000074B19680868B0E8F00F80F30988BFF32C
:100440006F8F4FF0000080F311884EF00D0E704753
:10045000B81700204FF0500383F31188BFF36F8F5C
:10046000BFF34F8F0B4A13680133012B136000D089
:1004700070474FF0E023D3F8043DDBB2002BF7D0F8
:100480004FF0500383F31188BFF36F8FBFF34F8F8B
:10049000FEE700BF00000020084A136843B94FF090
:1004A000500383F31188BFF36F8FBFF34F8FFEE7C5
:1004B000013B13600BB983F31188704700000020E3
:1004C000EFF30980BFF36F8F0D4B1A6820E9F00F2F
:1004D00010602DE908404FF0500080F3118801F0C2
:1004E0003BF94FF0000080F31188BDE8084019681F
:1004F0000868B0E8F00F80F30988BFF36F8F70478A
:10050000B817002008B54FF0500383F31188BFF3EC
:100510006F8FBFF34F8F01F00FF928B14FF0E02339
:100520004FF08052C3F8042D002383F3118808BDD7
:100530004FF0E02200210720064B10B411619161B9
:100540001B68054CA4FB03139B09013B536110BCC2
:100550001061704710000020D34D62104FF0FF0C67
:1005600030B50724294B83B01A782949D2B20192B9
:1005700083F800C01B782748DBB28DF803309DF864
:1005800003309DF8032003F05003120648BF0622F3
:1005900004600B700ED59DF8033011465B00DBB292
:1005A0008DF803309DF80330013A1B06F3D403297C
:1005B00009D001604FF0500383F31188BFF36F8FB0
:1005C000BFF34F8FFEE74FF440754FF0E023002458
:1005D000019A0E49D2B205600A70D3F8202D42F478
:1005E0007002C3F8202DD3F8202D42F07042C3F8DA
:1005F000202DFFF79DFF084B1C60FFF7D5FE01F093
:10060000ABF82046FFF7E0FE03B030BD00E400E0A9
:100610007017002074170020000000204FF0FF31F9
:10062000002200F10803C0E90131C0E90333026090
:10063000704700BF00230361704700BF30B40D68EE
:100640006B1C10D000F108031C465B681A68AA42B4
:10065000FAD902684B60013299608C606160086170
:1006600030BC0260704704696368F2E7036910B444
:10067000D0E901125C688A6051600021844208BFA1
:100680005A601A680161013A1A60186810BC704714
:1006900070B51546026C0446866B2AB905684DB3E1
:1006A00000200136A66370BD7DB94068FFF730FDBC
:1006B0006368226C1344A26863609342F0D323689A
:1006C000013628466360A66370BDC068FFF720FD51
:1006D000226CE36851429B1A2268E360934202D283
:1006E000A3680B44E360022DDAD1012E38BF012646
:1006F0000020D7E7806801F0E5F90136A560D1E771
:1007000070B50546FFF7A6FE95F845305CB2002CA3
:1007100014DD05F1240603E0631EDAB25CB26AB1AF
:100720006B6A5BB1304601F0A9F80028F4D001F003
:1007300069F9631EDAB25CB2002AF1D1FF2385F8B1
:100740004530FFF7A9FEFFF785FE95F844305CB20F
:10075000002C14DD05F1100603E0631EDAB25CB272
:100760006AB12B695BB1304601F088F80028F4D0FB
:1007700001F048F9631EDAB25CB2002AF1D1FF231E
:1007800085F84430BDE87040FFF786BE58B3C36BB0
:1007900070B50446F3B1056CA5FB0335D5B90E461B
:1007A000FFF758FED4E90F31FF2001FB03F3226865
:1007B000591A626013440A44A563C4E9023284F8FA
:1007C000440084F8450046BB2369ABB9FFF764FEDB
:1007D000012070BD4FF0500383F31188BFF36F8F7A
:1007E000BFF34F8FFEE74FF0500383F31188BFF341
:1007F0006F8FBFF34F8FFEE704F1100001F03EF85A
:100800000028E3D04FF0E0234FF08052C3F8042DCE
:10081000BFF34F8FBFF36F8FD8E704F11000FFF7DE
:10082000FDFE04F12400FFF7F9FECFE730B585B0F7
:100830009DF82050E3B1044688B1084672B171B109
:1008400050210391039950291BD04FF0500383F39B
:100850001188BFF36F8FBFF34F8FFEE719B34FF0CF
:10086000500383F31188BFF36F8FBFF34F8FFEE701
:100870004FF0500383F31188BFF36F8FBFF34F8F97
:10088000FEE70399012183F84610C3E90F401A607F
:10089000012118460193FFF779FF019B184683F861
:1008A0004C5005B030BD50220392039A502ACCD14F
:1008B0000121039A83F846101A46E6E72DE9F04134
:1008C00048B1A0FB013704460D4627B901FB00F0F3
:1008D00010F1510F08D94FF0500383F31188BFF383
:1008E0006F8FBFF34F8FFEE75030904601F090FBC3
:1008F000064668B180F846706DB100F150030121E1
:100900003046C6E90F453360FFF740FF86F84C805C
:100910003046BDE8F0810346F1E700BF2DE9F04322
:1009200085B00192002875D0044688461E460029ED
:1009300064D0022E0BD1E36B012B08D04FF0500393
:1009400083F31188BFF36F8FBFF34F8FFEE701F082
:100950005FF80546002866D000254FF0000907E043
:10096000FFF79AFD2046FFF7CBFE00F0CFFE0125F2
:10097000FFF770FDA26BE36B9A4264D3022E62D044
:10098000019F002F77D0002D59D0FFF785FD00F093
:10099000B5FEFFF75FFD94F84430FF2B08BF84F8E5
:1009A000449094F84530FF2B08BF84F84590FFF73A
:1009B00073FD01A902A800F0E1FF00285FD1FFF755
:1009C00049FDA26BE36B9A42CAD1FFF765FD01991D
:1009D00004F1100000F008FF2046FFF791FE00F040
:1009E00095FE0028C3D14FF0E0234FF08052C3F8AA
:1009F000042DBFF34F8FBFF36F8FB8E7036C002B4D
:100A000097D04FF0500383F31188BFF36F8FBFF37C
:100A10004F8FFEE74FF0500383F31188BFF36F8FC2
:100A2000BFF34F8FFEE7019B002B96D04FF0500392
:100A300083F31188BFF36F8FBFF34F8FFEE702A8D8
:100A400000F090FFA1E7324641462046FFF720FE26
:100A5000636ADBB948B14FF0E0234FF08052C3F82E
:100A6000042DBFF34F8FBFF36F8FFFF715FD0120EC
:100A700005B0BDE8F083FFF70FFD3846F8E72046E4
:100A8000FFF73EFE00F042FE0020F1E704F12400F3
:100A900000F0F4FE0028E8D0DDE700BF2DE9F043C8
:100AA00085B00192002800F0A18004460D4600297F
:100AB00047D000F0ADFF00284FD0FFF7CBFCA66B6E
:100AC000002E67D1019B002B35D002A800F04AFF11
:100AD00037464FF0E02904F12408FFF7DDFC00F071
:100AE0000DFEFFF7B7FC94F84430FF2B08BF84F8E5
:100AF000447094F84530FF2B08BF84F84570FFF729
:100B0000CBFC01A902A800F039FF002831D1FFF782
:100B1000A1FCA36B002B53D0FFF7BEFC2046FFF7D0
:100B2000EFFD00F0F3FDFFF795FCA66B002E31D131
:100B3000019B002BD1D1FFF7AFFC002005B0BDE831
:100B4000F083036C002BB4D04FF0500383F3118873
:100B5000BFF36F8FBFF34F8FFEE7019B002BACD02D
:100B60004FF0500383F31188BFF36F8FBFF34F8FA4
:100B7000FEE72046FFF7C4FD00F0C8FDFFF76AFC62
:100B8000A36B002BD7D0FFF787FCFFF763FCA66BA6
:100B9000002ECDD0226C5AB1E168A368114499426D
:100BA000E16028BF2168284628BFE160FFF7B0FA5E
:100BB000013EA663236913BBFFF76EFC0120BDE76E
:100BC000FFF76AFC4046019900F00EFE2046FFF751
:100BD00097FD00F09BFD0028D7D14FF08053C9F856
:100BE000043DBFF34F8FBFF36F8FCEE74FF050033D
:100BF00083F31188BFF36F8FBFF34F8FFEE704F1CC
:100C0000100000F03BFE0028D6D04FF0E0234FF05C
:100C10008052C3F8042DBFF34F8FBFF36F8FCBE724
:100C2000F0B585B00191002855D0066C044646B158
:100C30004FF0500383F31188BFF36F8FBFF34F8FD3
:100C4000FEE700F0E5FE054600284DD03546FFF7EB
:100C500001FCA36B00278BBB019B002B00F09B804A
:100C6000002D59D0FFF718FC00F048FDFFF7F2FB0C
:100C700094F84430FF2B08BF84F8447094F8453052
:100C8000FF2B08BF84F84570FFF706FC01A902A8F6
:100C900000F074FE002833D1FFF7DCFBA36B002BC0
:100CA00044D0FFF7F9FB2046FFF72AFD00F02EFDA8
:100CB000FFF7D0FBA36B0125002BCDD02268013BB1
:100CC000A363002A00F083802369002B6ED1FFF715
:100CD000E3FB012627E04FF0500383F31188BFF3B5
:100CE0006F8FBFF34F8FFEE7019B002B39D04FF082
:100CF000500383F31188BFF36F8FBFF34F8FFEE76D
:100D00002046FFF7FDFC00F001FDFFF7A3FBA36BFE
:100D100033B1FFF7C1FBCBE702A800F023FEA1E748
:100D2000FFF7BAFBFEB9304605B0F0BDFFF7B4FBE4
:100D300023683BB3019904F1240000F055FD2046DF
:100D4000FFF7DEFC00F0E2FC0028B1D14FF0E02319
:100D50004FF08052C3F8042DBFF34F8FBFF36F8F56
:100D6000A6E7064673E7FFF775FB616A19B1236BC7
:100D70001968C1F13801A06800F0F6FE0026FFF7FF
:100D80008BFBD0E7FFF766FBA06800F051FE06463C
:100D9000FFF782FBCEE7002EF1D04FF0500383F334
:100DA0001188BFF36F8FBFF34F8FFEE704F1100080
:100DB00000F064FD00288AD04FF0E0234FF080520D
:100DC000C3F8042DBFF34F8FBFF36F8F7FE700F0A1
:100DD00025FFA06078E700BF30B330B40D4679B18D
:100DE00000242346164901EBC30252684FEAC30CA4
:100DF000824214D034B10133082BF4D1C4E900503D
:100E000030BC704751F83320BAB10133082B01EBE5
:100E1000C3024FEAC30CF3D052689042F2D101EB07
:100E20000C04C4E90050EBE74FF0500383F3118842
:100E3000BFF36F8FBFF34F8FFEE701EB0C04DAE7D0
:100E40007817002070B504460E461546FFF702FBE2
:100E500094F84430FF2B04BF002384F8443094F806
:100E60004530FF2B04BF002384F84530FFF714FB07
:100E7000A36B23B12046BDE87040FFF741BC04F1ED
:100E800024002A46314600F0C9FC2046BDE87040E7
:100E9000FFF736BC2DE9F8430546FFF7DBFA3C4A7D
:100EA0003C4F1368013313603B68002B41D03A4C30
:100EB0002368002B35D0EB6A384E394939480A6827
:100EC00005F1040E01326A640A6002689A4238BF72
:100ED000036003EB830306EB830042689B00916889
:100EE000AA60E960D2F808C0F158CCF804E00131FA
:100EF000C2F808E06861F150FFF7CEFA236873B1D9
:100F00003A68EB6AD26A9A4209D24FF0E0234FF076
:100F10008052C3F8042DBFF34F8FBFF36F8FBDE82E
:100F2000F8833A68EB6AD26A1C4E9A4298BF3D60D9
:100F3000C3E73D601368012B03D0EB6A174E164CD4
:100F4000BBE7164E344606F58C6820461434FFF78E
:100F500065FBA045F9D1DFF85090DFF85080484696
:100F6000FFF75CFB4046FFF759FB1148FFF756FBC4
:100F70001048FFF753FB1048FFF750FB0F4B064C90
:100F8000C3F800900E4BC3F80080EB6A95E700BFF2
:100F9000241C0020B8170020801C0020C41700204B
:100FA000301C0020341C0020381C00204C1C002069
:100FB0006C1C0020981C0020841C0020BC17002002
:100FC000C0170020F8B505461B4B1C4E1C68306846
:100FD0000F460430FFF74AFB6B1C17D033686419C7
:100FE0005C6007D3164B18683168BDE8F8400431DF
:100FF000FFF724BB134B186831680431FFF71EFB61
:10100000114B1A68A24288BF1C60F8BD002FE5D0C2
:101010000E4B30685A68316882609068C8603168E9
:1010200090680431416030683468196804300131D7
:10103000906019606361F8BDAC1C0020B8170020F7
:10104000C0170020BC170020601C0020841C00205A
:1010500010B50446583004F067FB94F8853463B14A
:10106000012B13D0022B10D04FF0500383F31188C3
:10107000BFF36F8FBFF34F8FFEE7206B01F068F86F
:101080002046BDE8104001F063B810BD2046BDE821
:10109000104001F05DB800BF4FF0E0294FF08058DC
:1010A00080B5134C134E144DDFF850A011E0FFF73C
:1010B000D1F9F368DF68381DFFF7D8FA2B68013BD8
:1010C0002B602368013B2360FFF7E6F93846FFF702
:1010D000BFFF2368002BEAD1DAF80030012BF8D9E2
:1010E000C9F8048DBFF34F8FBFF36F8FF1E700BFD7
:1010F000281C0020981C0020241C0020C41700205D
:101100002DE9F0478A460A9C95000746A5212A4604
:10111000206B9846089E04F091FAD4F83090BAF10A
:10112000000F5CD00AF1FF320AF10F0304F1330C17
:1011300012F8011F0CF8011F09B19A42F8D10023DF
:1011400084F84330372E08D94FF0500383F31188C9
:10115000BFF36F8FBFF34F8FFEE74FF0000AE662D9
:10116000E664201DC4F850A0FFF764FAC6F1380603
:1011700004F11800FFF75EFA51464FF48562A6614C
:1011800024616462C4F880A484F884A404F1580043
:1011900004F054FA0B23394601260027043D4D4440
:1011A00025F007000F4DA4F81431C4F808510E4B78
:1011B0000E4D4246C4E9435304F55173E36504F50B
:1011C0006B73236604F214436366C4E94067FFF758
:1011D0001BF9099B206003B11C60BDE8F08784F80F
:1011E00034A0AFE70E33CDABECDE050034126DE674
:1011F0002DE9F04F5C4B83B01D6801351D60002D5B
:1012000000F08180594B0193019B1B689D4261D383
:10121000574E33681B68002B00F0A1804FF0000E82
:10122000544C7746A446DFF850B1DFF85081009562
:1012300042E05969D3E9022595606A604A688242B2
:101240000A6808BF4D60013A5F610A60996A61B13E
:10125000D3E90752AA601A6A55604D68A54208BFD3
:101260004A600A689F62013A0A60DA6AD8F8001098
:1012700002EB82050CEB85098A42D9F8041088BF7D
:10128000C8F800208C689960DC605CF82540D1F8D3
:1012900008A00134CAF804008860C3F814904CF820
:1012A0002540DBF800103368C96A1B688A4228BFF2
:1012B0004FF0010E002B45D033680099DB68DB68E6
:1012C0005A68181D914203F11804B2D2019B64467A
:1012D0001A6004E04FF0000E264CDFF89CB0DBF8FB
:1012E00000302749DB6A03EB83039B00E2580B685D
:1012F000022A28BF4FF0010E002B0CBF70460120C0
:1013000003B0BDE8F08F1A4B1A68126842B14FF073
:10131000500383F31188BFF36F8FBFF34F8FFEE746
:10132000184A186811681960174910600A68013274
:101330000A601A6812685AB94FF0FF330B4A0192DB
:10134000136061E764464FF0FF33019A1360C6E70C
:101350001B68064ADB6801921B68136054E79E46CF
:10136000044CDFF814B0EEE7AC1C0020601C002039
:10137000BC170020C4170020B8170020341C002020
:10138000B01C0020C0170020641C00202DE9F04F85
:10139000584F83B0FFF75EF83B68013B3B60D7F8DE
:1013A00000E0BEF1000F40F09580534B1B68002B0E
:1013B00000F09080DFF844C1DCF80030002B00F032
:1013C00095807546DFF838B1DFF838814E4EDFF88A
:1013D0003C91CDF804B0DCF80C30DB689A6AD3E9B4
:1013E000070181604860506803F11804A04208BFFB
:1013F000516011689D62013911605A69D3E9021088
:1014000088604160516803F1040A5145116808BFC2
:10141000506001391160DA6AD8F8001002EB8200DE
:1014200006EB800B8A42DBF8041088BFC8F8002066
:101430008C689960DC6056F82040D1F808E00134EF
:10144000CEF804A0C1F808A0C3F814B046F82040B4
:10145000D9F80030DB6A9A4202D30123019A136063
:10146000DCF80030002BB6D1294BDDF804B01A6847
:101470001268002A35D01A68264BD26812681A60A2
:10148000254D2C6894B1012606E0FFF7B1FE08B1A6
:10149000CBF80060013C08D03B68002BF5D02B68EE
:1014A000013C03F101032B60F6D12C60DBF8003026
:1014B00083B14FF0E0234FF08052C3F8042DBFF307
:1014C0004F8FBFF36F8F0124FEF7E6FF204603B076
:1014D000BDE8F08F0024FEF7DFFF204603B0BDE833
:1014E000F08F4FF0FF320B4B1A60C9E7DFF810B0F6
:1014F000C6E700BF2C1C0020241C00206C1C002010
:10150000B01C0020341C0020C4170020B817002095
:10151000BC170020601C0020681C002030B587B07C
:101520000B9CD4B10C9D7DB14FF491650595059D43
:10153000B5F5916F1AD04FF0500383F31188BFF3C4
:101540006F8FBFF34F8FFEE74FF0500383F3118887
:10155000BFF36F8FBFF34F8FFEE74FF0500383F35E
:101560001188BFF36F8FBFF34F8FFEE70C9D2C6385
:10157000022402950A9D0095059D04AD01950C9DE0
:1015800085F88544FFF7BCFD0C98FFF783FC0498B1
:1015900007B030BD2DE9F043074685B090001546F1
:1015A0008846994600F034FDE0B104464FF491605E
:1015B00000F02EFD0646D0B10463002486F8854471
:1015C0000D9C4B4601940C9C2A4641463846029697
:1015D0000094FFF795FD3046FFF75CFC012005B055
:1015E000BDE8F0834FF0FF3005B0BDE8F083204642
:1015F00000F0AEFD4FF0FF30F1E700BF10B550B97D
:101600004FF0E0234FF08052C3F8042DBFF34F8F0B
:10161000BFF36F8F10BD104C216841B14FF05003E4
:1016200083F31188BFF36F8FBFF34F8FFEE72368FB
:1016300001332360FFF7C6FC236843B94FF0500322
:1016400083F31188BFF36F8FBFF34F8FFEE7FFF770
:101650009DFE0028D4D010BD2C1C002030B50024E5
:1016600089B007AA06A905A8CDE90544FEF780FEC2
:10167000DDE905012346CDE90110079A174918480D
:101680000094FFF74BFFD0B100F060FC01281AD1A5
:101690004FF0500383F31188BFF36F8FBFF34F8F69
:1016A0004FF0FF350F4B104A1B6810495833136039
:1016B0000F4A104B0D6010601C60FEF74FFF0E4B81
:1016C0001B6809B030BD0130F9D14FF0500383F3EE
:1016D0001188BFF36F8FBFF34F8FFEE73C5B0008AD
:1016E00099100008B817002018000020601C002086
:1016F000801C0020AC1C002004000020024A13685B
:1017000001331360704700BF2C1C0020064B1B6880
:1017100043B94FF0500383F31188BFF36F8FBFF3CA
:101720004F8FFEE7FFF732BE2C1C0020014B1868DC
:10173000704700BFAC1C0020054B1B680BB9FFF7BE
:1017400057BD044A0020136801331360704700BF7F
:101750002C1C0020681C00201D4B1B681BB10122A3
:101760001C4B1A6070471B4A10B41B4C1360236853
:101770001A4903EB830292008A58980042B9F3B1E8
:10178000013B03EB830251F822209800002AF6D097
:10179000C21801EB82000246416808324968914252
:1017A000416008BF49680E4A08BF4160C8680D49DA
:1017B00010602360136810BC58330B6070474FF003
:1017C000500383F31188BFF36F8FBFF34F8FFEE792
:1017D0002C1C0020B01C0020341C0020C41700204A
:1017E000B81700201800002060B110B50C460A4B55
:1017F00019681831FEF722FF2046BDE8104001218C
:10180000FFF7E0BB4FF0500383F31188BFF36F8FF6
:10181000BFF34F8FFEE700BFB8170020034608B3A1
:1018200008461146144AF0B45C681568A668EC6175
:10183000156800292E621668156817681A68D4F8AA
:1018400008C006F1180605F1180502F10102CCF8EE
:10185000046018BF4FF0FF30A560BB621A60F0BC97
:10186000FFF7B0BB4FF0500383F31188BFF36F8FC6
:10187000BFF34F8FFEE700BFB8170020C368DB68D7
:10188000002B5AD0D3E90701F0B400259A6A816091
:101890004860506803F11804A04208BF5160116805
:1018A0002A4801399D6211600268BAB128494A6824
:1018B0009068C3E90720906844600868946001302C
:1018C000DA6A9962234B08601B68DB6A934231D263
:1018D000F0BC0123204A1846136070475A69D3E9C7
:1018E00002108860D8681E1D416051681B4CB142CF
:1018F000116808BF50600139194811600168DA6A3F
:101900008A4202EB820104EB810788BF026078689B
:10191000890085689860DD60D0F808C06558CCF80B
:101920000460013586605F610A4B65501B68DB6AA5
:101930009342CDD3F0BC002070474FF0500383F3A7
:101940001188BFF36F8FBFF34F8FFEE72C1C002071
:101950006C1C0020B8170020B01C0020C417002009
:10196000341C0020034A044B12681B68C0E90023A2
:10197000704700BF641C0020AC1C0020F8B508B301
:101980000D46B1B10446FEF765FD2B681B4A581C95
:1019900011682DD0D4E900C0194E3768BC451AD063
:1019A000884218D8002301262B60FEF775FD3046CB
:1019B000F8BD4FF0500383F31188BFF36F8FBFF36F
:1019C0004F8FFEE74FF0500383F31188BFF36F8F03
:1019D000BFF34F8FFEE7A1EB000C6345E2D95B1A22
:1019E0003168126803442B600026C4E90012DCE76A
:1019F0000026FEF751FD3046F8BD00BFAC1C0020AC
:101A0000641C00200122014B1A607047B01C0020AA
:101A1000054B1B6833B1054B1B68002B0CBF022024
:101A20000020704701207047801C00202C1C0020E3
:101A3000F8B50446C8B1204DC36A2A68D26A9342F9
:101A400014D28269002A04DB2A68D26AC2F1380201
:101A500082611A4E626903EB830306EB83039A42A9
:101A60000CD001202B68DB6AE362F8BD2B68C06CE8
:101A7000DB6A98422CBF00200120F8BD271D3846A4
:101A8000FEF7F4FD2B680E4ADB6A1168E3628B42B5
:101A900088BF136003EB83039D0006EB83035A6842
:101AA0009168A260E1607159906801314760976068
:101AB000012063617151F8BDB8170020C4170020E0
:101AC000341C002010B3254B70B51B6804468342BC
:101AD00008D04FF0500383F31188BFF36F8FBFF32B
:101AE0004F8FFEE71B6D43B1C16AC26C013B91424F
:101AF000036500D063B1002070BD4FF0500383F345
:101B00001188BFF36F8FBFF34F8FFEE70020704740
:101B1000051D2846FEF7AAFD0120E36C104AC3F11B
:101B20003801A1611168E3628B420E4988BF1360DE
:101B300003EB83034FEA830E01EB83035A68D2F869
:101B400008C0A260C4F80CC051F80EC09668844466
:101B500075609560636141F80EC070BDB8170020D4
:101B6000341C0020C4170020002847D0036D70B536
:101B700004464BB1C06CE26A814238BF01468A42DA
:101B800001D0012B09D070BD4FF0500383F31188B1
:101B9000BFF36F8FBFF34F8FFEE71D4B1B68A34250
:101BA0002DD0A369E162002BA8BFC1F13801194D06
:101BB000A8BFA16102EB8202616905EB8203994231
:101BC000E1D1261D3046FEF751FD134AE36A116844
:101BD0008B4288BF136003EB8303980005EB8303FC
:101BE0005A689168A260E1602958D2F808C00131B2
:101BF000CCF8046096606361295070BD70474FF067
:101C0000500383F31188BFF36F8FBFF34F8FFEE74D
:101C1000B8170020C4170020341C0020044B1A6899
:101C20001AB119680A6D01320A651868704700BF59
:101C3000B8170020F0B5124C83B0FEF70BFC2568F6
:101C400025B103B0BDE8F040FEF726BC0D4F0E4EA7
:101C50003846FEF7E3FC3046FEF7E0FC0B4A009501
:101C600017600B4A102116600A200A4B0A4AFEF739
:101C7000DDFD20600028E4D00849FFF7ADF8E0E77B
:101C8000D81D00205C1D0020701D0020B41C002009
:101C9000B81C0020881D0020BC1C0020445B0008EC
:101CA00070B50446164605E0934218D82046236ACC
:101CB00098472946A369721A5D182CBF012000209D
:101CC000B54265602461EFD9B14201D90028EDD059
:101CD000064B211D1868BDE87040FEF7AFBC044BF1
:101CE000211D1868BDE87040FEF7A8BCB41C002098
:101CF000B81C0020104A70B512680546D2680E461E
:101D0000D468201DFEF7B2FC94F828305A0708D496
:101D100023F0010384F828302046236ABDE8704090
:101D20001847204632462946FFF7BAFF2046236A65
:101D3000BDE87040184700BFB41C00202DE9F043F7
:101D40007E4D7F4E7F4F804C85B02B68D3F800903E
:101D5000B9F1000F00F0BE80DB68D3F80090FFF708
:101D6000CDFCFFF7E3FC33688046834243D88145CE
:101D7000306040F2CA8000222068A9EB0801FFF71A
:101D800061F8FFF7C3FC48B94FF0E0234FF08052F1
:101D9000C3F8042DBFF34F8FBFF36F8F0022694646
:101DA0002068FEF77BFE0028CFD0009B002BC0F2FE
:101DB0008880DDF80880D8F814301BB108F10400E1
:101DC000FEF754FCFFF7B2FC33688146984224D3F7
:101DD000009BC6F80090013B082BDFD8DFE803F03A
:101DE00025256149682525614900DB684FF0FF31F1
:101DF0001868FFF77FFF2B681A68002AF5D13A6848
:101E0000C6F800802A603B60FFF780FCC6E7DB680D
:101E10004FF0FF311868FFF76DFF2B681A68002A32
:101E2000F5D13A683B602A60D2E798F82800019B18
:101E3000D8F8182040F0010C991888F828C02CBF59
:101E40004FF0010C4FF0000C4945C8F80410C8F8D9
:101E500010804FD8A9EB03039A421CD843075FD4E4
:101E600020F0010088F828004046D8F82030984734
:101E700094E798F82820019B42F0010288F8282076
:101E8000C8F81830002B50D04B444B45C8F80430EC
:101E9000C8F8108033D8386808F10401FEF7CEFB8B
:101EA0007CE798F8283023F0010388F8283075E79C
:101EB00098F828309A072FD523F0010388F82830A6
:101EC0006CE7019BDDE902019847009B002BFFF6C0
:101ED00065AF6EE7FFF712FCFFF728FC336880461A
:101EE000984288D33B68C6F800801A68B2FA82F23A
:101EF000520941E74B4502D9BCF1000FAED028682A
:101F000008F10401FEF79AFB48E7FFF7FFFB4146A3
:101F10004846FFF7EFFE41E7404600F019F93DE77C
:101F20004A464046FFF7BCFE9EE74FF0500383F35E
:101F30001188BFF36F8FBFF34F8FFEE7B41C0020F3
:101F4000841D0020B81C0020D81D002030B589B0A9
:101F5000FFF770FE124B1B68CBB10024022507AAC5
:101F600006A905A8CDE90544FEF710FADDE905014B
:101F70002346CDE90110079A0A490B480095FFF75F
:101F8000CDFA0A4B186010B1012009B030BD4FF0F6
:101F9000500383F31188BFF36F8FBFF34F8FFEE7BA
:101FA000D81D00204C5B00083D1D0008DC1D0020F2
:101FB00010B4154B1A461B688342FBD3516802EBE1
:101FC000010C60450AD0416800EB010C63450DD05F
:101FD0009042036010BC18BF106070474468104600
:101FE000214400EB010C63455160F1D1074C24689A
:101FF000A342EDD018CB90422144C0E9003110BC7F
:1020000018BF1060704700BFF8410020E01D00209D
:102010002DE9F041474E0446FFF770FB3368002B73
:1020200067D0454B1D682C423AD1631E0A3337D81E
:10203000600704F1080127D1DFF80081D8F80070AB
:102040008F422DD33E4B18461C6803E0236823B112
:1020500020461C4662688A42F8D33368A3421FD0E8
:10206000236806680360531A102B06F1080622D96C
:10207000601842071AD04FF0500383F31188BFF362
:102080006F8FBFF34F8FFEE721F0070308338B42BA
:1020900006D91946DFF8A480D8F800708F42D1D253
:1020A000FFF734FB00263046BDE8F08143606160F5
:1020B000FFF77EFF6268234BBF1A19682A438F42DD
:1020C0004FF000016260204A38BF1F601368216032
:1020D00001331360C8F80070FFF718FB7307E2D0F4
:1020E0004FF0500383F31188BFF36F8FBFF34F8F0F
:1020F000FEE7164B00215D070EBF1A46DA1D22F0DF
:10210000070210464FF0004703F51053083B23F039
:1021100007030B4D9A1AC5E900013360C3E90011AA
:10212000C0E90032074B3D461A60044B1A60024B6F
:102130001F6078E7E01D0020E4410020E841002016
:10214000F8410020EC410020F0410020E41D002077
:10215000D0B11C4A50F8043C126813420BD050F81E
:10216000081C91B14FF0500383F31188BFF36F8FB8
:10217000BFF34F8FFEE74FF0500383F31188BFF397
:102180006F8FBFF34F8FFEE7704700B523EA02035E
:1021900083B040F8043C0190FFF7B0FA0A4A019876
:1021A000116850F8043C08380B441360FFF700FF37
:1021B000064A13680133136003B05DF804EBFFF7C0
:1021C000A5BA00BFE4410020E8410020F44100200E
:1021D000014B1868704700BFE8410020074A08B566
:1021E0001368032043F01003136000F01BF80F2066
:1021F00002F046F902F01CF9002008BD0020024060
:10220000034A044B11681B780B441360704700BFEE
:102210000042002008000020014B1868704700BFF2
:1022200000420020C31E042B10B504460ED84FF602
:10223000FF01094A2302D46803F4E0630C402343FE
:1022400043F0BF6343F40033D36010BD92210348D1
:1022500002F090F8EBE700BF00ED00E0545B0008EF
:102260000F2A70B5164605460C4637D80F2C30D8C5
:102270001D4BDB68C3F30223C3F10700042803F1FD
:10228000040228BF0420062A18D94FF0FF32033B6E
:102290009A4026EA02064FF0FF31814024EA010409
:1022A0009C40002D44EA06040BDB240105F1604547
:1022B000E4B205F5614585F8004370BD002633465C
:1022C000E9E70A4B05F00F052401E4B22B441C7624
:1022D00070BDAB21064802F04DF8C9E7AA210448B9
:1022E00002F048F8C2E700BF00ED00E0FCEC00E0BF
:1022F000545B0008002808DB012300F01F01054A99
:1023000040098B4042F820307047BE21024802F05D
:1023100031B800BF00E100E0545B00082DE9F04F48
:10232000AC4B064698420F4683B013D003F580634A
:1023300098420FD003F5806398420BD003F5806379
:10234000984207D003F58063984203D0BD21A2488C
:1023500002F010F839688BB223B10B0C1B04002B70
:1023600000F01881BE219C4802F004F87B68012B24
:102370001AD9A3F11102012A16D99A1E012A13D9DA
:10238000964923F400128A420ED001F580118B4247
:102390000AD0A1F570218A4206D0914A934203D017
:1023A000BF218D4801F0E6FF3968002900F0CB809D
:1023B0004FF0000A874B5546DFF828B2DFF8289225
:1023C0008A4A04E0013531FA05F000F0BC800124AE
:1023D000AC4034EA010004EA0108F3D19E4212D075
:1023E000964210D082498E420DD001F580618E4216
:1023F00009D001F580618E4205D0CD21764801F0EB
:10240000B9FF7A4A734B7968122900F29F8012292A
:1024100023D8DFE811F0A800F300D7001101220053
:10242000220022002200220022002200220022009C
:102430002200220022002200D000C900A0F5801056
:10244000814200F0908000F57020814200F08B8086
:10245000A0F58010814200F08680B8F1FF0F00F2F5
:102460008D8034464FEA850E0F2021680AFA0EFC53
:1024700000FA0EFE21EA0E0141EA0C0121607968A2
:10248000CC0040F18580DBF8184005F0030C44F0E7
:102490000104CBF81840DBF818404FEA8C0C04F02C
:1024A00001040194019C25F0030404F1804404F527
:1024B0008034D4F808E000FA0CF09E422EEA0000C6
:1024C00013D0964200F0B180DFF824E1764500F0A9
:1024D000A580DFF820E176450CBF4FF0030E4FF0EA
:1024E000040E0EFA0CFC40EA0C00A060D9F80000C3
:1024F000CC034CBF40EA080020EA0800C9F80000FD
:10250000D9F804008C034CBF40EA080020EA080018
:10251000C9F80400D9F80800CC024CBF40EA080012
:1025200020EA0800C9F8080011F4001FD9F80C10BF
:102530002AD041EA0801C9F80C103968013531FA8E
:1025400005F07FF444AF03B0BDE8F08F244881422A
:1025500009D07FF673AF2848814204D000F580305F
:1025600081427FF47AAFB96802296FD8002966D119
:10257000B8F1FF0F4FF0040A7FF673AF4FEA850EF4
:10258000AEF1200E341D6FE721EA0801C9F80C10E6
:10259000396817E77B68012B7FF60AAFA3F11102B8
:1025A000012A3FF6EAAEFFE6F968481E022857D82E
:1025B00001F10C0A51E7F968481E022860D801F1C0
:1025C000040A4AE7F968481E022851D801F1080AAE
:1025D00043E700BF000801407C5B000800001110C9
:1025E000000022100010024000040140000C0140D5
:1025F000001001400014014000003110D7F80CA079
:102600000AF1FF3102297FF628AFD521204801F0D9
:10261000B1FED7F80CA01F4B1F4A1EE74FF0020E69
:102620000EFA0CFC40EA0C005FE74FF0010E0EFAC8
:102630000CFC40EA0C0058E74FF0000A0DE70129B6
:102640004FF0080A0CBF3461746106E7F7211048A7
:1026500001F090FEB968104A0E4B002988D0EEE7D1
:10266000EA210B4801F086FEF9680B4A094B9FE707
:10267000E321074801F07EFEF968074A054BA5E70C
:10268000DC21034801F076FEF968034A014B96E726
:102690007C5B000800080140000C014038B505468D
:1026A0000C4629B1AB681C4214BF0120002038BD84
:1026B0004FF4DA71014801F05DFEF3E77C5B00083E
:1026C00070B506460C46154661B1012D03D805B913
:1026D0002404346170BD40F2D511054801F04AFE72
:1026E000346170BD4FF4EA71014801F043FEECE73C
:1026F0007C5B00082DE9F84380460E461746994654
:10270000D8F8004004E065696A0509D47B1C21D132
:10271000606926EA000080B20028F4D1BDE8F883A1
:1027200000226FF4806520212368012043F40073A8
:1027300023606561C8F8302088F83D1088F83E2095
:10274000D8F8403088F83C2043F00403C8F8403003
:10275000BDE8F883FFF760FDA0EB0900B84201D89F
:10276000002FCDD100222023C8F8302088F83D303A
:1027700088F83E20D8F84030012043F0200388F844
:102780003C20C8F84030C9E7F8B505460E46174664
:102790002C6801E0731C19D1636913F0800313D115
:1027A00060694205F6D56FF48061202261612B6378
:1027B00085F83D2085F83E302A6C85F83C3042F0A3
:1027C000040201202A64F8BD0020F8BDFFF724FDB3
:1027D000C01BB04201D8002EDAD1002220232A6388
:1027E00085F83D3085F83E202B6C85F83C2043F081
:1027F000200301202B64F8BDF8B505460E461746A8
:102800002C6801E0731C19D1636913F0040313D120
:1028100060694205F6D56FF48061202261612B6307
:1028200085F83D2085F83E302A6C85F83C3042F032
:10283000040201202A64F8BD0020F8BDFFF7ECFC7B
:10284000C01BB04201D8002EDAD1002220232A6317
:1028500085F83D3085F83E202B6C85F83C2043F010
:10286000200301202B64F8BD002800F0358138B525
:102870009A4A03680446934208D002F58062934264
:1028800004D040F2D111964801F074FD6368954A76
:10289000013B934200F20781A36833F4804340F088
:1028A000DD80E36823F47F7323F00303002B40F003
:1028B000E280236923F40043B3F5804F04D040F253
:1028C000D511874801F056FD6369012B00F2D980CC
:1028D000A36933F0FE0340F0DE80E36933F0400388
:1028E00004D04FF4EC717E4801F044FD236A33F0CC
:1028F000800340F0A18094F83D3003F0FF02002BEC
:1029000000F0A6802422236884F83D201A6822F073
:1029100001021A601A6842F400421A601A6822F42E
:1029200000421A6000F0B6FD63686F498B4251D8CF
:102930006E4A904240F2B5806D4D5A00A5FB0035BD
:10294000431EB3FBF2F340F6FC7E2268A90C5068EC
:1029500001F1010C20F03F0040EA95405060116AFF
:10296000013321F03F0141EA0C011162D16913EA00
:102970000E0F21F44F4121F0FF0140F09A80042313
:102980000B43D3611168D4E9073021F0C001034340
:102990000B4313609168D4E9030321F4034103431B
:1029A00021F0FF010B439360D068D4E9053120F09A
:1029B000FF000B430343D3601368002143F001037E
:1029C00013602023216484F83D30216384F83E1095
:1029D000084638BD474A904263D9454DA5FB002CB7
:1029E0004FF496724FEA9C4102FB01F1424D22687E
:1029F000A5FB01515568890925F03F0545EA9C452D
:102A00005560156A013125F03F0529431162D169EE
:102A1000A56821F44F4121F0FF01002D4CD1013870
:102A200003EB4303B0FBF3F30133C3F30B03002BBE
:102A300050D043F40043A3E740F2D911284801F0F5
:102A400099FC94F83D3003F0FF02002B7FF45AAF5D
:102A5000204684F83C2001F005FC53E740F2D311F6
:102A60001F4801F087FCE36823F47F7323F003031E
:102A7000002B3FF41EAF4FF4EA71194801F07AFCC5
:102A800017E74FF4EB71164801F074FCA36933F0BB
:102A9000FE033FF422AF40F2D711114801F06AFC67
:102AA0001BE7012038BD4FF4E9710D4801F062FCCD
:102AB000F2E6C3F30B0363E703EB8303013803EB95
:102AC0008303B0FBF3F30133C3F30B0313B143F4FC
:102AD000404355E7012353E701207047005400406D
:102AE000A05B00087F1A0600A08601007F841E00FC
:102AF00083DE1B43FF083D00D34D62102DE9F047F4
:102B0000044682B09946884692460A9FFFF784FBA6
:102B100094F83D30202B05D04FF00208404602B01B
:102B2000BDE8F087064605E0FFF776FB801B192815
:102B300000F2C28023689D696FEA050C1CF0020553
:102B4000F2D094F83C20012AE6D0012284F83C20FF
:102B50001A68D50740F18F800021212510201A68BE
:102B600022F400621A6084F83D5084F83E0021642B
:102B7000A4F82A90628DA1F58031E1622285E26A93
:102B8000C4F824A0082A06D0012A04D08A4202D020
:102B9000226B122A06D11A6842F480721A6001E090
:102BA000781C5FD15A69D207FAD52269B2F5804FF5
:102BB00066D108F0FE01196133463A46204657496E
:102BC000FFF798FD8046002870D1236801905A696C
:102BD00001929B690193019B34E0324639462046BD
:102BE000FFF7D2FD00285ED1D4F824E0D4F800C06D
:102BF000734613F801ABB4F82890CCF810A06362C8
:102C0000638D09F1FF35013B9BB26385DCF814301D
:102C1000ADB25B0732463946204625850FD575B1E2
:102C20009EF80130A9F10209CCF810300EF1020330
:102C30006362638DA4F82890013B9BB26385FFF724
:102C4000DBFD80BB238D002BC7D121680A6842F4CD
:102C500000720A60202284F83C3084F83D2084F819
:102C60003E305BE7FFF7D8FA801B874236D3002F50
:102C700034D0236896E71A6842F001021A606BE7C5
:102C80004FEAE81202F0060242F0F0021A61204612
:102C900033463A462249FFF72DFD38B922685FFADC
:102CA00088F3136188E7236C042B2ED04FF00108C2
:102CB000404602B0BDE8F0874FF0020820234046AE
:102CC000256384F83D3084F83E50236C84F83C50F2
:102CD00043F02003236402B0BDE8F08700222023E4
:102CE000226384F83D3084F83E20236C216843F051
:102CF000200384F83C2023640B68D905D6D54FF413
:102D000000734FF00108236408E722684FF00108C0
:102D1000136843F40073136000E700BF0200010072
:102D200008000100002800F05A822DE9F0410368F4
:102D3000044682B0002B00F084801E0700F0C5819D
:102D4000DD0734D5636833F4803203D0B3F5A02FA8
:102D500040F09D819F4A536803F00C03042B1DD063
:102D6000536803F00C03082B15D06368B3F5803F5C
:102D700000F07A81002B00F0AF81B3F5A02F00F0B6
:102D80000882944B1A6822F480321A601A6822F47E
:102D900080221A606DE15368D803E6D58D4B1B681D
:102DA000990303D56368002B00F0778123689F07A0
:102DB0001ED52369012B00F2198163691F2B00F2D4
:102DC0001E81844B5A6812F00C0F40F0DE80814B5C
:102DD0001B689D0703D52369012B40F05E817D4A66
:102DE0006169136823F0F80343EAC10313602368A1
:102DF0001A0726D5A369012B00F21881002B00F0D9
:102E000004810122744B734EC3F88024FFF704FA47
:102E1000054605E0FFF700FA401B022800F2518149
:102E2000736A9B07F6D56D4B6D4A1B68A2FB0323A3
:102E30005B0A019300BF019B5A1E0192002BF9D13E
:102E400023685D073FD5E368012B06D9052B04D025
:102E500040F21121634801F08DFA5E4BDA69D0002F
:102E600040F1ED800025604E3368D90540F11981AD
:102E7000E368012B0FD0002B00F04481052B554B4C
:102E80001A6A00F0938122F001021A621A6A22F093
:102E900004021A6204E04F4A136A43F0010313620A
:102EA000FFF7BAF941F2883806464A4F05E0FFF7C6
:102EB000B3F9801B404500F204813B6A9B07F6D5BD
:102EC000002D40F06081E069022800F2C3800028F4
:102ED00057D0404D6B6803F00C03082B00F0438182
:102EE000022840F06B81236A33F4803304D04FF41E
:102EF0002E713C4801F03EFA636A33F4402223F419
:102F0000802110D0B2F5801F0DD0B2F5001F0AD07D
:102F1000B1F5401F07D0B3F5601F04D040F2B921CE
:102F2000304801F027FA00222B4B2A4E1A66FFF791
:102F300073F9054605E0FFF76FF9401B022800F220
:102F4000C08033689901F6D4226AB2F5803F00F060
:102F5000488101201F4D616A6B6823F474130B4391
:102F60001D4913436B600866FFF756F9044605E0F8
:102F7000FFF752F9001B022800F2A3802B689A0188
:102F8000F6D5002002B0BDE8F0815A6802F00C02CC
:102F9000082A00F0E3802369002B00F0CE80012294
:102FA0000D4B0C4E1A60FFF737F9054605E0FFF7A9
:102FB00033F9401B022800F2848033689807F6D565
:102FC0003368626923F0F80343EAC203336023687D
:102FD0000EE700BF00100240000042421000002037
:102FE000D34D6210C45B00080070004040F2A11194
:102FF000854801F0BFF963691F2B7FF6E2AE4FF4FD
:10300000D171814801F0B6F9DBE6804A804EC2F802
:103010008034FFF701F9054604E0FFF7FDF8401B97
:1030200002284ED8736A9F07F7D409E74FF4F1716D
:10303000754801F09FF9A369002BE6D0E1E6DA6953
:10304000012542F08052DA61DB6903F0805300937E
:10305000009B08E76C4840F2AF2101F08BF9E06972
:1030600000287FF436AF8CE7694A136843F4803355
:103070001360FFF7D1F8664E054604E0FFF7CCF881
:10308000401B64281DD833689A03F7D58EE640F2BA
:103090006D115D4801F06EF95CE6012002B0BDE8FB
:1030A000F081336843F480733360FFF7B5F8074667
:1030B0003368DA053FF5DCAEFFF7AEF8C01B6428D5
:1030C000F6D9032002B0BDE8F08140F267114E4806
:1030D00001F050F9236833E64D4D2B6823F480331B
:1030E0002B602B6823F480232B60FFF795F80646AE
:1030F00004E0FFF791F8801B6428E2D82B689B035B
:10310000F7D453E6424E41F28838336A23F0010384
:103110003362336A23F004033362FFF77DF8074616
:1031200004E0FFF779F8C01B4045CAD8336A980716
:10313000F7D4002D3FF4C7AE25E0344A344E136077
:10314000FFF76AF8054604E0FFF766F8401B02281F
:10315000B7D833689907F7D4236849E65B68DE037C
:103160003FF519AF33E601283FF40CAF6B68226AD4
:1031700003F48031914290D1606A03F47013181AFD
:1031800018BF0120FEE6224AD36923F08053D361A1
:1031900099E603F18043A3F53C331A6842F4802298
:1031A0001A601A6842F480321A6062E742F0040240
:1031B0001A621A6A42F001021A6271E60022134B87
:1031C0001A66FFF729F8044605E0FFF725F8001B0B
:1031D00002283FF676AF2B689B01F6D4D1E601209A
:1031E0007047A16831F4003306D040F2CF21064881
:1031F00001F0C0F8A168226A0548436823F400334F
:103200000B434360A5E600BFC45B000800004242D8
:103210000010024040F2012C00B51A4B87B00DF1AE
:10322000180E0FCB0EE90F001749ADF804C04A681D
:1032300002F00C03042B1AD0082B14D1C2F38343E1
:10324000734413F8100CD30315D54B680F4AC3F31E
:10325000404302FB00F0734413F8143CB0FBF3F05E
:1032600007B05DF804FB0A4807B05DF804FB0748A7
:1032700007B05DF804FB074B03FB00F007B05DF8F7
:1032800004FB00BFE85B0008001002400024F400CB
:1032900000127A0000093D00002800F0DF8003687A
:1032A0002DE9F0411E0704460D4600F0CD80022DA9
:1032B00000F2C480714A136803F00703AB420CD2DA
:1032C000136823F007032B431360136803F007030D
:1032D000AB4202D00120BDE8F081236898072CD5CD
:1032E000590704D566494A6842F4E0624A601A0701
:1032F00004D563494A6842F460524A60A16831F0DB
:10330000800214D021F02002902A10D021F0400237
:10331000A02A0CD021F01002C02A08D0F02906D033
:1033200040F25F31574801F025F8A16823685448FE
:10333000426822F0F0020A434260DF0724D5636846
:10334000022B00F291804E4A012B126800F0888017
:10335000022B7FD09107BDD5494E41F28838726863
:1033600022F0030213437360FEF756FF074604E0A2
:10337000FEF752FFC01B40457DD87368626803F0BA
:103380000C03B3EB820FF3D13C4A136803F007033D
:10339000AB4209D9136823F007032B43136013686A
:1033A00003F00703AB4295D123685A0718D5E168AB
:1033B00031F480620ED021F40072B2F5A06F09D012
:1033C000B1F5C06F06D04FF469712E4800F0D2FFFE
:1033D000E16823682A48426822F4E0620A434260B6
:1033E0001B0718D5226932F480630DD022F40073D4
:1033F000B3F5A06F08D0B2F5C06F05D040F2AB3185
:10340000204800F0B7FF22691D494B6823F4605340
:1034100043EAC2034B60FFF7FDFE0346184A1A4910
:1034200052681A48C2F30312895C194ACB400068FB
:10343000136001F025F80020BDE8F08140F2393139
:10344000104800F097FF35E74FF44E710D4800F03B
:1034500091FF2CE790013FF57FAF3BE701207047DC
:1034600096033FF579AF35E740F26631054800F045
:1034700081FF636867E703202DE700BF002002405B
:1034800000100240C45B0008C05C00080C00002073
:1034900010000020044B054A5B680549C3F3022372
:1034A000CB5C1068D840704700100240100000202C
:1034B000D05C0008044B054A5B680549C3F3C2238E
:1034C000CB5C1068D840704700100240100000200C
:1034D000D05C000838B504460D46D0B105B30F22C4
:1034E000124B22605A68124902F0030262605A6865
:1034F00002F0F002A2605A6802F4E062E2605B68E7
:10350000DB0803F4E06323610B6803F007032B601F
:1035100038BD40F22351074800F02CFF002DDED1CA
:1035200040F22451034800F025FFD8E70010024084
:1035300000200240C45B0008002800F0DC80F8B5E1
:10354000754A03680446934208D0A2F57842934234
:1035500004D04FF4AC71714800F00CFF63683BB1CC
:10356000B3F5827F04D040F259116C4800F002FF9D
:10357000A36833F4806273D1E36833F400637BD1D2
:10358000A36933F4007203D0B3F5802F40F0A88014
:10359000E36933F0180306D0202B04D040F25D110C
:1035A0005E4800F0E7FE236A33F080036AD1636A65
:1035B000002B6FD1236933F0020340F08B806369E5
:1035C000012B04D940F26511544800F0D3FE636822
:1035D000B3F5827F00F091800023E361002394F82B
:1035E0005120A36202F0FF01002A6AD09C46D4E970
:1035F000013202264FF0010E002502F4044203F4CA
:1036000082731343E268A06902F4006213432269E3
:1036100084F85160324013436269216802EA0E0265
:103620001A43E369266A03F0380700F40073134372
:1036300006F080060A683B433343000C43EA0C0360
:1036400000F0040022F040020A600B604860CB6981
:10365000284623F40063CB61656584F851E0F8BD2A
:10366000B3F5004F88D04FF4AD712C4800F082FEC6
:10367000E36833F4006383D040F25B11274800F025
:1036800079FE7DE74FF4AF71244800F073FE636A62
:10369000002B8FD040F26111204800F06BFE636A6E
:1036A000002B87D0E36933F0180306D0202B04D019
:1036B00040F27311194800F05DFE0023C4E90433A1
:1036C0008CE7204684F8501000F078FEA36A03F4DB
:1036D000005C8CE74FF4B271104800F04BFE6EE7CF
:1036E0004FF4AE710D4800F045FEE36933F0180366
:1036F0003FF459AF50E701207047E36933F01803F6
:103700003FF46CAF202B3FF469AF40F269110348DE
:1037100000F030FE62E700BF00300140FC5B0008B3
:10372000704700BF1E4A036810B5934204460FD08D
:10373000B3F1804F0CD0A2F59432934208D002F539
:103740008062934204D040F2CF11164800F012FE7E
:1037500094F83D30012B1FD10222236884F83D20CC
:10376000DA680F4942F001028B42DA6009D0B3F106
:10377000804F06D00C4A934203D002F580629342F8
:1037800004D19A6802F00702062A07D01A680020BE
:1037900042F001021A6010BD012010BD002010BDD2
:1037A000002C0140205C0008000400402DE9F84393
:1037B00090F83E5090F83F30634A5FFA83F990F8F2
:1037C000423004465FFA83F890F843300E46DFB289
:1037D0000368EDB293420FD0B3F1804F0CD0A2F545
:1037E0009432934208D002F58062934204D040F6AE
:1037F0004A41564800F0BEFD16BB012D03D00125FD
:103800002846BDE8F883B8F1010FF9D102232568F5
:103810004D4A84F83E30954284F8423055D0B5F197
:10382000804F52D04A4B9D424FD003F580639D425A
:103830004BD041F60951454800F09CFD266845E013
:10384000042E53D0012DDAD1B9F1010FD8D1B8F13E
:10385000010FD5D1012FD3D1022326683A4A84F82B
:103860003E30964284F83F3084F8423084F843304A
:1038700054D0B6F1804F51D0354B9E424ED003F517
:1038800080639E4254D041F60951304800F072FDE9
:10389000336A256823F001033362336A2A4A43F00E
:1038A0000103954233622FD0B5F1804F2CD0284BC5
:1038B0009D4229D003F580639D4225D041F60951F0
:1038C000224800F057FD26681FE02E462B6A23F0A1
:1038D00001032B622B6A43F001032B62002533683E
:1038E000284643F001033360BDE8F883B9F1010FC6
:1038F00085D1012F83D102232568134A84F83F30F4
:10390000954284F84330CFD12E462B6A23F0100322
:103910002B622B6A43F010032B62DFE7336A3546D4
:1039200023F001033362336A43F001033362ECE7AF
:10393000084B35461A6A22F001021A621A6A42F0EE
:1039400001021A62E1E700BF002C0140205C000880
:103950000004004000080040704700BF704700BFEF
:10396000704700BF704700BF036810B51A6904466E
:10397000910702D5DA6892075FD41A69500702D519
:10398000DA68510746D41A69120702D5DA681007B7
:103990002ED41A69D20602D5DA68D00618D41A696C
:1039A000D10702D5DA68D2075DD41A69100602D5AC
:1039B000DA6811065FD41A69520602D5DA68500631
:1039C00061D41A69910602D5DA68920643D410BD13
:1039D0006FF01001082219612277DB69204613F489
:1039E000407F64D0FFF7BAFF002223682277D6E732
:1039F0006FF00801042219612277DB6920469907DC
:103A000052D1FFF7A9FF2046FFF7AAFF0022236843
:103A10002277BEE76FF004010222196122779B69C9
:103A2000204613F4407F3CD1FFF796FF2046FFF776
:103A300097FF002223682277A5E76FF00201012299
:103A4000196102779B699B0725D0FFF787FF00224A
:103A50002368227791E76FF020022046BDE81040EE
:103A60001A6100F053BA6FF0010220461A6100F0AB
:103A700075FC236899E76FF0800220461A6100F018
:103A800047FA236897E76FF0400220461A61FFF774
:103A900069FF236895E7FFF75FFF2046FFF760FFA8
:103AA000D5E7FFF75BFFC4E7FFF758FFAEE7FFF787
:103AB00053FF2046FFF754FF96E700BF244A30B477
:103AC000904203682CD0B0F1804F14D0A2F594320C
:103AD000904210D002F5806290420CD04D6923F0E4
:103AE00080032B438C680A6803600123C4628262EE
:103AF00030BC436170474A6823F07003CC681343BD
:103B000023F440734A69234323F0800313438C68F2
:103B10000A6803600123C462826230BC436170475B
:103B20004C6823F07003CA68234323F440731343A3
:103B30004A6923F08003134303608B6830BCC3627F
:103B40000B6883620B69036301234361704700BF05
:103B5000002C014000286ED00368384A10B593420B
:103B600004460FD0B3F1804F0CD0A2F594329342AB
:103B700008D002F58062934204D040F2131130481D
:103B800000F0F8FBA36833F010020AD023F04002E3
:103B9000202A06D0402B04D04FF48A71284800F028
:103BA000E9FB236933F4807202D0B3F5007F38D18A
:103BB000A36933F0800323D194F83D3003F0FF0272
:103BC0004BB30223214684F83D3051F8040BFFF734
:103BD00075FF012384F8463084F83E3084F83F3086
:103BE00084F8403084F8413084F8423084F843301F
:103BF00084F8443084F8453084F83D30002010BD0E
:103C00004FF48B710E4800F0B5FB94F83D3003F093
:103C1000FF02002BD5D1204684F83C20FFF780FD21
:103C2000CFE740F21511064800F0A4FBA36933F07A
:103C30008003C1D0E4E70120704700BF002C0140A1
:103C4000205C0008002800F0FB80F8B57D4A03687E
:103C5000054693420C460FD0B3F1804F0CD0A2F52D
:103C60009432934208D002F58062934204D040F629
:103C70008E31754800F07EFBAB6833F010020AD03D
:103C800023F04002202A06D0402B04D040F68F318A
:103C90006D4800F06FFB2B6933F4807203D0B3F5ED
:103CA000007F40F0C280AB6933F0800340F0818038
:103CB0002368013B022B00F28680A368013B022BA4
:103CC00000F28B80A369013B022B00F290806368B5
:103CD00033F0020304D040F695315B4800F04AFB14
:103CE000636933F0020304D040F69631564800F081
:103CF00041FBE36833F00C0304D040F6973152489F
:103D000000F038FBE36933F00C0340F0888023694E
:103D10000F2B7ED8236A0F2B75D895F83D3003F012
:103D2000FF02002B69D00223294685F83D3051F867
:103D3000040B836823F4804323F007038360FFF7B9
:103D4000BDFE01212E68A768B068B269A36922F49C
:103D5000407222F0030247EA0323134323F47C4218
:103D60002369E7691B0143EA0723E76822F0FC02A5
:103D70003B43376A27F0220C276A43EA0733134391
:103D800067696268246842EA0712204342EA0C022B
:103D9000B060B361326285F8461085F83E1085F850
:103DA0003F1085F8421085F8431085F83D1000203B
:103DB000F8BD40F69131244800F0DCFA2368013B5D
:103DC000022B7FF67AAF40F692311F4800F0D2FA0C
:103DD000A368013B022B7FF675AF40F693311A487A
:103DE00000F0C8FAA369013B022B7FF670AF40F6E2
:103DF0009431154800F0BEFA69E7284685F83C2062
:103E000000F0E6FB8FE740F69A310F4800F0B2FA77
:103E100083E740F699310C4800F0ACFA7AE740F6B7
:103E20009831094800F0A6FA71E74FF43961064865
:103E300000F0A0FAAB6933F080033FF439AFB8E784
:103E400001207047002C0140205C000838B52C4A46
:103E50000368044693420D460FD0B3F1804F0CD057
:103E6000A2F59432934208D002F58062934204D0C6
:103E700040F28671234800F07DFA2B6833F030035E
:103E800006D0402B04D040F287711E4800F072FA31
:103E90006B6833F0800328D194F83C30012B2DD08F
:103EA0000222236884F83D205A682968144822F0C9
:103EB00070020A43834299685A6009D0B3F1804F77
:103EC00006D0114A934203D002F58062934204D196
:103ED0006A6821F08001114399600023012284F86F
:103EE0003C3084F83D20184638BD4FF4F161054858
:103EF00000F040FA94F83C30012BD1D1022038BDBB
:103F0000002C0140445C000800040040704700BFE2
:103F1000704700BF38B54268344B04469A4255D8C2
:103F2000E36833F4005304D040F65461304800F0A5
:103F300021FA236933F4806202D0B3F5C06F4FD108
:103F40004FF6F3736069184239D1002837D02368DF
:103F5000E2681969256921F4405111431961D96852
:103F6000A26821F4B05121F00C012A430A43024314
:103F7000DA605A69A0691F4922F4407202438B42F9
:103F80005A6129D0FFF786FA0346626803EB830380
:103F9000920003EB8303B3FBF2F34FF0640C16497A
:103FA0002068A1FB034252090CFB12331B01323380
:103FB000A1FB0313120102EB5313836038BD0C48BD
:103FC00040F6566100F0D6F96069C0E740F65361EB
:103FD000074800F0CFF9A3E7FFF76CFA0346D4E7F0
:103FE00040F65561024800F0C5F9A9E720AA44004F
:103FF0006C5C0008003801401F85EB5100286ED032
:1040000038B583690446002B43D0026835498A429B
:1040100051D0A1F574418A424DD001F580618A42A8
:1040200049D04FF4B671304800F0A4F9A369002BD1
:1040300041D1A36833F4805304D040F273112A486D
:1040400000F098F994F83D3003F0FF02002B40D0C7
:104050002423226884F83D30D368204623F400539B
:10406000D360FFF757FF00252021236828461A69EF
:1040700022F490421A615A6922F02A025A61DA68DF
:1040800042F40052DA60256484F83D1084F83E1052
:1040900038BD0368134A9342CBD0A2F574429342D1
:1040A000C7D002F580629342C3D040F271110E482E
:1040B00000F060F9BDE723F40072B2F5807FB8D05C
:1040C000B3F5007FB5D040F26D11074800F052F90A
:1040D000AFE7204684F83C2000F0C4FAB8E701209E
:1040E000704700BF003801406C5C0008FEE700002C
:1040F000704700BF08B50A20FCF720F9FBE700BFB6
:1041000000B583B0FEF764F803460021114A124857
:104110000193FCF7AFF8114B1860FEF759F80190C6
:1041200000F066FEFEF754F8019001F009F8FEF782
:104130004FF8019001F052F8FEF74AF8019001F0B3
:10414000B3F9FEF745F80190019B0133019303B0E9
:104150005DF804FB9C5C0008F54000080442002068
:10416000FDF74CBA2DE9F041002488B0CDE90444B4
:10417000CDE90644294B2A4E9A692A4D42F0200285
:104180009A619A69304602F020020192019A9A6976
:10419000102142F004029A619A694FF0010802F07E
:1041A00004020292029A9A69022742F008029A6176
:1041B0009B69224603F008030393039BFEF780FAF2
:1041C000224628460721FEF77BFA48F20C033046C8
:1041D00004A90493CDE90544FEF7A0F81023304666
:1041E0000DEB03010493CDE905840797FEF796F8DC
:1041F0000723284604A90493CDE90647CDF8148087
:10420000FEF78CF83823284604A9CDE90544049329
:10421000FEF784F808B0BDE8F08100BF001002404E
:1042200000080140000C014000234FF4804210B50B
:1042300009480A4C0A49C0E90233C0E90041C0E913
:104240000423C0E906330362FEF70EFB00B910BD7C
:10425000BDE8104000F08CB8084200200054004037
:10426000801A0600002330B5144A016887B09142D5
:10427000CDE90233CDE9043301D007B030BDC02011
:10428000032212250E4C02A9A36943F00803A3617F
:10429000A369029003F0080300930A48009B03956A
:1042A0000592FEF73BF8E36943F40013E361E36929
:1042B00003F400130193019B07B030BD005400408C
:1042C00000100240000C014030B54FF48032092448
:1042D0004FF4003191B001200023CDE9072106946D
:1042E0000E9202244FF4E0120A900C9006A8CDE939
:1042F0000233CDE904330B93099301930D940F928C
:10430000FEF710FD08B172B6FEE703460F254FF425
:104310008062214601A802940393059301950492BB
:10432000FEF7BAFF08B172B6FEE711B030BD00BFAC
:1043300008B5FDF753FFFFF7C7FFFFF713FFFFF7C0
:1043400073FF00F019F800F013F900F06FF9FBF7B4
:1043500055FFFFF7D5FEFBF76BFFFEE7034B026847
:104360009A4200D07047FDF74BBF00BF00040040E9
:1043700072B6FEE7704700BF38B5082100234FF43E
:1043800082754FF400740A220A48C0E90153C0E95B
:104390000333C0E90534C0E90713C0E90933064B0C
:1043A000C2620360FFF7C8F800B938BDBDE8384005
:1043B000FFF7DEBF5C4200200030014070B50024F2
:1043C000194B026886B09A42CDE90244CDE9044413
:1043D00001D006B070BD0320A026022503F560437E
:1043E0009A6902A942F480529A619A6902F4805251
:1043F0000092009A9A6942F004029A619B690590C2
:1044000003F0040301930948019BCDE90265FDF720
:1044100085FF4023054802A9CDE903440293FDF737
:104420007DFF06B070BD00BF0030014000080140B4
:10443000114B10B5986982B040F0010098619C69F9
:10444000002204F001040094009CDC690F2144F078
:104450008054DC61DB696FF0010003F0805301934D
:10446000019BFDF7FDFE054A536823F0E06343F02E
:104470000073536002B010BD001002400000014004
:1044800030B5014689B000221D20FDF7E9FE1D2050
:10449000FDF730FF164B01A9DA6903A842F00202CA
:1044A000DA61DB69134D03F002030293029BFFF70D
:1044B00011F8FEF7EFFF0346002240F2E7315B0000
:1044C000A5FB03530C4C0D489B0C2060013B204680
:1044D000C4E90312A2606360FFF73CFB10B1012046
:1044E00009B030BD2046FFF71DF909B030BD00BF4F
:1044F0000010024083DE1B43B44200200004004051
:10450000FEE700BFFEE700BFFEE700BFFEE700BF1B
:10451000FEE700BF704700BF0148FFF725BA00BFA4
:10452000B44200200D49034610B50D4A0D4C0868F1
:10453000121B20B10344934207D80B6010BD0A4CF4
:104540002046034493420C60F7D901F03DF80C2259
:1045500003464FF0FF301A6010BD00BFFC42002040
:10456000005000200004000070440020704700BF8D
:1045700010B58CB02022002104A801F05FF84FF69E
:10458000FF71002301224FF080441048CDE9023230
:10459000C16003A9C0E90133046001930361836131
:1045A00005920992FFF74EFB48B90023074801A97D
:1045B000CDE90133FFF74AFC20B90CB010BDFFF77D
:1045C000D7FEF2E7FFF7D4FE0CB010BD0043002089
:1045D000002310B5026886B0B2F1804FCDE90233F6
:1045E000CDE9043301D006B010BD032403F18043AC
:1045F00003F50433DA690C4842F00102DA61DA6942
:1046000002A902F001020092009A9A6942F00402A3
:104610009A619B69029403F004030193019BFDF7E7
:104620007DFE06B010BD00BF0008014000234FF41E
:10463000E1310C2210B50948094CC0E90113C0E969
:104640000333C0E905230460C361FFF7D7FC00B959
:1046500010BDBDE81040FFF78BBE00BF48430020EF
:104660000038014070B500241A4B026886B09A42A7
:10467000CDE90244CDE9044401D006B070BD032069
:104680004FF40076022503F558439A6902A942F4D3
:1046900080429A619A6902F480420092009A9A6973
:1046A00042F004029A619B69059003F004030193B0
:1046B0000948019BCDE90265FDF730FE4FF48063A8
:1046C000054802A9CDE903440293FDF727FE06B091
:1046D00070BD00BF003801400008014030B50346FE
:1046E0004FF00414002201204FF6017E5C61B1F806
:1046F00000C019604988164DACF1050C05390FFA58
:104700008CFC09B2A3F842E0DA8483F84100A3F8F4
:10471000442083F84C2083F8542083F85C2083F8ED
:104720006420C3E90C22C3E90E22C3E901222B60F5
:10473000A3F818C0A3F810C0598359821A629A626C
:104740009A85DA609A641A659A651A6630BD00BF68
:104750008C43002030B51D4C4028637883B06FF344
:104760000413637024D0802829D0637823F00303D6
:1047700063704FF496756278217022F06C0242F0FB
:104780006402627002234021104A00951048FEF72F
:10479000B5F96178022321F0640141F044016170B0
:1047A0000A4A402100950A48FEF7A8F903B030BD37
:1047B000637823F0030343F002036370D9E763785F
:1047C00023F0030343F001036370D2E7904300201A
:1047D00008420020F0B54FF496752D4C2D4F2388DC
:1047E0002D4E3B4043F4C84383B043F03F03224681
:1047F00023804021022330460095FEF77FF963783D
:10480000224623F0640343F04403637040210223F3
:1048100030460095FEF772F9238822463B4043F468
:10482000C84343F0400323804021022330460095D3
:10483000FEF764F96378224623F0640343F04403EF
:1048400063704021022330460095FEF757F9B821E6
:104850000020FFF77FFF228802233A4042F4C9423A
:1048600042F0400222804021224630460095FEF769
:1048700045F96278022322F0640242F04402627039
:104880003046224640210095FEF738F903B0F0BDCE
:10489000904300200080FFFF084200202DE9F047F0
:1048A000B821002082B0FFF755FF4FF0B8094FF450
:1048B0009677384C384EDFF8E4806578022325F08F
:1048C0007F052246402145F064053046009765701B
:1048D00084F80090FEF712F940216578022325F054
:1048E000640545F044052246304600978A466570C7
:1048F000FEF704F92588022305EA080545F4ED458D
:104900002246402145F07F05304600972580FEF77E
:10491000F5F86578022325F06405224640213046EB
:1049200045F0440500970AF1FF3A6570FEF7E6F896
:104930001AF0FF0ADED14025B4F800C002230CEAC9
:10494000080C4CF4EB4C4CF07F0C224640213046D6
:104950000097A4F800C0FEF7D1F894F801C0022334
:104960002CF0640C4CF0440C224640213046009759
:10497000013D84F801C0FEF7C1F815F0FF05DBD159
:1049800009F101095FFA89F9B9F1C00F95D102B0B7
:10499000BDE8F08790430020084200200080FFFF20
:1049A0002DE9F047B821002082B0FFF7D3FE4FF089
:1049B000B8094FF49677364C364EDFF8DC806578D0
:1049C000022325F07F052246402145F0640530464C
:1049D0000097657084F80090FEF790F840216578A4
:1049E000022325F0640545F0440522463046009731
:1049F0008A466570FEF782F82588022305EA0805D5
:104A00002246402145F4EC45304600972580FEF7CC
:104A100075F86578022325F064052246402130466A
:104A200045F0440500970AF1FF3A6570FEF766F815
:104A30001AF0FF0AE0D14025B4F800C002230CEAC6
:104A4000080C4CF4EA4C2246402130460097A4F86A
:104A500000C0FEF753F894F801C002232CF0640C58
:104A60004CF0440C2246402130460097013D84F82A
:104A700001C0FEF743F815F0FF05DDD109F101098A
:104A80005FFA89F9B9F1C00F99D102B0BDE8F0879A
:104A900090430020084200200080FFFF2DE9F04FE6
:104AA000B821002083B0FFF755FE4FF0B80A4FF44D
:104AB0009676574C574DDFF860816778022327F0D0
:104AC0007F072246402147F064072846009667701A
:104AD00084F800A0FEF712F86778022327F0640735
:104AE00022464021284647F04407009667704FF061
:104AF0002009FEF703F847F2AA6B2788022307EA8A
:104B00000807224640214BEA0707284600962780DF
:104B1000FDF7F4FF6778022327F06407224640215F
:104B200047F04407284600966770FDF7E7FF27889F
:104B3000022307EA080747F4EC472246402147F0E2
:104B40005507284600962780FDF7D8FF677802238F
:104B500027F0640722464021284647F04407009684
:104B600009F1FF396770FDF7C9FF19F0FF09C4D1DA
:104B7000202747F2AA59B4F800C002230CEA080C17
:104B800049EA0C0C2246402128460096A4F800C0B1
:104B9000FDF7B4FF94F801C002232CF0640C4CF034
:104BA000440C224640212846009684F801C0FDF7B7
:104BB000A5FFB4F800C002230CEA080C4CF4EA4C40
:104BC0004CF0550C2246402128460096A4F800C01F
:104BD000FDF794FF94F801C002232CF0640C4CF014
:104BE000440C2246402128460096013F84F801C02B
:104BF000FDF784FF17F0FF07BDD10AF1010A5FFA44
:104C00008AFABAF1C00F7FF458AF03B0BDE8F08F55
:104C100090430020084200200080FFFF2DE9F04F64
:104C2000002785B0B8213846FFF794FDB8234FF42C
:104C30009675B846DFF81091DFF810B1444C039335
:104C4000A9F1400A9BF80160022326F07F0646F096
:104C5000640C039E5A464021204600958BF8006064
:104C60008BF801C0FDF74AFF9BF80160022326F094
:104C7000640646F044065A464021204600958BF8CB
:104C80000160FDF73BFFA9F17F0601E016F8017F07
:104C90009BF801C05A462CF07F0C4CF0760C022396
:104CA0004021204600958BF800708BF801C0FDF77D
:104CB00025FF9BF80170022327F064075A46402124
:104CC000204647F0440700958BF80170FDF716FF6A
:104CD0005645DBD1A9F13F0601E016F8018F9BF89C
:104CE00001705A4627F07F070223402147F07507DD
:104CF000204600958BF801708BF80080FDF7FEFED2
:104D00009BF80170022327F064075A464021204691
:104D100047F0440700958BF80170FDF7EFFE4E4514
:104D2000DBD1039B09F18009BF2B0AF1800A07D070
:104D30000133DBB219F83F8C19F87F7C039381E7CC
:104D400005B0BDE8F08F00BF575D0008904300201C
:104D50000842002010B5114C637843F08003637063
:104D6000FFF75CFF4FF47A70FFF7FAF963786FF39F
:104D7000C7136370FFF792FE4FF47A70FFF7F0F9F4
:104D8000FFF78CFD4FF47A70FFF7EAF9FFF708FEA2
:104D9000BDE810404FF47A70FFF7E2B9904300206D
:104DA00008B5032811D8DFE800F00C080204FFF76B
:104DB00075FDBDE80840FFF7F3BDBDE80840FFF70B
:104DC0006DBEBDE80840FFF729BF08BD08B5FFF775
:104DD00001FDFFF7BFFF04490448FFF77FFC4FF4D4
:104DE000FA70FBF7ABFAFAE798430020A4430020DF
:104DF00008B50021034A0448FBF73CFA034B18604E
:104E000008BD00BFE4600008CD4D000894430020B9
:104E100003280ED8DFE800F00B0805020220FFF798
:104E2000BFBF0120FFF7BCBF0020FFF7B9BFFFF7EE
:104E300091BF704780B5BF4CBF4DC04F84B00821B3
:104E40002846FDF72BFC0246237810219B1AB3FA63
:104E500083F328465B098DF80A30FDF71FFC0346F3
:104E600026782021F61AB6FA86F6284676098DF8B5
:104E70000960FDF713FC804694F800904FF4004160
:104E8000A8EB0903B3FA83F338465B098DF80830C1
:104E9000FDF704FC0246237864209B1AB3FA83F3DF
:104EA0005B098DF80B30FBF749FA08212846FDF71E
:104EB000F5FB0246237810219B1AB3FA83F32846A8
:104EC0005B098DF80E30FDF7E9FB024623782021BF
:104ED0009B1AB3FA83F328465B098DF80D30FDF772
:104EE000DDFB024623784FF400419B1AB3FA83F3AB
:104EF00038465B098DF80C30FDF7D0FB86462378E9
:104F00004FF0000CA3EB0E03B3FA83F304225B090A
:104F100003A902A88DF80F30CDF804C000F05AFBA9
:104F20000190019B6BB9C8450FD0002E4AD19DF866
:104F30000A60012E00F084809DF80B60012E00F0C5
:104F4000BD806420FBF7FAF979E708212846FDF7D0
:104F5000A5FB0246237810219B1AB3FA83F3284657
:104F60005B098DF80A30FDF799FB0346267820216E
:104F7000F61AB6FA86F6284676098DF80960FDF726
:104F80008DFB804694F800904FF40041A8EB090394
:104F9000B3FA83F338465B098DF80830FDF77EFBE2
:104FA0000246237896209B1AB3FA83F35B098DF8A7
:104FB0000B30FBF7C3F9C845C7D00120FFF728FF26
:104FC000002EB4D008212846FDF768FB034626785A
:104FD0001021F61AB6FA86F6284676098DF80A6088
:104FE000FDF75CFB804694F800902021A8EB0903B4
:104FF000B3FA83F328465B098DF80930FDF74EFBC1
:10500000024623784FF400419B1AB3FA83F33846E3
:105010005B098DF80830FDF741FB024623789620A6
:105020009B1AB3FA83F35B098DF80B30FBF786F913
:10503000C845C7D00220FFF7EBFE012E7FF47CAFFE
:1050400008212846FDF72AFB804694F8009010219D
:10505000A8EB0903B3FA83F328465B098DF80A30FD
:10506000FDF71CFB0246237820219B1AB3FA83F339
:1050700028465B098DF80930FDF710FB02462378BE
:105080004FF400419B1AB3FA83F338465B098DF85D
:105090000830FDF703FB034626789620F61AB6FA89
:1050A00086F676098DF80B60FBF748F9C845C7D03E
:1050B0000320FFF7ADFE012E7FF443AF0821284601
:1050C000FDF7ECFA0246237810219B1AB3FA83F31A
:1050D00028465B098DF80A30FDF7E0FA024623788E
:1050E00020219B1AB3FA83F328465B098DF8093017
:1050F000FDF7D4FA024623784FF400419B1AB3FA25
:1051000083F338465B098DF80830FDF7C7FA064689
:1051100094F800809620A6EB0803B3FA83F35B09AA
:105120008DF80B30FBF70AF94645C7D000F0D0F9EF
:1051300007E700BF0C440020000C014000080140BC
:1051400008B50021034A0448FBF794F8034B1860A4
:1051500008BD00BF14610008354E0008104400204F
:105160002DE9F0473C211948FEF720FB47F6FF796F
:105170004FF0000ADFF85480154D164F164E16E01A
:10518000C8BF01203B88D6BF02201B1803F1FF33A4
:105190003B8000F0DFF933782C600133DBB2062B63
:1051A00094BF337086F800A09620FBF7C7F8D8F8B4
:1051B00000202B68546A013CC4F34E04A9EB04049C
:1051C000A342DDD1002000F0C5F9EDE70043002047
:1051D0001C440020144400202044002008B5002175
:1051E000034A0448FBF746F8034B186008BD00BFAC
:1051F0003861000861510008184400201B4B30B58D
:1052000003EBC005B5F804C053F83030BCF1070F0C
:105210001AD80F2518684FEA8C0E01FA0EF405FA19
:105220000EF120EA0101196019680C431C6001208D
:10523000D96800FA0CF021EA0001D960D96802FAB5
:105240000CF20A43DA6030BD4FF00F0EACF10800EB
:105250005D68800001FA00F40EFA00F025EA000013
:10526000586059680C435C60E1E700BF6461000866
:10527000012208B5104B0020996941F004019961A1
:10528000996941F008019961996911439961114641
:10529000FFF7B4FF012211461046FFF7AFFF0122CE
:1052A00002201146FFF7AAFFBDE8084001220320B3
:1052B0001146FFF7A3BF00BF00100240F0B4012564
:1052C0001D4E00EB4003F45C1C4B420003EBC40793
:1052D000B7F804C053F8347005FA0CF549B33D61D2
:1052E0001044304442784FF0E02C53F8326003EB26
:1052F000C202948801224FF0805502FA04F434610E
:10530000CCF8045DBFF34F8FBFF36F8F4078012956
:1053100053F8304003EBC0039B8802FA03F262614A
:10532000074AF0BC13680CBF03F1FF33013313606D
:1053300070477D61D4E700BF14000020646100085D
:105340002C4400202DE9F04F01241646DFF890B0E0
:1053500000EB40025A44DFF88CA0927883B0984664
:1053600000FA04F301930AEBC2039B880F465AF834
:10537000321004FA03F30546DDF830900B61EEB10C
:10538000002408E039462846FFF798FF4046FCF71E
:1053900035F9A64206D000214846FBF741FC01340E
:1053A0000028EFD00120019B2B445B449A780AEB44
:1053B000C2039B885AF8321000FA03F3019A2A4478
:1053C00093449BF801205AF832000AEBC20A0122EA
:1053D000BAF80440A24042614B6103B0BDE8F08FCF
:1053E000140000206461000800B50F4E0F4D104CF2
:1053F00085B002A94FF0FF323068FBF74FFBD5F8BC
:1054000000C09DF80C30BDF80A209DF809109DF8E9
:105410000800CDF800C0FFF795FF002320681A466A
:105420001946FBF77BFAE4E73444002028440020C7
:105430002444002070B50024012582B02346802238
:10544000CDE900540E490F48FCF7A4F82246062186
:105450000220FBF733FA06460B4B2146032228466F
:105460001E60FBF72BFA0646084B0322214628460E
:105470001E60FBF723FA064B186002B070BD00BF38
:105480005C610008E95300083444002028440020EF
:105490002444002008B5FFF7EBFEFFF7CBFF4FF4E5
:1054A0007A70FCF7ABF8FAE7002108B5044B054A1F
:1054B00005481960FAF7DEFE044B186008BD00BF0E
:1054C0002C440020846100089554000838440020D2
:1054D00030B54FF0050C4FF4486E4FF480751B4CFF
:1054E00083B06946002304222068ADF802E08DF8FD
:1054F00004C0ADF80050FBF711FA4FF47A70FCF7D6
:105500007DF84FF0030C69460023042220688DF8D3
:1055100004C0FBF703FA4FF47A70FCF76FF84FF012
:10552000010C69460023042220688DF804C0FBF7B3
:10553000F5F94FF47A70FCF761F80023044A194634
:1055400010681A46FBF7EAF903B030BD3444002076
:1055500028440020194B1B78834212D04FF0010CD5
:105560000023A02210B5604582B0ADF80030ADF840
:1055700002208DF804C018D002280CD010B102B05F
:1055800010BD70470E4C0346024601462068FBF7EB
:10559000C5F902B010BD0B490422086869468DF8B0
:1055A00001C0FBF7BBF902B010BD06490422086830
:1055B0006946FBF7B3F902B010BD00BF30440020CC
:1055C0002844002034440020014B1868704700BF75
:1055D00018000020032A10B516D940EA010C1CF06F
:1055E000030F04460B4622D119462046D1F800E0AD
:1055F000D0F800C00433F44504F1040417D1043A90
:10560000032A20461946EFD8541EA2B100F1FF3CF0
:10561000013901E0C3180CD01CF801EF11F8012F7B
:10562000A4EB0C039645F5D0AEEB020010BD541E62
:10563000ECE7184610BD104610BD00BF830730B51B
:1056400048D0541E002A3FD00346CAB201E0013CB4
:105650003AD303F8012B9D07F9D1032C2DD9CDB2F4
:1056600045EA05250F2C45EA054536D9A4F1100277
:1056700022F00F0C03F1200EE6444FEA121C03F156
:10568000100242E9045542E9025510327245F8D140
:105690000CF1010214F00C0F03EB021204F00F0CDA
:1056A00013D0ACF1040323F003030433134442F892
:1056B000045B9342FBD10CF003042CB1CAB21C442E
:1056C00003F8012B9C42FBD130BD64461346002CED
:1056D000F4D1F9E703461446BFE71A46A446E0E7CB
:1056E0002DE9F0410E680C460546BEB137688FB112
:1056F000D7F80080B8F1000F08D0D8F8001009B131
:10570000FFF7EEFF4146284600F0A6F83946284646
:1057100000F0A2F83146284600F09EF821462846BF
:10572000BDE8F04100F098B8224B1B68834240D09E
:10573000C16C70B5054681B100268C593CB121463B
:105740002468284600F088F8002CF8D1E96C04366B
:10575000802EF2D1284600F07FF8296C11B128463E
:1057600000F07AF8D5F8484154B105F5A676B44270
:1057700006D021462468284600F06EF8A642F8D1EB
:10578000696D11B1284600F067F8AB6B83B128460C
:10579000EB6B9847D5F8E04254B1216811B1284627
:1057A000FFF79EFF21462846BDE8704000F054B840
:1057B00070BD704718000020F8B50C46234F064610
:1057C00000F04AF9BB685D68C4F57E6325F0030507
:1057D0000F332B4423F47F6323F00F03A3F580548E
:1057E000B4F5805F07DB0021304600F041F9BB686B
:1057F0002B44984204D0304600F034F90020F8BD24
:105800003046614200F034F901300DD0104ABB68D7
:105810002D1B45F001055D60136830461B1B1360AE
:1058200000F020F90120F8BD0021304600F020F9F9
:10583000BA68831A0F2BDEDD43F001035360054B7A
:1058400003491B68C01A0860D5E700BF4804002060
:10585000404400205008002000295ED0F8B50C46D6
:10586000064600F0F9F854F8042C784FA4F1080526
:1058700022F001016818D7F808C04368844523F076
:10588000030300F08780D207436034D454F8082C17
:1058900007F10804AD1A1144AA68A24268D000EBCF
:1058A000030CDCF804E0D5F80CC01EF0010FC2F8C0
:1058B0000CC0CCF8082000F0918041F001036B602F
:1058C0000160B1F5007F31D24A09CB080121914036
:1058D0007A6801331143796007EBC30257F833103C
:1058E000083AC5E9021247F83350CD603046BDE8AA
:1058F000F84000F0B7B8C2185268D2070ED4194465
:1059000007F108048368A34270D0C268DA6093602C
:1059100041F001036B606950D3E7704741F0010328
:10592000B1F5007F44F8043C0160CDD3B1F5206FA0
:105930004FEA512347D28B0903F1390003F13802B2
:10594000C300F818FB580838984258D05A6822F01B
:1059500003028A4202D99B689842F7D1D868C5E908
:10596000023085603046DD60BDE8F84000F07AB86E
:10597000C2185268D20763D40B44D0E90212CA603D
:10598000916043F001026A603046EB50BDE8F84098
:1059900000F068B80B44D10707D454F8082CAD1AAE
:1059A0001344D5E90212CA60916043F001026A60B3
:1059B000274ABD6012689A4298D8264B304619682B
:1059C000FFF7FAFE92E7142B0AD9542B1FD80B0BC2
:1059D00003F16F0003F16E02C300B2E7194491E7CF
:1059E00003F15C0003F15B02C300AAE741F001038D
:1059F000C7E90455C5E902446B60695076E70121A7
:105A0000921001FA02F279680A437A60A7E7B3F5C7
:105A1000AA7F06D8CB0B03F1780003F17702C3000D
:105A20008FE740F25452934206D88B0C03F17D006D
:105A300003F17C02C30084E74FF47E737E2280E78B
:105A400041F001036B60016050E700BF4804002093
:105A50005408002068440020014800F01BB800BF33
:105A60006C440020014800F017B800BF6C440020CF
:105A7000002238B5064D044608462A60FEF752FD5E
:105A8000431C00D038BD2B68002BFBD0236038BDF1
:0C5A90003C440020704700BF704700BF7E
:105A9C001E481F4A08B5904207D2013A121A22F04A
:105AAC0003021C490432FAF72DFB1B481B4A904297
:105ABC0007D2013A121A22F0030200210432FFF736
:105ACC00B7FDFEF70FFB164DFEF74AFD154B5B1BA2
